{
  "contractName": "IndexSwap",
  "abi": [
    {
      "inputs": [],
      "stateMutability": "nonpayable",
      "type": "constructor"
    },
    {
      "inputs": [
        {
          "internalType": "address",
          "name": "",
          "type": "address"
        }
      ],
      "name": "btcBalance",
      "outputs": [
        {
          "internalType": "uint256",
          "name": "",
          "type": "uint256"
        }
      ],
      "stateMutability": "view",
      "type": "function"
    },
    {
      "inputs": [],
      "name": "currentRate",
      "outputs": [
        {
          "internalType": "uint256",
          "name": "numerator",
          "type": "uint256"
        },
        {
          "internalType": "uint256",
          "name": "denominator",
          "type": "uint256"
        }
      ],
      "stateMutability": "view",
      "type": "function"
    },
    {
      "inputs": [
        {
          "internalType": "address",
          "name": "",
          "type": "address"
        }
      ],
      "name": "daiBalance",
      "outputs": [
        {
          "internalType": "uint256",
          "name": "",
          "type": "uint256"
        }
      ],
      "stateMutability": "view",
      "type": "function"
    },
    {
      "inputs": [],
      "name": "defiToken",
      "outputs": [
        {
          "internalType": "contract IToken",
          "name": "",
          "type": "address"
        }
      ],
      "stateMutability": "view",
      "type": "function"
    },
    {
      "inputs": [
        {
          "internalType": "address",
          "name": "",
          "type": "address"
        }
      ],
      "name": "ethBalance",
      "outputs": [
        {
          "internalType": "uint256",
          "name": "",
          "type": "uint256"
        }
      ],
      "stateMutability": "view",
      "type": "function"
    },
    {
      "inputs": [
        {
          "internalType": "address",
          "name": "",
          "type": "address"
        }
      ],
      "name": "linkBalance",
      "outputs": [
        {
          "internalType": "uint256",
          "name": "",
          "type": "uint256"
        }
      ],
      "stateMutability": "view",
      "type": "function"
    },
    {
      "inputs": [
        {
          "internalType": "address",
          "name": "",
          "type": "address"
        }
      ],
      "name": "ltcBalance",
      "outputs": [
        {
          "internalType": "uint256",
          "name": "",
          "type": "uint256"
        }
      ],
      "stateMutability": "view",
      "type": "function"
    },
    {
      "inputs": [
        {
          "internalType": "address",
          "name": "",
          "type": "address"
        }
      ],
      "name": "lunaBalance",
      "outputs": [
        {
          "internalType": "uint256",
          "name": "",
          "type": "uint256"
        }
      ],
      "stateMutability": "view",
      "type": "function"
    },
    {
      "inputs": [],
      "name": "pancakeSwapRouter",
      "outputs": [
        {
          "internalType": "contract IPancakeRouter02",
          "name": "",
          "type": "address"
        }
      ],
      "stateMutability": "view",
      "type": "function"
    },
    {
      "inputs": [
        {
          "internalType": "address",
          "name": "",
          "type": "address"
        }
      ],
      "name": "shibaBalance",
      "outputs": [
        {
          "internalType": "uint256",
          "name": "",
          "type": "uint256"
        }
      ],
      "stateMutability": "view",
      "type": "function"
    },
    {
      "inputs": [
        {
          "internalType": "address",
          "name": "",
          "type": "address"
        }
      ],
      "name": "stethBalance",
      "outputs": [
        {
          "internalType": "uint256",
          "name": "",
          "type": "uint256"
        }
      ],
      "stateMutability": "view",
      "type": "function"
    },
    {
      "inputs": [
        {
          "internalType": "address",
          "name": "",
          "type": "address"
        }
      ],
      "name": "uniBalance",
      "outputs": [
        {
          "internalType": "uint256",
          "name": "",
          "type": "uint256"
        }
      ],
      "stateMutability": "view",
      "type": "function"
    },
    {
      "inputs": [
        {
          "internalType": "address",
          "name": "",
          "type": "address"
        }
      ],
      "name": "xrpBalance",
      "outputs": [
        {
          "internalType": "uint256",
          "name": "",
          "type": "uint256"
        }
      ],
      "stateMutability": "view",
      "type": "function"
    },
    {
      "stateMutability": "payable",
      "type": "receive"
    },
    {
      "inputs": [
        {
          "internalType": "uint256",
          "name": "_numerator",
          "type": "uint256"
        },
        {
          "internalType": "uint256",
          "name": "_denominator",
          "type": "uint256"
        }
      ],
      "name": "updateRate",
      "outputs": [],
      "stateMutability": "nonpayable",
      "type": "function"
    },
    {
      "inputs": [
        {
          "internalType": "uint256",
          "name": "btc",
          "type": "uint256"
        },
        {
          "internalType": "uint256",
          "name": "eth",
          "type": "uint256"
        },
        {
          "internalType": "uint256",
          "name": "shiba",
          "type": "uint256"
        },
        {
          "internalType": "uint256",
          "name": "xrp",
          "type": "uint256"
        },
        {
          "internalType": "uint256",
          "name": "ltc",
          "type": "uint256"
        },
        {
          "internalType": "uint256",
          "name": "dai",
          "type": "uint256"
        },
        {
          "internalType": "uint256",
          "name": "luna",
          "type": "uint256"
        },
        {
          "internalType": "uint256",
          "name": "link",
          "type": "uint256"
        },
        {
          "internalType": "uint256",
          "name": "uni",
          "type": "uint256"
        },
        {
          "internalType": "uint256",
          "name": "steth",
          "type": "uint256"
        },
        {
          "internalType": "address",
          "name": "user",
          "type": "address"
        }
      ],
      "name": "setUpDataDeFi",
      "outputs": [],
      "stateMutability": "nonpayable",
      "type": "function"
    },
    {
      "inputs": [],
      "name": "investInFundDefi",
      "outputs": [],
      "stateMutability": "payable",
      "type": "function"
    },
    {
      "inputs": [
        {
          "internalType": "uint256",
          "name": "tokenAmount",
          "type": "uint256"
        }
      ],
      "name": "withdrawFromFundTOPTokens",
      "outputs": [],
      "stateMutability": "payable",
      "type": "function"
    },
    {
      "inputs": [
        {
          "internalType": "address",
          "name": "crypto",
          "type": "address"
        }
      ],
      "name": "getPathForETH",
      "outputs": [
        {
          "internalType": "address[]",
          "name": "",
          "type": "address[]"
        }
      ],
      "stateMutability": "view",
      "type": "function"
    },
    {
      "inputs": [
        {
          "internalType": "address",
          "name": "token",
          "type": "address"
        }
      ],
      "name": "getPathForToken",
      "outputs": [
        {
          "internalType": "address[]",
          "name": "",
          "type": "address[]"
        }
      ],
      "stateMutability": "view",
      "type": "function"
    },
    {
      "inputs": [],
      "name": "getETH",
      "outputs": [
        {
          "internalType": "address",
          "name": "",
          "type": "address"
        }
      ],
      "stateMutability": "view",
      "type": "function"
    }
  ],
  "bytecode": "0x6080604052736056773c28c258425cf9bc8ba5f86b8031863164600160006101000a81548173ffffffffffffffffffffffffffffffffffffffff021916908373ffffffffffffffffffffffffffffffffffffffff160217905550734b1851167f74ff108a994872a160f1d6772d474b600360006101000a81548173ffffffffffffffffffffffffffffffffffffffff021916908373ffffffffffffffffffffffffffffffffffffffff160217905550738babbb98678facc7342735486c851abd7a0d17ca600460006101000a81548173ffffffffffffffffffffffffffffffffffffffff021916908373ffffffffffffffffffffffffffffffffffffffff16021790555073bf0646fa5abbff6af50a9c40d5e621835219d384600560006101000a81548173ffffffffffffffffffffffffffffffffffffffff021916908373ffffffffffffffffffffffffffffffffffffffff16021790555073cc00177908830ce1644aeb4ad507fda3789128af600660006101000a81548173ffffffffffffffffffffffffffffffffffffffff021916908373ffffffffffffffffffffffffffffffffffffffff160217905550732f9fd65e3bb89b68a8e2abd68db25f5c348f68ee600760006101000a81548173ffffffffffffffffffffffffffffffffffffffff021916908373ffffffffffffffffffffffffffffffffffffffff160217905550738a9424745056eb399fd19a0ec26a14316684e274600860006101000a81548173ffffffffffffffffffffffffffffffffffffffff021916908373ffffffffffffffffffffffffffffffffffffffff160217905550730bbf12a9ccd7cd0e23da21efd3bb16ba807ab069600960006101000a81548173ffffffffffffffffffffffffffffffffffffffff021916908373ffffffffffffffffffffffffffffffffffffffff160217905550738d908a42fd847c80eeb4498de43469882436c8ff600a60006101000a81548173ffffffffffffffffffffffffffffffffffffffff021916908373ffffffffffffffffffffffffffffffffffffffff1602179055507362955c6ca8cd74f8773927b880966b7e70ad4567600b60006101000a81548173ffffffffffffffffffffffffffffffffffffffff021916908373ffffffffffffffffffffffffffffffffffffffff16021790555073b7a58582df45dba8ad346c6a51fdb796d64e0898600c60006101000a81548173ffffffffffffffffffffffffffffffffffffffff021916908373ffffffffffffffffffffffffffffffffffffffff1602179055503480156103b757600080fd5b50739ac64cc6e4415144c455bd8e4837fea55603e5c36000806101000a81548173ffffffffffffffffffffffffffffffffffffffff021916908373ffffffffffffffffffffffffffffffffffffffff16021790555073f70538622598232a95b1ec1914fc878d28ebae68600260006101000a81548173ffffffffffffffffffffffffffffffffffffffff021916908373ffffffffffffffffffffffffffffffffffffffff1602179055506140fb806104706000396000f3fe6080604052600436106101235760003560e01c8063b13f2552116100a0578063d7f7098f11610064578063d7f7098f14610422578063d8f3790f1461045f578063e9d1209b1461049c578063ea987a1e146104d9578063f9f8bdb7146105045761012a565b8063b13f2552146102f1578063c585f8751461032e578063ca0e7ed51461036b578063ca91c0e9146103a8578063d20eff43146103e55761012a565b8063405abb41116100e7578063405abb41146102095780634453afd7146102325780636fc1c5531461025b57806385f90d3d14610298578063b0849c1c146102b45761012a565b806314f6c3be1461012f57806319effc681461015a578063245589951461016457806335b9d2db1461018f578063391bfa74146101cc5761012a565b3661012a57005b600080fd5b34801561013b57600080fd5b50610144610530565b6040516101519190613b63565b60405180910390f35b6101626105d6565b005b34801561017057600080fd5b50610179611585565b6040516101869190613c00565b60405180910390f35b34801561019b57600080fd5b506101b660048036038101906101b191906136ff565b6115a9565b6040516101c39190613ce2565b60405180910390f35b3480156101d857600080fd5b506101f360048036038101906101ee91906136ff565b6115c1565b6040516102009190613ce2565b60405180910390f35b34801561021557600080fd5b50610230600480360381019061022b91906137e4565b6115d9565b005b34801561023e57600080fd5b5061025960048036038101906102549190613820565b61160d565b005b34801561026757600080fd5b50610282600480360381019061027d91906136ff565b611ba6565b60405161028f9190613ce2565b60405180910390f35b6102b260048036038101906102ad91906137bb565b611bbe565b005b3480156102c057600080fd5b506102db60048036038101906102d691906136ff565b612e79565b6040516102e89190613bde565b60405180910390f35b3480156102fd57600080fd5b50610318600480360381019061031391906136ff565b61307f565b6040516103259190613ce2565b60405180910390f35b34801561033a57600080fd5b50610355600480360381019061035091906136ff565b613097565b6040516103629190613ce2565b60405180910390f35b34801561037757600080fd5b50610392600480360381019061038d91906136ff565b6130af565b60405161039f9190613bde565b60405180910390f35b3480156103b457600080fd5b506103cf60048036038101906103ca91906136ff565b6132b5565b6040516103dc9190613ce2565b60405180910390f35b3480156103f157600080fd5b5061040c600480360381019061040791906136ff565b6132cd565b6040516104199190613ce2565b60405180910390f35b34801561042e57600080fd5b50610449600480360381019061044491906136ff565b6132e5565b6040516104569190613ce2565b60405180910390f35b34801561046b57600080fd5b50610486600480360381019061048191906136ff565b6132fd565b6040516104939190613ce2565b60405180910390f35b3480156104a857600080fd5b506104c360048036038101906104be91906136ff565b613315565b6040516104d09190613ce2565b60405180910390f35b3480156104e557600080fd5b506104ee61332d565b6040516104fb9190613c1b565b60405180910390f35b34801561051057600080fd5b50610519613353565b604051610527929190613d57565b60405180910390f35b60008060009054906101000a900473ffffffffffffffffffffffffffffffffffffffff1673ffffffffffffffffffffffffffffffffffffffff1663ad5c46486040518163ffffffff1660e01b815260040160206040518083038186803b15801561059957600080fd5b505afa1580156105ad573d6000803e3d6000fd5b505050506040513d601f19601f820116820180604052508101906105d19190613728565b905090565b600260009054906101000a900473ffffffffffffffffffffffffffffffffffffffff1673ffffffffffffffffffffffffffffffffffffffff1663095ea7b330346040518363ffffffff1660e01b8152600401610633929190613bb5565b602060405180830381600087803b15801561064d57600080fd5b505af1158015610661573d6000803e3d6000fd5b505050506040513d601f19601f820116820180604052508101906106859190613792565b506106916064806115d9565b6060806060806060806060806060806000600f426106af9190613e3d565b905060008054906101000a900473ffffffffffffffffffffffffffffffffffffffff1673ffffffffffffffffffffffffffffffffffffffff16637ff36ab5600a346106fa9190613e93565b6000610727600360009054906101000a900473ffffffffffffffffffffffffffffffffffffffff16612e79565b600160009054906101000a900473ffffffffffffffffffffffffffffffffffffffff16866040518663ffffffff1660e01b815260040161076a9493929190613c36565b6000604051808303818588803b15801561078357600080fd5b505af1158015610797573d6000803e3d6000fd5b50505050506040513d6000823e3d601f19601f820116820180604052508101906107c19190613751565b9a5060008054906101000a900473ffffffffffffffffffffffffffffffffffffffff1673ffffffffffffffffffffffffffffffffffffffff16637ff36ab5600a3461080c9190613e93565b6000610839600460009054906101000a900473ffffffffffffffffffffffffffffffffffffffff16612e79565b600160009054906101000a900473ffffffffffffffffffffffffffffffffffffffff16866040518663ffffffff1660e01b815260040161087c9493929190613c36565b6000604051808303818588803b15801561089557600080fd5b505af11580156108a9573d6000803e3d6000fd5b50505050506040513d6000823e3d601f19601f820116820180604052508101906108d39190613751565b995060008054906101000a900473ffffffffffffffffffffffffffffffffffffffff1673ffffffffffffffffffffffffffffffffffffffff16637ff36ab5600a3461091e9190613e93565b600061094b600560009054906101000a900473ffffffffffffffffffffffffffffffffffffffff16612e79565b600160009054906101000a900473ffffffffffffffffffffffffffffffffffffffff16866040518663ffffffff1660e01b815260040161098e9493929190613c36565b6000604051808303818588803b1580156109a757600080fd5b505af11580156109bb573d6000803e3d6000fd5b50505050506040513d6000823e3d601f19601f820116820180604052508101906109e59190613751565b985060008054906101000a900473ffffffffffffffffffffffffffffffffffffffff1673ffffffffffffffffffffffffffffffffffffffff16637ff36ab5600a34610a309190613e93565b6000610a5d600660009054906101000a900473ffffffffffffffffffffffffffffffffffffffff16612e79565b600160009054906101000a900473ffffffffffffffffffffffffffffffffffffffff16866040518663ffffffff1660e01b8152600401610aa09493929190613c36565b6000604051808303818588803b158015610ab957600080fd5b505af1158015610acd573d6000803e3d6000fd5b50505050506040513d6000823e3d601f19601f82011682018060405250810190610af79190613751565b975060008054906101000a900473ffffffffffffffffffffffffffffffffffffffff1673ffffffffffffffffffffffffffffffffffffffff16637ff36ab5600a34610b429190613e93565b6000610b6f600760009054906101000a900473ffffffffffffffffffffffffffffffffffffffff16612e79565b600160009054906101000a900473ffffffffffffffffffffffffffffffffffffffff16866040518663ffffffff1660e01b8152600401610bb29493929190613c36565b6000604051808303818588803b158015610bcb57600080fd5b505af1158015610bdf573d6000803e3d6000fd5b50505050506040513d6000823e3d601f19601f82011682018060405250810190610c099190613751565b965060008054906101000a900473ffffffffffffffffffffffffffffffffffffffff1673ffffffffffffffffffffffffffffffffffffffff16637ff36ab5600a34610c549190613e93565b6000610c81600860009054906101000a900473ffffffffffffffffffffffffffffffffffffffff16612e79565b600160009054906101000a900473ffffffffffffffffffffffffffffffffffffffff16866040518663ffffffff1660e01b8152600401610cc49493929190613c36565b6000604051808303818588803b158015610cdd57600080fd5b505af1158015610cf1573d6000803e3d6000fd5b50505050506040513d6000823e3d601f19601f82011682018060405250810190610d1b9190613751565b955060008054906101000a900473ffffffffffffffffffffffffffffffffffffffff1673ffffffffffffffffffffffffffffffffffffffff16637ff36ab5600a34610d669190613e93565b6000610d93600960009054906101000a900473ffffffffffffffffffffffffffffffffffffffff16612e79565b600160009054906101000a900473ffffffffffffffffffffffffffffffffffffffff16866040518663ffffffff1660e01b8152600401610dd69493929190613c36565b6000604051808303818588803b158015610def57600080fd5b505af1158015610e03573d6000803e3d6000fd5b50505050506040513d6000823e3d601f19601f82011682018060405250810190610e2d9190613751565b945060008054906101000a900473ffffffffffffffffffffffffffffffffffffffff1673ffffffffffffffffffffffffffffffffffffffff16637ff36ab5600a34610e789190613e93565b6000610ea5600a60009054906101000a900473ffffffffffffffffffffffffffffffffffffffff16612e79565b600160009054906101000a900473ffffffffffffffffffffffffffffffffffffffff16866040518663ffffffff1660e01b8152600401610ee89493929190613c36565b6000604051808303818588803b158015610f0157600080fd5b505af1158015610f15573d6000803e3d6000fd5b50505050506040513d6000823e3d601f19601f82011682018060405250810190610f3f9190613751565b935060008054906101000a900473ffffffffffffffffffffffffffffffffffffffff1673ffffffffffffffffffffffffffffffffffffffff16637ff36ab5600a34610f8a9190613e93565b6000610fb7600b60009054906101000a900473ffffffffffffffffffffffffffffffffffffffff16612e79565b600160009054906101000a900473ffffffffffffffffffffffffffffffffffffffff16866040518663ffffffff1660e01b8152600401610ffa9493929190613c36565b6000604051808303818588803b15801561101357600080fd5b505af1158015611027573d6000803e3d6000fd5b50505050506040513d6000823e3d601f19601f820116820180604052508101906110519190613751565b925060008054906101000a900473ffffffffffffffffffffffffffffffffffffffff1673ffffffffffffffffffffffffffffffffffffffff16637ff36ab5600a3461109c9190613e93565b60006110c9600c60009054906101000a900473ffffffffffffffffffffffffffffffffffffffff16612e79565b600160009054906101000a900473ffffffffffffffffffffffffffffffffffffffff16866040518663ffffffff1660e01b815260040161110c9493929190613c36565b6000604051808303818588803b15801561112557600080fd5b505af1158015611139573d6000803e3d6000fd5b50505050506040513d6000823e3d601f19601f820116820180604052508101906111639190613751565b91506114028b6001815181106111a2577f4e487b7100000000000000000000000000000000000000000000000000000000600052603260045260246000fd5b60200260200101518b6001815181106111e4577f4e487b7100000000000000000000000000000000000000000000000000000000600052603260045260246000fd5b60200260200101518b600181518110611226577f4e487b7100000000000000000000000000000000000000000000000000000000600052603260045260246000fd5b60200260200101518b600181518110611268577f4e487b7100000000000000000000000000000000000000000000000000000000600052603260045260246000fd5b60200260200101518b6001815181106112aa577f4e487b7100000000000000000000000000000000000000000000000000000000600052603260045260246000fd5b60200260200101518b6001815181106112ec577f4e487b7100000000000000000000000000000000000000000000000000000000600052603260045260246000fd5b60200260200101518b60018151811061132e577f4e487b7100000000000000000000000000000000000000000000000000000000600052603260045260246000fd5b60200260200101518b600181518110611370577f4e487b7100000000000000000000000000000000000000000000000000000000600052603260045260246000fd5b60200260200101518b6001815181106113b2577f4e487b7100000000000000000000000000000000000000000000000000000000600052603260045260246000fd5b60200260200101518b6001815181106113f4577f4e487b7100000000000000000000000000000000000000000000000000000000600052603260045260246000fd5b60200260200101513361160d565b6000349050600061143860186001015461142a6018600001548561336590919063ffffffff16565b61337b90919063ffffffff16565b9050600260009054906101000a900473ffffffffffffffffffffffffffffffffffffffff1673ffffffffffffffffffffffffffffffffffffffff166340c10f1933836040518363ffffffff1660e01b8152600401611497929190613bb5565b600060405180830381600087803b1580156114b157600080fd5b505af11580156114c5573d6000803e3d6000fd5b5050505060003373ffffffffffffffffffffffffffffffffffffffff16476040516114ef90613b4e565b60006040518083038185875af1925050503d806000811461152c576040519150601f19603f3d011682016040523d82523d6000602084013e611531565b606091505b5050905080611575576040517f08c379a000000000000000000000000000000000000000000000000000000000815260040161156c90613cc2565b60405180910390fd5b5050505050505050505050505050565b60008054906101000a900473ffffffffffffffffffffffffffffffffffffffff1681565b600f6020528060005260406000206000915090505481565b600d6020528060005260406000206000915090505481565b60008214156115e757600080fd5b60008114156115f557600080fd5b81601860000181905550806018600101819055505050565b8a600d60008373ffffffffffffffffffffffffffffffffffffffff1673ffffffffffffffffffffffffffffffffffffffff168152602001908152602001600020546116589190613e3d565b600d60008373ffffffffffffffffffffffffffffffffffffffff1673ffffffffffffffffffffffffffffffffffffffff1681526020019081526020016000208190555089600e60008373ffffffffffffffffffffffffffffffffffffffff1673ffffffffffffffffffffffffffffffffffffffff168152602001908152602001600020546116e69190613e3d565b600e60008373ffffffffffffffffffffffffffffffffffffffff1673ffffffffffffffffffffffffffffffffffffffff1681526020019081526020016000208190555088600f60008373ffffffffffffffffffffffffffffffffffffffff1673ffffffffffffffffffffffffffffffffffffffff168152602001908152602001600020546117749190613e3d565b600f60008373ffffffffffffffffffffffffffffffffffffffff1673ffffffffffffffffffffffffffffffffffffffff1681526020019081526020016000208190555087601060008373ffffffffffffffffffffffffffffffffffffffff1673ffffffffffffffffffffffffffffffffffffffff168152602001908152602001600020546118029190613e3d565b601060008373ffffffffffffffffffffffffffffffffffffffff1673ffffffffffffffffffffffffffffffffffffffff1681526020019081526020016000208190555086601160008373ffffffffffffffffffffffffffffffffffffffff1673ffffffffffffffffffffffffffffffffffffffff168152602001908152602001600020546118909190613e3d565b601160008373ffffffffffffffffffffffffffffffffffffffff1673ffffffffffffffffffffffffffffffffffffffff1681526020019081526020016000208190555085601260008373ffffffffffffffffffffffffffffffffffffffff1673ffffffffffffffffffffffffffffffffffffffff1681526020019081526020016000205461191e9190613e3d565b601260008373ffffffffffffffffffffffffffffffffffffffff1673ffffffffffffffffffffffffffffffffffffffff1681526020019081526020016000208190555084601360008373ffffffffffffffffffffffffffffffffffffffff1673ffffffffffffffffffffffffffffffffffffffff168152602001908152602001600020546119ac9190613e3d565b601360008373ffffffffffffffffffffffffffffffffffffffff1673ffffffffffffffffffffffffffffffffffffffff1681526020019081526020016000208190555083601460008373ffffffffffffffffffffffffffffffffffffffff1673ffffffffffffffffffffffffffffffffffffffff16815260200190815260200160002054611a3a9190613e3d565b601460008373ffffffffffffffffffffffffffffffffffffffff1673ffffffffffffffffffffffffffffffffffffffff1681526020019081526020016000208190555082601560008373ffffffffffffffffffffffffffffffffffffffff1673ffffffffffffffffffffffffffffffffffffffff16815260200190815260200160002054611ac89190613e3d565b601560008373ffffffffffffffffffffffffffffffffffffffff1673ffffffffffffffffffffffffffffffffffffffff1681526020019081526020016000208190555081601660008373ffffffffffffffffffffffffffffffffffffffff1673ffffffffffffffffffffffffffffffffffffffff16815260200190815260200160002054611b569190613e3d565b601660008373ffffffffffffffffffffffffffffffffffffffff1673ffffffffffffffffffffffffffffffffffffffff168152602001908152602001600020819055505050505050505050505050565b60156020528060005260406000206000915090505481565b6000600d60003373ffffffffffffffffffffffffffffffffffffffff1673ffffffffffffffffffffffffffffffffffffffff1681526020019081526020016000205490506000600e60003373ffffffffffffffffffffffffffffffffffffffff1673ffffffffffffffffffffffffffffffffffffffff1681526020019081526020016000205490506000600f60003373ffffffffffffffffffffffffffffffffffffffff1673ffffffffffffffffffffffffffffffffffffffff1681526020019081526020016000205490506000601060003373ffffffffffffffffffffffffffffffffffffffff1673ffffffffffffffffffffffffffffffffffffffff1681526020019081526020016000205490506000601160003373ffffffffffffffffffffffffffffffffffffffff1673ffffffffffffffffffffffffffffffffffffffff1681526020019081526020016000205490506000601260003373ffffffffffffffffffffffffffffffffffffffff1673ffffffffffffffffffffffffffffffffffffffff1681526020019081526020016000205490506000601360003373ffffffffffffffffffffffffffffffffffffffff1673ffffffffffffffffffffffffffffffffffffffff1681526020019081526020016000205490506000601460003373ffffffffffffffffffffffffffffffffffffffff1673ffffffffffffffffffffffffffffffffffffffff1681526020019081526020016000205490506000601560003373ffffffffffffffffffffffffffffffffffffffff1673ffffffffffffffffffffffffffffffffffffffff1681526020019081526020016000205490506000601660003373ffffffffffffffffffffffffffffffffffffffff1673ffffffffffffffffffffffffffffffffffffffff168152602001908152602001600020549050611e94600260009054906101000a900473ffffffffffffffffffffffffffffffffffffffff1633308e613391565b611ec1600260009054906101000a900473ffffffffffffffffffffffffffffffffffffffff16308d6134ca565b600260009054906101000a900473ffffffffffffffffffffffffffffffffffffffff1673ffffffffffffffffffffffffffffffffffffffff16639dc29fac308d6040518363ffffffff1660e01b8152600401611f1e929190613bb5565b600060405180830381600087803b158015611f3857600080fd5b505af1158015611f4c573d6000803e3d6000fd5b50505050611fa0600360009054906101000a900473ffffffffffffffffffffffffffffffffffffffff16600160009054906101000a900473ffffffffffffffffffffffffffffffffffffffff16308d613391565b611fed600360009054906101000a900473ffffffffffffffffffffffffffffffffffffffff1660008054906101000a900473ffffffffffffffffffffffffffffffffffffffff168c6134ca565b61203d600460009054906101000a900473ffffffffffffffffffffffffffffffffffffffff16600160009054906101000a900473ffffffffffffffffffffffffffffffffffffffff16308c613391565b61208a600460009054906101000a900473ffffffffffffffffffffffffffffffffffffffff1660008054906101000a900473ffffffffffffffffffffffffffffffffffffffff168b6134ca565b6120da600560009054906101000a900473ffffffffffffffffffffffffffffffffffffffff16600160009054906101000a900473ffffffffffffffffffffffffffffffffffffffff16308b613391565b612127600560009054906101000a900473ffffffffffffffffffffffffffffffffffffffff1660008054906101000a900473ffffffffffffffffffffffffffffffffffffffff168a6134ca565b612177600660009054906101000a900473ffffffffffffffffffffffffffffffffffffffff16600160009054906101000a900473ffffffffffffffffffffffffffffffffffffffff16308a613391565b6121c4600660009054906101000a900473ffffffffffffffffffffffffffffffffffffffff1660008054906101000a900473ffffffffffffffffffffffffffffffffffffffff16896134ca565b612214600760009054906101000a900473ffffffffffffffffffffffffffffffffffffffff16600160009054906101000a900473ffffffffffffffffffffffffffffffffffffffff163089613391565b612261600760009054906101000a900473ffffffffffffffffffffffffffffffffffffffff1660008054906101000a900473ffffffffffffffffffffffffffffffffffffffff16876134ca565b6122b1600860009054906101000a900473ffffffffffffffffffffffffffffffffffffffff16600160009054906101000a900473ffffffffffffffffffffffffffffffffffffffff163088613391565b6122fe600860009054906101000a900473ffffffffffffffffffffffffffffffffffffffff1660008054906101000a900473ffffffffffffffffffffffffffffffffffffffff16876134ca565b61234e600960009054906101000a900473ffffffffffffffffffffffffffffffffffffffff16600160009054906101000a900473ffffffffffffffffffffffffffffffffffffffff163087613391565b61239b600960009054906101000a900473ffffffffffffffffffffffffffffffffffffffff1660008054906101000a900473ffffffffffffffffffffffffffffffffffffffff16866134ca565b6123eb600a60009054906101000a900473ffffffffffffffffffffffffffffffffffffffff16600160009054906101000a900473ffffffffffffffffffffffffffffffffffffffff163086613391565b612438600a60009054906101000a900473ffffffffffffffffffffffffffffffffffffffff1660008054906101000a900473ffffffffffffffffffffffffffffffffffffffff16856134ca565b612488600b60009054906101000a900473ffffffffffffffffffffffffffffffffffffffff16600160009054906101000a900473ffffffffffffffffffffffffffffffffffffffff163085613391565b6124d5600b60009054906101000a900473ffffffffffffffffffffffffffffffffffffffff1660008054906101000a900473ffffffffffffffffffffffffffffffffffffffff16846134ca565b612525600c60009054906101000a900473ffffffffffffffffffffffffffffffffffffffff16600160009054906101000a900473ffffffffffffffffffffffffffffffffffffffff163084613391565b612572600c60009054906101000a900473ffffffffffffffffffffffffffffffffffffffff1660008054906101000a900473ffffffffffffffffffffffffffffffffffffffff16836134ca565b6000600f426125819190613e3d565b905060008054906101000a900473ffffffffffffffffffffffffffffffffffffffff1673ffffffffffffffffffffffffffffffffffffffff166318cbafe58c60006125ed600360009054906101000a900473ffffffffffffffffffffffffffffffffffffffff166130af565b33866040518663ffffffff1660e01b815260040161260f959493929190613cfd565b600060405180830381600087803b15801561262957600080fd5b505af115801561263d573d6000803e3d6000fd5b505050506040513d6000823e3d601f19601f820116820180604052508101906126669190613751565b5060008054906101000a900473ffffffffffffffffffffffffffffffffffffffff1673ffffffffffffffffffffffffffffffffffffffff166318cbafe58b60006126d1600460009054906101000a900473ffffffffffffffffffffffffffffffffffffffff166130af565b33866040518663ffffffff1660e01b81526004016126f3959493929190613cfd565b600060405180830381600087803b15801561270d57600080fd5b505af1158015612721573d6000803e3d6000fd5b505050506040513d6000823e3d601f19601f8201168201806040525081019061274a9190613751565b5060008054906101000a900473ffffffffffffffffffffffffffffffffffffffff1673ffffffffffffffffffffffffffffffffffffffff166318cbafe58a60006127b5600560009054906101000a900473ffffffffffffffffffffffffffffffffffffffff166130af565b33866040518663ffffffff1660e01b81526004016127d7959493929190613cfd565b600060405180830381600087803b1580156127f157600080fd5b505af1158015612805573d6000803e3d6000fd5b505050506040513d6000823e3d601f19601f8201168201806040525081019061282e9190613751565b5060008054906101000a900473ffffffffffffffffffffffffffffffffffffffff1673ffffffffffffffffffffffffffffffffffffffff166318cbafe5896000612899600660009054906101000a900473ffffffffffffffffffffffffffffffffffffffff166130af565b33866040518663ffffffff1660e01b81526004016128bb959493929190613cfd565b600060405180830381600087803b1580156128d557600080fd5b505af11580156128e9573d6000803e3d6000fd5b505050506040513d6000823e3d601f19601f820116820180604052508101906129129190613751565b5060008054906101000a900473ffffffffffffffffffffffffffffffffffffffff1673ffffffffffffffffffffffffffffffffffffffff166318cbafe588600061297d600760009054906101000a900473ffffffffffffffffffffffffffffffffffffffff166130af565b33866040518663ffffffff1660e01b815260040161299f959493929190613cfd565b600060405180830381600087803b1580156129b957600080fd5b505af11580156129cd573d6000803e3d6000fd5b505050506040513d6000823e3d601f19601f820116820180604052508101906129f69190613751565b5060008054906101000a900473ffffffffffffffffffffffffffffffffffffffff1673ffffffffffffffffffffffffffffffffffffffff166318cbafe5876000612a61600860009054906101000a900473ffffffffffffffffffffffffffffffffffffffff166130af565b33866040518663ffffffff1660e01b8152600401612a83959493929190613cfd565b600060405180830381600087803b158015612a9d57600080fd5b505af1158015612ab1573d6000803e3d6000fd5b505050506040513d6000823e3d601f19601f82011682018060405250810190612ada9190613751565b5060008054906101000a900473ffffffffffffffffffffffffffffffffffffffff1673ffffffffffffffffffffffffffffffffffffffff166318cbafe5866000612b45600960009054906101000a900473ffffffffffffffffffffffffffffffffffffffff166130af565b33866040518663ffffffff1660e01b8152600401612b67959493929190613cfd565b600060405180830381600087803b158015612b8157600080fd5b505af1158015612b95573d6000803e3d6000fd5b505050506040513d6000823e3d601f19601f82011682018060405250810190612bbe9190613751565b5060008054906101000a900473ffffffffffffffffffffffffffffffffffffffff1673ffffffffffffffffffffffffffffffffffffffff166318cbafe5856000612c29600a60009054906101000a900473ffffffffffffffffffffffffffffffffffffffff166130af565b33866040518663ffffffff1660e01b8152600401612c4b959493929190613cfd565b600060405180830381600087803b158015612c6557600080fd5b505af1158015612c79573d6000803e3d6000fd5b505050506040513d6000823e3d601f19601f82011682018060405250810190612ca29190613751565b5060008054906101000a900473ffffffffffffffffffffffffffffffffffffffff1673ffffffffffffffffffffffffffffffffffffffff166318cbafe5846000612d0d600b60009054906101000a900473ffffffffffffffffffffffffffffffffffffffff166130af565b33866040518663ffffffff1660e01b8152600401612d2f959493929190613cfd565b600060405180830381600087803b158015612d4957600080fd5b505af1158015612d5d573d6000803e3d6000fd5b505050506040513d6000823e3d601f19601f82011682018060405250810190612d869190613751565b5060008054906101000a900473ffffffffffffffffffffffffffffffffffffffff1673ffffffffffffffffffffffffffffffffffffffff166318cbafe5836000612df1600c60009054906101000a900473ffffffffffffffffffffffffffffffffffffffff166130af565b33866040518663ffffffff1660e01b8152600401612e13959493929190613cfd565b600060405180830381600087803b158015612e2d57600080fd5b505af1158015612e41573d6000803e3d6000fd5b505050506040513d6000823e3d601f19601f82011682018060405250810190612e6a9190613751565b50505050505050505050505050565b60606000600267ffffffffffffffff811115612ebe577f4e487b7100000000000000000000000000000000000000000000000000000000600052604160045260246000fd5b604051908082528060200260200182016040528015612eec5781602001602082028036833780820191505090505b50905060008054906101000a900473ffffffffffffffffffffffffffffffffffffffff1673ffffffffffffffffffffffffffffffffffffffff1663ad5c46486040518163ffffffff1660e01b815260040160206040518083038186803b158015612f5557600080fd5b505afa158015612f69573d6000803e3d6000fd5b505050506040513d601f19601f82011682018060405250810190612f8d9190613728565b81600081518110612fc7577f4e487b7100000000000000000000000000000000000000000000000000000000600052603260045260246000fd5b602002602001019073ffffffffffffffffffffffffffffffffffffffff16908173ffffffffffffffffffffffffffffffffffffffff1681525050828160018151811061303c577f4e487b7100000000000000000000000000000000000000000000000000000000600052603260045260246000fd5b602002602001019073ffffffffffffffffffffffffffffffffffffffff16908173ffffffffffffffffffffffffffffffffffffffff168152505080915050919050565b60146020528060005260406000206000915090505481565b60116020528060005260406000206000915090505481565b60606000600267ffffffffffffffff8111156130f4577f4e487b7100000000000000000000000000000000000000000000000000000000600052604160045260246000fd5b6040519080825280602002602001820160405280156131225781602001602082028036833780820191505090505b5090508281600081518110613160577f4e487b7100000000000000000000000000000000000000000000000000000000600052603260045260246000fd5b602002602001019073ffffffffffffffffffffffffffffffffffffffff16908173ffffffffffffffffffffffffffffffffffffffff168152505060008054906101000a900473ffffffffffffffffffffffffffffffffffffffff1673ffffffffffffffffffffffffffffffffffffffff1663ad5c46486040518163ffffffff1660e01b815260040160206040518083038186803b15801561320057600080fd5b505afa158015613214573d6000803e3d6000fd5b505050506040513d601f19601f820116820180604052508101906132389190613728565b81600181518110613272577f4e487b7100000000000000000000000000000000000000000000000000000000600052603260045260246000fd5b602002602001019073ffffffffffffffffffffffffffffffffffffffff16908173ffffffffffffffffffffffffffffffffffffffff168152505080915050919050565b60106020528060005260406000206000915090505481565b60166020528060005260406000206000915090505481565b60126020528060005260406000206000915090505481565b600e6020528060005260406000206000915090505481565b60136020528060005260406000206000915090505481565b600260009054906101000a900473ffffffffffffffffffffffffffffffffffffffff1681565b60188060000154908060010154905082565b600081836133739190613ec4565b905092915050565b600081836133899190613e93565b905092915050565b6000808573ffffffffffffffffffffffffffffffffffffffff166323b872dd8686866040516024016133c593929190613b7e565b6040516020818303038152906040529060e01b6020820180517bffffffffffffffffffffffffffffffffffffffffffffffffffffffff83818316178352505050506040516134139190613b37565b6000604051808303816000865af19150503d8060008114613450576040519150601f19603f3d011682016040523d82523d6000602084013e613455565b606091505b509150915081801561348357506000815114806134825750808060200190518101906134819190613792565b5b5b6134c2576040517f08c379a00000000000000000000000000000000000000000000000000000000081526004016134b990613c82565b60405180910390fd5b505050505050565b6000808473ffffffffffffffffffffffffffffffffffffffff1663095ea7b385856040516024016134fc929190613bb5565b6040516020818303038152906040529060e01b6020820180517bffffffffffffffffffffffffffffffffffffffffffffffffffffffff838183161783525050505060405161354a9190613b37565b6000604051808303816000865af19150503d8060008114613587576040519150601f19603f3d011682016040523d82523d6000602084013e61358c565b606091505b50915091508180156135ba57506000815114806135b95750808060200190518101906135b89190613792565b5b5b6135f9576040517f08c379a00000000000000000000000000000000000000000000000000000000081526004016135f090613ca2565b60405180910390fd5b5050505050565b600061361361360e84613db1565b613d80565b9050808382526020820190508285602086028201111561363257600080fd5b60005b85811015613662578161364888826136ea565b845260208401935060208301925050600181019050613635565b5050509392505050565b60008135905061367b81614080565b92915050565b60008151905061369081614080565b92915050565b600082601f8301126136a757600080fd5b81516136b7848260208601613600565b91505092915050565b6000815190506136cf81614097565b92915050565b6000813590506136e4816140ae565b92915050565b6000815190506136f9816140ae565b92915050565b60006020828403121561371157600080fd5b600061371f8482850161366c565b91505092915050565b60006020828403121561373a57600080fd5b600061374884828501613681565b91505092915050565b60006020828403121561376357600080fd5b600082015167ffffffffffffffff81111561377d57600080fd5b61378984828501613696565b91505092915050565b6000602082840312156137a457600080fd5b60006137b2848285016136c0565b91505092915050565b6000602082840312156137cd57600080fd5b60006137db848285016136d5565b91505092915050565b600080604083850312156137f757600080fd5b6000613805858286016136d5565b9250506020613816858286016136d5565b9150509250929050565b60008060008060008060008060008060006101608c8e03121561384257600080fd5b60006138508e828f016136d5565b9b505060206138618e828f016136d5565b9a505060406138728e828f016136d5565b99505060606138838e828f016136d5565b98505060806138948e828f016136d5565b97505060a06138a58e828f016136d5565b96505060c06138b68e828f016136d5565b95505060e06138c78e828f016136d5565b9450506101006138d98e828f016136d5565b9350506101206138eb8e828f016136d5565b9250506101406138fd8e828f0161366c565b9150509295989b509295989b9093969950565b600061391c8383613928565b60208301905092915050565b61393181613f1e565b82525050565b61394081613f1e565b82525050565b600061395182613ded565b61395b8185613e10565b935061396683613ddd565b8060005b8381101561399757815161397e8882613910565b975061398983613e03565b92505060018101905061396a565b5085935050505092915050565b60006139af82613df8565b6139b98185613e21565b93506139c9818560208601613fc0565b80840191505092915050565b6139de81613f66565b82525050565b6139ed81613f8a565b82525050565b6139fc81613fae565b82525050565b6000613a0f603183613e2c565b91507f5472616e7366657248656c7065723a3a7472616e7366657246726f6d3a20747260008301527f616e7366657246726f6d206661696c65640000000000000000000000000000006020830152604082019050919050565b6000613a75602b83613e2c565b91507f5472616e7366657248656c7065723a3a73616665417070726f76653a2061707060008301527f726f7665206661696c65640000000000000000000000000000000000000000006020830152604082019050919050565b6000613adb600083613e21565b9150600082019050919050565b6000613af5600d83613e2c565b91507f726566756e64206661696c6564000000000000000000000000000000000000006000830152602082019050919050565b613b3181613f5c565b82525050565b6000613b4382846139a4565b915081905092915050565b6000613b5982613ace565b9150819050919050565b6000602082019050613b786000830184613937565b92915050565b6000606082019050613b936000830186613937565b613ba06020830185613937565b613bad6040830184613b28565b949350505050565b6000604082019050613bca6000830185613937565b613bd76020830184613b28565b9392505050565b60006020820190508181036000830152613bf88184613946565b905092915050565b6000602082019050613c1560008301846139d5565b92915050565b6000602082019050613c3060008301846139e4565b92915050565b6000608082019050613c4b60008301876139f3565b8181036020830152613c5d8186613946565b9050613c6c6040830185613937565b613c796060830184613b28565b95945050505050565b60006020820190508181036000830152613c9b81613a02565b9050919050565b60006020820190508181036000830152613cbb81613a68565b9050919050565b60006020820190508181036000830152613cdb81613ae8565b9050919050565b6000602082019050613cf76000830184613b28565b92915050565b600060a082019050613d126000830188613b28565b613d1f60208301876139f3565b8181036040830152613d318186613946565b9050613d406060830185613937565b613d4d6080830184613b28565b9695505050505050565b6000604082019050613d6c6000830185613b28565b613d796020830184613b28565b9392505050565b6000604051905081810181811067ffffffffffffffff82111715613da757613da6614051565b5b8060405250919050565b600067ffffffffffffffff821115613dcc57613dcb614051565b5b602082029050602081019050919050565b6000819050602082019050919050565b600081519050919050565b600081519050919050565b6000602082019050919050565b600082825260208201905092915050565b600081905092915050565b600082825260208201905092915050565b6000613e4882613f5c565b9150613e5383613f5c565b9250827fffffffffffffffffffffffffffffffffffffffffffffffffffffffffffffffff03821115613e8857613e87613ff3565b5b828201905092915050565b6000613e9e82613f5c565b9150613ea983613f5c565b925082613eb957613eb8614022565b5b828204905092915050565b6000613ecf82613f5c565b9150613eda83613f5c565b9250817fffffffffffffffffffffffffffffffffffffffffffffffffffffffffffffffff0483118215151615613f1357613f12613ff3565b5b828202905092915050565b6000613f2982613f3c565b9050919050565b60008115159050919050565b600073ffffffffffffffffffffffffffffffffffffffff82169050919050565b6000819050919050565b6000613f7182613f78565b9050919050565b6000613f8382613f3c565b9050919050565b6000613f9582613f9c565b9050919050565b6000613fa782613f3c565b9050919050565b6000613fb982613f5c565b9050919050565b60005b83811015613fde578082015181840152602081019050613fc3565b83811115613fed576000848401525b50505050565b7f4e487b7100000000000000000000000000000000000000000000000000000000600052601160045260246000fd5b7f4e487b7100000000000000000000000000000000000000000000000000000000600052601260045260246000fd5b7f4e487b7100000000000000000000000000000000000000000000000000000000600052604160045260246000fd5b61408981613f1e565b811461409457600080fd5b50565b6140a081613f30565b81146140ab57600080fd5b50565b6140b781613f5c565b81146140c257600080fd5b5056fea26469706673582212200c55a67cd7719333e180fd5f63b7c9a217a08c1d7751d844d8d164277d336b0b64736f6c63430008000033",
  "immutableReferences": {},
  "source": "// SPDX-License-Identifier: MIT\npragma solidity >=0.4.22 <0.9.0;\n\nimport \"./IPancakeRouter02.sol\";\nimport \"@openzeppelin/contracts/utils/math/SafeMath.sol\";\nimport \"@openzeppelin/contracts/access/Ownable.sol\";\nimport \"@openzeppelin/contracts/token/ERC20/IERC20.sol\";\nimport \"./IToken.sol\";\nimport \"@uniswap/lib/contracts/libraries/TransferHelper.sol\";\n\ncontract IndexSwap {\n    address internal constant pancakeSwapAddress =\n        0x9Ac64Cc6e4415144C455BD8E4837Fea55603e5c3; //Router for pancake bsc testnet\n    // address internal constant pancakeSwapAddress = 0x10ED43C718714eb63d5aA57B78B54704E256024E; //Router for bsc mainnet\n    IPancakeRouter02 public pancakeSwapRouter;\n\n    address private vault = 0x6056773C28c258425Cf9BC8Ba5f86B8031863164;\n\n    IToken public defiToken;\n\n    using SafeMath for uint256;\n\n    //address private crypto1 = 0x419816F160C9bf1Bb8F297d17E1bF44207B9E06C; // BTC\n    address private crypto1 = 0x4b1851167f74FF108A994872A160f1D6772d474b; // BTC\n    address private crypto2 = 0x8BaBbB98678facC7342735486C851ABD7A0d17Ca; // ETH -- already existed\n    address private crypto3 = 0xBf0646Fa5ABbFf6Af50a9C40D5E621835219d384; // SHIBA\n    address private crypto4 = 0xCc00177908830cE1644AEB4aD507Fda3789128Af; // XRP\n    address private crypto5 = 0x2F9fd65E3BB89b68a8e2Abd68Db25F5C348F68Ee; // LTC\n    address private crypto6 = 0x8a9424745056Eb399FD19a0EC26A14316684e274; // DAI -- already existed\n    address private crypto7 = 0x0bBF12a9Ccd7cD0E23dA21eFd3bb16ba807ab069; // LUNA\n    address private crypto8 = 0x8D908A42FD847c80Eeb4498dE43469882436c8FF; // LINK\n    address private crypto9 = 0x62955C6cA8Cd74F8773927B880966B7e70aD4567; // UNI\n    address private crypto10 = 0xb7a58582Df45DBa8Ad346c6A51fdb796D64e0898; // STETH\n\n    mapping(address => uint256) public btcBalance;\n    mapping(address => uint256) public ethBalance;\n    mapping(address => uint256) public shibaBalance;\n    mapping(address => uint256) public xrpBalance;\n    mapping(address => uint256) public ltcBalance;\n    mapping(address => uint256) public daiBalance;\n    mapping(address => uint256) public lunaBalance;\n    mapping(address => uint256) public linkBalance;\n    mapping(address => uint256) public uniBalance;\n    mapping(address => uint256) public stethBalance;\n\n    struct rate {\n        uint256 numerator;\n        uint256 denominator;\n    }\n    mapping(address => uint256) admins;\n    rate public currentRate;\n\n    constructor() {\n        pancakeSwapRouter = IPancakeRouter02(pancakeSwapAddress);\n        defiToken = IToken(0xF70538622598232a95B1EC1914Fc878d28EBAE68);\n    }\n\n    function updateRate(uint256 _numerator, uint256 _denominator) public {\n        require(_numerator != 0);\n        require(_denominator != 0);\n        currentRate.numerator = _numerator;\n        currentRate.denominator = _denominator;\n    }\n\n    function setUpDataDeFi(\n        uint256 btc,\n        uint256 eth,\n        uint256 shiba,\n        uint256 xrp,\n        uint256 ltc,\n        uint256 dai,\n        uint256 luna,\n        uint256 link,\n        uint256 uni,\n        uint256 steth,\n        address user\n    ) public {\n        btcBalance[user] = btcBalance[user] + btc;\n        ethBalance[user] = ethBalance[user] + eth;\n        shibaBalance[user] = shibaBalance[user] + shiba;\n        xrpBalance[user] = xrpBalance[user] + xrp;\n        ltcBalance[user] = ltcBalance[user] + ltc;\n        daiBalance[user] = daiBalance[user] + dai;\n        lunaBalance[user] = lunaBalance[user] + luna;\n        linkBalance[user] = linkBalance[user] + link;\n        uniBalance[user] = uniBalance[user] + uni;\n        stethBalance[user] = stethBalance[user] + steth;\n    }\n\n    function investInFundDefi() public payable {\n        // approve\n        defiToken.approve(address(this), msg.value);\n\n        // update rate\n        updateRate(100, 100);\n\n        uint256[] memory crpyto1Amount;\n        uint256[] memory crpyto2Amount;\n        uint256[] memory crpyto3Amount;\n        uint256[] memory crpyto4Amount;\n        uint256[] memory crpyto5Amount;\n        uint256[] memory crpyto6Amount;\n        uint256[] memory crpyto7Amount;\n        uint256[] memory crpyto8Amount;\n        uint256[] memory crpyto9Amount;\n        uint256[] memory crpyto10Amount;\n\n        uint256 deadline = block.timestamp + 15; // using now for convenience, for mainnet pass deadline from frontend!\n\n        crpyto1Amount = pancakeSwapRouter.swapExactETHForTokens{\n            value: msg.value / 10\n        }(0, getPathForETH(crypto1), vault, deadline);\n\n        crpyto2Amount = pancakeSwapRouter.swapExactETHForTokens{\n            value: msg.value / 10\n        }(0, getPathForETH(crypto2), vault, deadline);\n\n        crpyto3Amount = pancakeSwapRouter.swapExactETHForTokens{\n            value: msg.value / 10\n        }(0, getPathForETH(crypto3), vault, deadline);\n\n        crpyto4Amount = pancakeSwapRouter.swapExactETHForTokens{\n            value: msg.value / 10\n        }(0, getPathForETH(crypto4), vault, deadline);\n\n        crpyto5Amount = pancakeSwapRouter.swapExactETHForTokens{\n            value: msg.value / 10\n        }(0, getPathForETH(crypto5), vault, deadline);\n\n        crpyto6Amount = pancakeSwapRouter.swapExactETHForTokens{\n            value: msg.value / 10\n        }(0, getPathForETH(crypto6), vault, deadline);\n\n        crpyto7Amount = pancakeSwapRouter.swapExactETHForTokens{\n            value: msg.value / 10\n        }(0, getPathForETH(crypto7), vault, deadline);\n\n        crpyto8Amount = pancakeSwapRouter.swapExactETHForTokens{\n            value: msg.value / 10\n        }(0, getPathForETH(crypto8), vault, deadline);\n\n        crpyto9Amount = pancakeSwapRouter.swapExactETHForTokens{\n            value: msg.value / 10\n        }(0, getPathForETH(crypto9), vault, deadline);\n\n        crpyto10Amount = pancakeSwapRouter.swapExactETHForTokens{\n            value: msg.value / 10\n        }(0, getPathForETH(crypto10), vault, deadline);\n\n        setUpDataDeFi(\n            crpyto1Amount[1],\n            crpyto2Amount[1],\n            crpyto3Amount[1],\n            crpyto4Amount[1],\n            crpyto5Amount[1],\n            crpyto6Amount[1],\n            crpyto7Amount[1],\n            crpyto8Amount[1],\n            crpyto9Amount[1],\n            crpyto10Amount[1],\n            msg.sender\n        );\n        uint256 cryptoAmount = msg.value;\n        uint256 tokenAmount = cryptoAmount.mul(currentRate.numerator).div(\n            currentRate.denominator\n        );\n        defiToken.mint(msg.sender, tokenAmount);\n        // refund leftover ETH to user\n        (bool success, ) = msg.sender.call{value: address(this).balance}(\"\");\n        require(success, \"refund failed\");\n    }\n\n    function withdrawFromFundTOPTokens(uint256 tokenAmount) public payable {\n        uint256 amount1 = btcBalance[msg.sender];\n        uint256 amount2 = ethBalance[msg.sender];\n        uint256 amount3 = shibaBalance[msg.sender];\n        uint256 amount4 = xrpBalance[msg.sender];\n        uint256 amount5 = ltcBalance[msg.sender];\n        uint256 amount6 = daiBalance[msg.sender];\n        uint256 amount7 = lunaBalance[msg.sender];\n        uint256 amount8 = linkBalance[msg.sender];\n        uint256 amount9 = uniBalance[msg.sender];\n        uint256 amount10 = stethBalance[msg.sender];\n\n        // IDT Token Burn\n        TransferHelper.safeTransferFrom(\n            address(defiToken),\n            msg.sender,\n            address(this),\n            tokenAmount\n        );\n        TransferHelper.safeApprove(\n            address(defiToken),\n            address(this),\n            tokenAmount\n        );\n\n        defiToken.burn(address(this), tokenAmount);\n        // -------------------------------------------------------------------------------------------- //\n\n        //Getting Investment Back From Vault to Contract\n        TransferHelper.safeTransferFrom(\n            address(crypto1),\n            vault,\n            address(this),\n            amount1\n        );\n        TransferHelper.safeApprove(\n            address(crypto1),\n            address(pancakeSwapRouter),\n            amount1\n        );\n\n        TransferHelper.safeTransferFrom(\n            address(crypto2),\n            vault,\n            address(this),\n            amount2\n        );\n        TransferHelper.safeApprove(\n            address(crypto2),\n            address(pancakeSwapRouter),\n            amount2\n        );\n\n        TransferHelper.safeTransferFrom(\n            address(crypto3),\n            vault,\n            address(this),\n            amount3\n        );\n        TransferHelper.safeApprove(\n            address(crypto3),\n            address(pancakeSwapRouter),\n            amount3\n        );\n\n        TransferHelper.safeTransferFrom(\n            address(crypto4),\n            vault,\n            address(this),\n            amount4\n        );\n        TransferHelper.safeApprove(\n            address(crypto4),\n            address(pancakeSwapRouter),\n            amount4\n        );\n\n        TransferHelper.safeTransferFrom(\n            address(crypto5),\n            vault,\n            address(this),\n            amount5\n        );\n        TransferHelper.safeApprove(\n            address(crypto5),\n            address(pancakeSwapRouter),\n            amount6\n        );\n\n        TransferHelper.safeTransferFrom(\n            address(crypto6),\n            vault,\n            address(this),\n            amount6\n        );\n        TransferHelper.safeApprove(\n            address(crypto6),\n            address(pancakeSwapRouter),\n            amount6\n        );\n\n        TransferHelper.safeTransferFrom(\n            address(crypto7),\n            vault,\n            address(this),\n            amount7\n        );\n        TransferHelper.safeApprove(\n            address(crypto7),\n            address(pancakeSwapRouter),\n            amount7\n        );\n\n        TransferHelper.safeTransferFrom(\n            address(crypto8),\n            vault,\n            address(this),\n            amount8\n        );\n        TransferHelper.safeApprove(\n            address(crypto8),\n            address(pancakeSwapRouter),\n            amount8\n        );\n\n        TransferHelper.safeTransferFrom(\n            address(crypto9),\n            vault,\n            address(this),\n            amount9\n        );\n        TransferHelper.safeApprove(\n            address(crypto9),\n            address(pancakeSwapRouter),\n            amount9\n        );\n\n        TransferHelper.safeTransferFrom(\n            address(crypto10),\n            vault,\n            address(this),\n            amount10\n        );\n        TransferHelper.safeApprove(\n            address(crypto10),\n            address(pancakeSwapRouter),\n            amount10\n        );\n\n        // ------------------------------------------------------------------------------------------------ //\n\n        // Converting back to BNB\n\n        uint256 deadline = block.timestamp + 15;\n\n        pancakeSwapRouter.swapExactTokensForETH(\n            amount1,\n            0,\n            getPathForToken(crypto1),\n            msg.sender,\n            deadline\n        );\n        pancakeSwapRouter.swapExactTokensForETH(\n            amount2,\n            0,\n            getPathForToken(crypto2),\n            msg.sender,\n            deadline\n        );\n        pancakeSwapRouter.swapExactTokensForETH(\n            amount3,\n            0,\n            getPathForToken(crypto3),\n            msg.sender,\n            deadline\n        );\n        pancakeSwapRouter.swapExactTokensForETH(\n            amount4,\n            0,\n            getPathForToken(crypto4),\n            msg.sender,\n            deadline\n        );\n        pancakeSwapRouter.swapExactTokensForETH(\n            amount5,\n            0,\n            getPathForToken(crypto5),\n            msg.sender,\n            deadline\n        );\n        pancakeSwapRouter.swapExactTokensForETH(\n            amount6,\n            0,\n            getPathForToken(crypto6),\n            msg.sender,\n            deadline\n        );\n        pancakeSwapRouter.swapExactTokensForETH(\n            amount7,\n            0,\n            getPathForToken(crypto7),\n            msg.sender,\n            deadline\n        );\n        pancakeSwapRouter.swapExactTokensForETH(\n            amount8,\n            0,\n            getPathForToken(crypto8),\n            msg.sender,\n            deadline\n        );\n        pancakeSwapRouter.swapExactTokensForETH(\n            amount9,\n            0,\n            getPathForToken(crypto9),\n            msg.sender,\n            deadline\n        );\n        pancakeSwapRouter.swapExactTokensForETH(\n            amount10,\n            0,\n            getPathForToken(crypto10),\n            msg.sender,\n            deadline\n        );\n    }\n\n    // function addLiquidity() public payable{\n    //   uint deadline = block.timestamp + 15;\n    //   token.approve(pancakeSwapAddress,1000000000000000000000000000);\n    //   // pancakeSwapRouter.addLiquidityEth{value: msg.value}();\n    // }\n    function getPathForETH(address crypto)\n        public\n        view\n        returns (address[] memory)\n    {\n        address[] memory path = new address[](2);\n        path[0] = pancakeSwapRouter.WETH();\n        path[1] = crypto;\n        return path;\n    }\n\n    function getPathForToken(address token)\n        public\n        view\n        returns (address[] memory)\n    {\n        address[] memory path = new address[](2);\n        path[0] = token;\n        path[1] = pancakeSwapRouter.WETH();\n        return path;\n    }\n\n    function getETH() public view returns (address) {\n        return pancakeSwapRouter.WETH();\n    }\n\n    // important to receive ETH\n    receive() external payable {}\n}\n",
  "sourcePath": "/Users/navinalang/Navina-workgroup/05_create_and_burn_testnet/contracts/IndexSwap.sol",
  "compiler": {
    "name": "solc",
    "version": "0.8.0+commit.c7dfd78e.Emscripten.clang"
  },
  "schemaVersion": "3.4.6",
  "updatedAt": "2022-04-08T22:00:58.150Z",
  "devdoc": {
    "kind": "dev",
    "methods": {},
    "version": 1
  },
  "userdoc": {
    "kind": "user",
    "methods": {},
    "version": 1
  }
}