{
  "contractName": "IndexSwap",
  "abi": [
    {
      "inputs": [],
      "stateMutability": "nonpayable",
      "type": "constructor"
    },
    {
      "inputs": [],
      "name": "currentRate",
      "outputs": [
        {
          "internalType": "uint256",
          "name": "numerator",
          "type": "uint256"
        },
        {
          "internalType": "uint256",
          "name": "denominator",
          "type": "uint256"
        }
      ],
      "stateMutability": "view",
      "type": "function"
    },
    {
      "inputs": [],
      "name": "defiToken",
      "outputs": [
        {
          "internalType": "contract IToken",
          "name": "",
          "type": "address"
        }
      ],
      "stateMutability": "view",
      "type": "function"
    },
    {
      "inputs": [],
      "name": "nftToken",
      "outputs": [
        {
          "internalType": "contract IToken",
          "name": "",
          "type": "address"
        }
      ],
      "stateMutability": "view",
      "type": "function"
    },
    {
      "inputs": [],
      "name": "pancakeSwapRouter",
      "outputs": [
        {
          "internalType": "contract IPancakeRouter02",
          "name": "",
          "type": "address"
        }
      ],
      "stateMutability": "view",
      "type": "function"
    },
    {
      "stateMutability": "payable",
      "type": "receive"
    },
    {
      "inputs": [
        {
          "internalType": "uint256",
          "name": "_numerator",
          "type": "uint256"
        },
        {
          "internalType": "uint256",
          "name": "_denominator",
          "type": "uint256"
        }
      ],
      "name": "updateRate",
      "outputs": [],
      "stateMutability": "nonpayable",
      "type": "function"
    },
    {
      "inputs": [],
      "name": "investInFundDefi",
      "outputs": [],
      "stateMutability": "payable",
      "type": "function"
    },
    {
      "inputs": [],
      "name": "investInFundNFT",
      "outputs": [],
      "stateMutability": "payable",
      "type": "function"
    },
    {
      "inputs": [
        {
          "internalType": "uint256",
          "name": "amount1",
          "type": "uint256"
        },
        {
          "internalType": "uint256",
          "name": "amount2",
          "type": "uint256"
        },
        {
          "internalType": "uint256",
          "name": "amount3",
          "type": "uint256"
        },
        {
          "internalType": "uint256",
          "name": "amount4",
          "type": "uint256"
        },
        {
          "internalType": "uint256",
          "name": "amount5",
          "type": "uint256"
        },
        {
          "internalType": "uint256",
          "name": "amount6",
          "type": "uint256"
        },
        {
          "internalType": "uint256",
          "name": "amount7",
          "type": "uint256"
        },
        {
          "internalType": "uint256",
          "name": "amount8",
          "type": "uint256"
        },
        {
          "internalType": "uint256",
          "name": "amount9",
          "type": "uint256"
        },
        {
          "internalType": "uint256",
          "name": "amount10",
          "type": "uint256"
        },
        {
          "internalType": "uint256",
          "name": "tokenAmount",
          "type": "uint256"
        }
      ],
      "name": "withdrawFromFundTOPTokens",
      "outputs": [],
      "stateMutability": "payable",
      "type": "function"
    },
    {
      "inputs": [
        {
          "internalType": "uint256",
          "name": "amount1",
          "type": "uint256"
        },
        {
          "internalType": "uint256",
          "name": "amount2",
          "type": "uint256"
        },
        {
          "internalType": "uint256",
          "name": "amount3",
          "type": "uint256"
        },
        {
          "internalType": "uint256",
          "name": "amount4",
          "type": "uint256"
        },
        {
          "internalType": "uint256",
          "name": "amount5",
          "type": "uint256"
        },
        {
          "internalType": "uint256",
          "name": "amount6",
          "type": "uint256"
        },
        {
          "internalType": "uint256",
          "name": "amount7",
          "type": "uint256"
        },
        {
          "internalType": "uint256",
          "name": "amount8",
          "type": "uint256"
        },
        {
          "internalType": "uint256",
          "name": "amount9",
          "type": "uint256"
        },
        {
          "internalType": "uint256",
          "name": "amount10",
          "type": "uint256"
        },
        {
          "internalType": "uint256",
          "name": "tokenAmount",
          "type": "uint256"
        }
      ],
      "name": "withdrawFromFundNFT",
      "outputs": [],
      "stateMutability": "payable",
      "type": "function"
    },
    {
      "inputs": [
        {
          "internalType": "address",
          "name": "crypto",
          "type": "address"
        }
      ],
      "name": "getPathForETH",
      "outputs": [
        {
          "internalType": "address[]",
          "name": "",
          "type": "address[]"
        }
      ],
      "stateMutability": "view",
      "type": "function"
    },
    {
      "inputs": [
        {
          "internalType": "address",
          "name": "token",
          "type": "address"
        }
      ],
      "name": "getPathForToken",
      "outputs": [
        {
          "internalType": "address[]",
          "name": "",
          "type": "address[]"
        }
      ],
      "stateMutability": "view",
      "type": "function"
    },
    {
      "inputs": [],
      "name": "getETH",
      "outputs": [
        {
          "internalType": "address",
          "name": "",
          "type": "address"
        }
      ],
      "stateMutability": "view",
      "type": "function"
    }
  ],
  "bytecode": "0x6080604052736056773c28c258425cf9bc8ba5f86b8031863164600160006101000a81548173ffffffffffffffffffffffffffffffffffffffff021916908373ffffffffffffffffffffffffffffffffffffffff160217905550734b1851167f74ff108a994872a160f1d6772d474b600460006101000a81548173ffffffffffffffffffffffffffffffffffffffff021916908373ffffffffffffffffffffffffffffffffffffffff160217905550738babbb98678facc7342735486c851abd7a0d17ca600560006101000a81548173ffffffffffffffffffffffffffffffffffffffff021916908373ffffffffffffffffffffffffffffffffffffffff16021790555073bf0646fa5abbff6af50a9c40d5e621835219d384600660006101000a81548173ffffffffffffffffffffffffffffffffffffffff021916908373ffffffffffffffffffffffffffffffffffffffff16021790555073cc00177908830ce1644aeb4ad507fda3789128af600760006101000a81548173ffffffffffffffffffffffffffffffffffffffff021916908373ffffffffffffffffffffffffffffffffffffffff160217905550732f9fd65e3bb89b68a8e2abd68db25f5c348f68ee600860006101000a81548173ffffffffffffffffffffffffffffffffffffffff021916908373ffffffffffffffffffffffffffffffffffffffff160217905550738a9424745056eb399fd19a0ec26a14316684e274600960006101000a81548173ffffffffffffffffffffffffffffffffffffffff021916908373ffffffffffffffffffffffffffffffffffffffff160217905550730bbf12a9ccd7cd0e23da21efd3bb16ba807ab069600a60006101000a81548173ffffffffffffffffffffffffffffffffffffffff021916908373ffffffffffffffffffffffffffffffffffffffff160217905550738d908a42fd847c80eeb4498de43469882436c8ff600b60006101000a81548173ffffffffffffffffffffffffffffffffffffffff021916908373ffffffffffffffffffffffffffffffffffffffff1602179055507362955c6ca8cd74f8773927b880966b7e70ad4567600c60006101000a81548173ffffffffffffffffffffffffffffffffffffffff021916908373ffffffffffffffffffffffffffffffffffffffff16021790555073b7a58582df45dba8ad346c6a51fdb796d64e0898600d60006101000a81548173ffffffffffffffffffffffffffffffffffffffff021916908373ffffffffffffffffffffffffffffffffffffffff16021790555073f34d883ecde3238b153f38230987a0f4c221a48f600e60006101000a81548173ffffffffffffffffffffffffffffffffffffffff021916908373ffffffffffffffffffffffffffffffffffffffff160217905550738bf2df0ff8528088475183a68678bd1cd7691b69600f60006101000a81548173ffffffffffffffffffffffffffffffffffffffff021916908373ffffffffffffffffffffffffffffffffffffffff160217905550731631a54ac95ecb0085db6b8acf80c4cee72aeb06601060006101000a81548173ffffffffffffffffffffffffffffffffffffffff021916908373ffffffffffffffffffffffffffffffffffffffff1602179055507319a5e53ec7b385dbe2e587ba989ea2ab8f7eaf1e601160006101000a81548173ffffffffffffffffffffffffffffffffffffffff021916908373ffffffffffffffffffffffffffffffffffffffff16021790555073e5c48084e1974a971bd5df4d9b01dacca86d5567601260006101000a81548173ffffffffffffffffffffffffffffffffffffffff021916908373ffffffffffffffffffffffffffffffffffffffff16021790555073c5de9d5b0ba5b408a3e9530a1bc310d8f2dcc26a601360006101000a81548173ffffffffffffffffffffffffffffffffffffffff021916908373ffffffffffffffffffffffffffffffffffffffff160217905550734bf1ce8e4c4c86126e57fa9fc3f1a9631661641c601460006101000a81548173ffffffffffffffffffffffffffffffffffffffff021916908373ffffffffffffffffffffffffffffffffffffffff16021790555073deec6f0c22970b9b8a47069be619bfae646dee26601560006101000a81548173ffffffffffffffffffffffffffffffffffffffff021916908373ffffffffffffffffffffffffffffffffffffffff16021790555073b08a1959f57b9cc8e5a5f1d329efd90ee3438f65601660006101000a81548173ffffffffffffffffffffffffffffffffffffffff021916908373ffffffffffffffffffffffffffffffffffffffff1602179055507330c1ac77f4068a063648b549fff96ddb9d151325601760006101000a81548173ffffffffffffffffffffffffffffffffffffffff021916908373ffffffffffffffffffffffffffffffffffffffff16021790555034801561070957600080fd5b50739ac64cc6e4415144c455bd8e4837fea55603e5c36000806101000a81548173ffffffffffffffffffffffffffffffffffffffff021916908373ffffffffffffffffffffffffffffffffffffffff16021790555073f70538622598232a95b1ec1914fc878d28ebae68600260006101000a81548173ffffffffffffffffffffffffffffffffffffffff021916908373ffffffffffffffffffffffffffffffffffffffff16021790555073817ea2a5fd281d15ca70b05abb5e094356c42996600360006101000a81548173ffffffffffffffffffffffffffffffffffffffff021916908373ffffffffffffffffffffffffffffffffffffffff160217905550614f3c806108176000396000f3fe6080604052600436106100ab5760003560e01c80638149741c116100645780638149741c14610178578063b0849c1c14610182578063ca0e7ed5146101bf578063d06fcba8146101fc578063ea987a1e14610227578063f9f8bdb714610252576100b2565b806314f6c3be146100b757806319effc68146100e257806324558995146100ec578063405abb41146101175780635dc4ebf914610140578063688ded541461015c576100b2565b366100b257005b600080fd5b3480156100c357600080fd5b506100cc61027e565b6040516100d991906149bf565b60405180910390f35b6100ea610324565b005b3480156100f857600080fd5b50610101611013565b60405161010e9190614a5c565b60405180910390f35b34801561012357600080fd5b5061013e60048036038101906101399190614640565b611037565b005b61015a6004803603810190610155919061467c565b61106b565b005b6101766004803603810190610171919061467c565b61207e565b005b610180613091565b005b34801561018e57600080fd5b506101a960048036038101906101a49190614584565b613d80565b6040516101b69190614a3a565b60405180910390f35b3480156101cb57600080fd5b506101e660048036038101906101e19190614584565b613f86565b6040516101f39190614a3a565b60405180910390f35b34801561020857600080fd5b5061021161418c565b60405161021e9190614a77565b60405180910390f35b34801561023357600080fd5b5061023c6141b2565b6040516102499190614a77565b60405180910390f35b34801561025e57600080fd5b506102676141d8565b604051610275929190614b98565b60405180910390f35b60008060009054906101000a900473ffffffffffffffffffffffffffffffffffffffff1673ffffffffffffffffffffffffffffffffffffffff1663ad5c46486040518163ffffffff1660e01b815260040160206040518083038186803b1580156102e757600080fd5b505afa1580156102fb573d6000803e3d6000fd5b505050506040513d601f19601f8201168201806040525081019061031f91906145ad565b905090565b6000349050600260009054906101000a900473ffffffffffffffffffffffffffffffffffffffff1673ffffffffffffffffffffffffffffffffffffffff1663095ea7b330346040518363ffffffff1660e01b8152600401610386929190614a11565b602060405180830381600087803b1580156103a057600080fd5b505af11580156103b4573d6000803e3d6000fd5b505050506040513d601f19601f820116820180604052508101906103d89190614617565b506103e4606480611037565b6000600f426103f39190614c7e565b905060008054906101000a900473ffffffffffffffffffffffffffffffffffffffff1673ffffffffffffffffffffffffffffffffffffffff16637ff36ab5600a3461043e9190614cd4565b600061046b600460009054906101000a900473ffffffffffffffffffffffffffffffffffffffff16613d80565b600160009054906101000a900473ffffffffffffffffffffffffffffffffffffffff16866040518663ffffffff1660e01b81526004016104ae9493929190614a92565b6000604051808303818588803b1580156104c757600080fd5b505af11580156104db573d6000803e3d6000fd5b50505050506040513d6000823e3d601f19601f8201168201806040525081019061050591906145d6565b5060008054906101000a900473ffffffffffffffffffffffffffffffffffffffff1673ffffffffffffffffffffffffffffffffffffffff16637ff36ab5600a3461054f9190614cd4565b600061057c600560009054906101000a900473ffffffffffffffffffffffffffffffffffffffff16613d80565b600160009054906101000a900473ffffffffffffffffffffffffffffffffffffffff16866040518663ffffffff1660e01b81526004016105bf9493929190614a92565b6000604051808303818588803b1580156105d857600080fd5b505af11580156105ec573d6000803e3d6000fd5b50505050506040513d6000823e3d601f19601f8201168201806040525081019061061691906145d6565b5060008054906101000a900473ffffffffffffffffffffffffffffffffffffffff1673ffffffffffffffffffffffffffffffffffffffff16637ff36ab5600a346106609190614cd4565b600061068d600660009054906101000a900473ffffffffffffffffffffffffffffffffffffffff16613d80565b600160009054906101000a900473ffffffffffffffffffffffffffffffffffffffff16866040518663ffffffff1660e01b81526004016106d09493929190614a92565b6000604051808303818588803b1580156106e957600080fd5b505af11580156106fd573d6000803e3d6000fd5b50505050506040513d6000823e3d601f19601f8201168201806040525081019061072791906145d6565b5060008054906101000a900473ffffffffffffffffffffffffffffffffffffffff1673ffffffffffffffffffffffffffffffffffffffff16637ff36ab5600a346107719190614cd4565b600061079e600760009054906101000a900473ffffffffffffffffffffffffffffffffffffffff16613d80565b600160009054906101000a900473ffffffffffffffffffffffffffffffffffffffff16866040518663ffffffff1660e01b81526004016107e19493929190614a92565b6000604051808303818588803b1580156107fa57600080fd5b505af115801561080e573d6000803e3d6000fd5b50505050506040513d6000823e3d601f19601f8201168201806040525081019061083891906145d6565b5060008054906101000a900473ffffffffffffffffffffffffffffffffffffffff1673ffffffffffffffffffffffffffffffffffffffff16637ff36ab5600a346108829190614cd4565b60006108af600860009054906101000a900473ffffffffffffffffffffffffffffffffffffffff16613d80565b600160009054906101000a900473ffffffffffffffffffffffffffffffffffffffff16866040518663ffffffff1660e01b81526004016108f29493929190614a92565b6000604051808303818588803b15801561090b57600080fd5b505af115801561091f573d6000803e3d6000fd5b50505050506040513d6000823e3d601f19601f8201168201806040525081019061094991906145d6565b5060008054906101000a900473ffffffffffffffffffffffffffffffffffffffff1673ffffffffffffffffffffffffffffffffffffffff16637ff36ab5600a346109939190614cd4565b60006109c0600960009054906101000a900473ffffffffffffffffffffffffffffffffffffffff16613d80565b600160009054906101000a900473ffffffffffffffffffffffffffffffffffffffff16866040518663ffffffff1660e01b8152600401610a039493929190614a92565b6000604051808303818588803b158015610a1c57600080fd5b505af1158015610a30573d6000803e3d6000fd5b50505050506040513d6000823e3d601f19601f82011682018060405250810190610a5a91906145d6565b5060008054906101000a900473ffffffffffffffffffffffffffffffffffffffff1673ffffffffffffffffffffffffffffffffffffffff16637ff36ab5600a34610aa49190614cd4565b6000610ad1600a60009054906101000a900473ffffffffffffffffffffffffffffffffffffffff16613d80565b600160009054906101000a900473ffffffffffffffffffffffffffffffffffffffff16866040518663ffffffff1660e01b8152600401610b149493929190614a92565b6000604051808303818588803b158015610b2d57600080fd5b505af1158015610b41573d6000803e3d6000fd5b50505050506040513d6000823e3d601f19601f82011682018060405250810190610b6b91906145d6565b5060008054906101000a900473ffffffffffffffffffffffffffffffffffffffff1673ffffffffffffffffffffffffffffffffffffffff16637ff36ab5600a34610bb59190614cd4565b6000610be2600b60009054906101000a900473ffffffffffffffffffffffffffffffffffffffff16613d80565b600160009054906101000a900473ffffffffffffffffffffffffffffffffffffffff16866040518663ffffffff1660e01b8152600401610c259493929190614a92565b6000604051808303818588803b158015610c3e57600080fd5b505af1158015610c52573d6000803e3d6000fd5b50505050506040513d6000823e3d601f19601f82011682018060405250810190610c7c91906145d6565b5060008054906101000a900473ffffffffffffffffffffffffffffffffffffffff1673ffffffffffffffffffffffffffffffffffffffff16637ff36ab5600a34610cc69190614cd4565b6000610cf3600c60009054906101000a900473ffffffffffffffffffffffffffffffffffffffff16613d80565b600160009054906101000a900473ffffffffffffffffffffffffffffffffffffffff16866040518663ffffffff1660e01b8152600401610d369493929190614a92565b6000604051808303818588803b158015610d4f57600080fd5b505af1158015610d63573d6000803e3d6000fd5b50505050506040513d6000823e3d601f19601f82011682018060405250810190610d8d91906145d6565b5060008054906101000a900473ffffffffffffffffffffffffffffffffffffffff1673ffffffffffffffffffffffffffffffffffffffff16637ff36ab5600a34610dd79190614cd4565b6000610e04600d60009054906101000a900473ffffffffffffffffffffffffffffffffffffffff16613d80565b600160009054906101000a900473ffffffffffffffffffffffffffffffffffffffff16866040518663ffffffff1660e01b8152600401610e479493929190614a92565b6000604051808303818588803b158015610e6057600080fd5b505af1158015610e74573d6000803e3d6000fd5b50505050506040513d6000823e3d601f19601f82011682018060405250810190610e9e91906145d6565b506000610ed0601960010154610ec2601960000154866141ea90919063ffffffff16565b61420090919063ffffffff16565b9050600260009054906101000a900473ffffffffffffffffffffffffffffffffffffffff1673ffffffffffffffffffffffffffffffffffffffff166340c10f1933836040518363ffffffff1660e01b8152600401610f2f929190614a11565b600060405180830381600087803b158015610f4957600080fd5b505af1158015610f5d573d6000803e3d6000fd5b5050505060003373ffffffffffffffffffffffffffffffffffffffff1647604051610f87906149aa565b60006040518083038185875af1925050503d8060008114610fc4576040519150601f19603f3d011682016040523d82523d6000602084013e610fc9565b606091505b505090508061100d576040517f08c379a000000000000000000000000000000000000000000000000000000000815260040161100490614b1e565b60405180910390fd5b50505050565b60008054906101000a900473ffffffffffffffffffffffffffffffffffffffff1681565b600082141561104557600080fd5b600081141561105357600080fd5b81601960000181905550806019600101819055505050565b6000600f4261107a9190614c7e565b90506110aa600260009054906101000a900473ffffffffffffffffffffffffffffffffffffffff16333085614216565b6110d7600260009054906101000a900473ffffffffffffffffffffffffffffffffffffffff16308461434f565b600260009054906101000a900473ffffffffffffffffffffffffffffffffffffffff1673ffffffffffffffffffffffffffffffffffffffff16639dc29fac30846040518363ffffffff1660e01b8152600401611134929190614a11565b600060405180830381600087803b15801561114e57600080fd5b505af1158015611162573d6000803e3d6000fd5b505050506111b6600460009054906101000a900473ffffffffffffffffffffffffffffffffffffffff16600160009054906101000a900473ffffffffffffffffffffffffffffffffffffffff16308f614216565b611203600460009054906101000a900473ffffffffffffffffffffffffffffffffffffffff1660008054906101000a900473ffffffffffffffffffffffffffffffffffffffff168e61434f565b611253600560009054906101000a900473ffffffffffffffffffffffffffffffffffffffff16600160009054906101000a900473ffffffffffffffffffffffffffffffffffffffff16308e614216565b6112a0600560009054906101000a900473ffffffffffffffffffffffffffffffffffffffff1660008054906101000a900473ffffffffffffffffffffffffffffffffffffffff168d61434f565b6112f0600660009054906101000a900473ffffffffffffffffffffffffffffffffffffffff16600160009054906101000a900473ffffffffffffffffffffffffffffffffffffffff16308d614216565b61133d600660009054906101000a900473ffffffffffffffffffffffffffffffffffffffff1660008054906101000a900473ffffffffffffffffffffffffffffffffffffffff168c61434f565b61138d600760009054906101000a900473ffffffffffffffffffffffffffffffffffffffff16600160009054906101000a900473ffffffffffffffffffffffffffffffffffffffff16308c614216565b6113da600760009054906101000a900473ffffffffffffffffffffffffffffffffffffffff1660008054906101000a900473ffffffffffffffffffffffffffffffffffffffff168b61434f565b61142a600860009054906101000a900473ffffffffffffffffffffffffffffffffffffffff16600160009054906101000a900473ffffffffffffffffffffffffffffffffffffffff16308b614216565b611477600860009054906101000a900473ffffffffffffffffffffffffffffffffffffffff1660008054906101000a900473ffffffffffffffffffffffffffffffffffffffff168961434f565b6114c7600960009054906101000a900473ffffffffffffffffffffffffffffffffffffffff16600160009054906101000a900473ffffffffffffffffffffffffffffffffffffffff16308a614216565b611514600960009054906101000a900473ffffffffffffffffffffffffffffffffffffffff1660008054906101000a900473ffffffffffffffffffffffffffffffffffffffff168961434f565b611564600a60009054906101000a900473ffffffffffffffffffffffffffffffffffffffff16600160009054906101000a900473ffffffffffffffffffffffffffffffffffffffff163089614216565b6115b1600a60009054906101000a900473ffffffffffffffffffffffffffffffffffffffff1660008054906101000a900473ffffffffffffffffffffffffffffffffffffffff168861434f565b611601600b60009054906101000a900473ffffffffffffffffffffffffffffffffffffffff16600160009054906101000a900473ffffffffffffffffffffffffffffffffffffffff163088614216565b61164e600b60009054906101000a900473ffffffffffffffffffffffffffffffffffffffff1660008054906101000a900473ffffffffffffffffffffffffffffffffffffffff168761434f565b61169e600c60009054906101000a900473ffffffffffffffffffffffffffffffffffffffff16600160009054906101000a900473ffffffffffffffffffffffffffffffffffffffff163087614216565b6116eb600c60009054906101000a900473ffffffffffffffffffffffffffffffffffffffff1660008054906101000a900473ffffffffffffffffffffffffffffffffffffffff168661434f565b61173b600d60009054906101000a900473ffffffffffffffffffffffffffffffffffffffff16600160009054906101000a900473ffffffffffffffffffffffffffffffffffffffff163086614216565b611788600d60009054906101000a900473ffffffffffffffffffffffffffffffffffffffff1660008054906101000a900473ffffffffffffffffffffffffffffffffffffffff168561434f565b60008054906101000a900473ffffffffffffffffffffffffffffffffffffffff1673ffffffffffffffffffffffffffffffffffffffff166318cbafe58d60006117f2600460009054906101000a900473ffffffffffffffffffffffffffffffffffffffff16613f86565b33866040518663ffffffff1660e01b8152600401611814959493929190614b3e565b600060405180830381600087803b15801561182e57600080fd5b505af1158015611842573d6000803e3d6000fd5b505050506040513d6000823e3d601f19601f8201168201806040525081019061186b91906145d6565b5060008054906101000a900473ffffffffffffffffffffffffffffffffffffffff1673ffffffffffffffffffffffffffffffffffffffff166318cbafe58c60006118d6600560009054906101000a900473ffffffffffffffffffffffffffffffffffffffff16613f86565b33866040518663ffffffff1660e01b81526004016118f8959493929190614b3e565b600060405180830381600087803b15801561191257600080fd5b505af1158015611926573d6000803e3d6000fd5b505050506040513d6000823e3d601f19601f8201168201806040525081019061194f91906145d6565b5060008054906101000a900473ffffffffffffffffffffffffffffffffffffffff1673ffffffffffffffffffffffffffffffffffffffff166318cbafe58b60006119ba600660009054906101000a900473ffffffffffffffffffffffffffffffffffffffff16613f86565b33866040518663ffffffff1660e01b81526004016119dc959493929190614b3e565b600060405180830381600087803b1580156119f657600080fd5b505af1158015611a0a573d6000803e3d6000fd5b505050506040513d6000823e3d601f19601f82011682018060405250810190611a3391906145d6565b5060008054906101000a900473ffffffffffffffffffffffffffffffffffffffff1673ffffffffffffffffffffffffffffffffffffffff166318cbafe58a6000611a9e600760009054906101000a900473ffffffffffffffffffffffffffffffffffffffff16613f86565b33866040518663ffffffff1660e01b8152600401611ac0959493929190614b3e565b600060405180830381600087803b158015611ada57600080fd5b505af1158015611aee573d6000803e3d6000fd5b505050506040513d6000823e3d601f19601f82011682018060405250810190611b1791906145d6565b5060008054906101000a900473ffffffffffffffffffffffffffffffffffffffff1673ffffffffffffffffffffffffffffffffffffffff166318cbafe5896000611b82600860009054906101000a900473ffffffffffffffffffffffffffffffffffffffff16613f86565b33866040518663ffffffff1660e01b8152600401611ba4959493929190614b3e565b600060405180830381600087803b158015611bbe57600080fd5b505af1158015611bd2573d6000803e3d6000fd5b505050506040513d6000823e3d601f19601f82011682018060405250810190611bfb91906145d6565b5060008054906101000a900473ffffffffffffffffffffffffffffffffffffffff1673ffffffffffffffffffffffffffffffffffffffff166318cbafe5886000611c66600960009054906101000a900473ffffffffffffffffffffffffffffffffffffffff16613f86565b33866040518663ffffffff1660e01b8152600401611c88959493929190614b3e565b600060405180830381600087803b158015611ca257600080fd5b505af1158015611cb6573d6000803e3d6000fd5b505050506040513d6000823e3d601f19601f82011682018060405250810190611cdf91906145d6565b5060008054906101000a900473ffffffffffffffffffffffffffffffffffffffff1673ffffffffffffffffffffffffffffffffffffffff166318cbafe5876000611d4a600a60009054906101000a900473ffffffffffffffffffffffffffffffffffffffff16613f86565b33866040518663ffffffff1660e01b8152600401611d6c959493929190614b3e565b600060405180830381600087803b158015611d8657600080fd5b505af1158015611d9a573d6000803e3d6000fd5b505050506040513d6000823e3d601f19601f82011682018060405250810190611dc391906145d6565b5060008054906101000a900473ffffffffffffffffffffffffffffffffffffffff1673ffffffffffffffffffffffffffffffffffffffff166318cbafe5866000611e2e600b60009054906101000a900473ffffffffffffffffffffffffffffffffffffffff16613f86565b33866040518663ffffffff1660e01b8152600401611e50959493929190614b3e565b600060405180830381600087803b158015611e6a57600080fd5b505af1158015611e7e573d6000803e3d6000fd5b505050506040513d6000823e3d601f19601f82011682018060405250810190611ea791906145d6565b5060008054906101000a900473ffffffffffffffffffffffffffffffffffffffff1673ffffffffffffffffffffffffffffffffffffffff166318cbafe5856000611f12600c60009054906101000a900473ffffffffffffffffffffffffffffffffffffffff16613f86565b33866040518663ffffffff1660e01b8152600401611f34959493929190614b3e565b600060405180830381600087803b158015611f4e57600080fd5b505af1158015611f62573d6000803e3d6000fd5b505050506040513d6000823e3d601f19601f82011682018060405250810190611f8b91906145d6565b5060008054906101000a900473ffffffffffffffffffffffffffffffffffffffff1673ffffffffffffffffffffffffffffffffffffffff166318cbafe5846000611ff6600d60009054906101000a900473ffffffffffffffffffffffffffffffffffffffff16613f86565b33866040518663ffffffff1660e01b8152600401612018959493929190614b3e565b600060405180830381600087803b15801561203257600080fd5b505af1158015612046573d6000803e3d6000fd5b505050506040513d6000823e3d601f19601f8201168201806040525081019061206f91906145d6565b50505050505050505050505050565b6000600f4261208d9190614c7e565b90506120bd600360009054906101000a900473ffffffffffffffffffffffffffffffffffffffff16333085614216565b6120ea600360009054906101000a900473ffffffffffffffffffffffffffffffffffffffff16308461434f565b600360009054906101000a900473ffffffffffffffffffffffffffffffffffffffff1673ffffffffffffffffffffffffffffffffffffffff16639dc29fac30846040518363ffffffff1660e01b8152600401612147929190614a11565b600060405180830381600087803b15801561216157600080fd5b505af1158015612175573d6000803e3d6000fd5b505050506121c9600e60009054906101000a900473ffffffffffffffffffffffffffffffffffffffff16600160009054906101000a900473ffffffffffffffffffffffffffffffffffffffff16308f614216565b612216600e60009054906101000a900473ffffffffffffffffffffffffffffffffffffffff1660008054906101000a900473ffffffffffffffffffffffffffffffffffffffff168e61434f565b612266600f60009054906101000a900473ffffffffffffffffffffffffffffffffffffffff16600160009054906101000a900473ffffffffffffffffffffffffffffffffffffffff16308e614216565b6122b3600f60009054906101000a900473ffffffffffffffffffffffffffffffffffffffff1660008054906101000a900473ffffffffffffffffffffffffffffffffffffffff168d61434f565b612303601060009054906101000a900473ffffffffffffffffffffffffffffffffffffffff16600160009054906101000a900473ffffffffffffffffffffffffffffffffffffffff16308d614216565b612350601060009054906101000a900473ffffffffffffffffffffffffffffffffffffffff1660008054906101000a900473ffffffffffffffffffffffffffffffffffffffff168c61434f565b6123a0601160009054906101000a900473ffffffffffffffffffffffffffffffffffffffff16600160009054906101000a900473ffffffffffffffffffffffffffffffffffffffff16308c614216565b6123ed601160009054906101000a900473ffffffffffffffffffffffffffffffffffffffff1660008054906101000a900473ffffffffffffffffffffffffffffffffffffffff168b61434f565b61243d601260009054906101000a900473ffffffffffffffffffffffffffffffffffffffff16600160009054906101000a900473ffffffffffffffffffffffffffffffffffffffff16308b614216565b61248a601260009054906101000a900473ffffffffffffffffffffffffffffffffffffffff1660008054906101000a900473ffffffffffffffffffffffffffffffffffffffff168961434f565b6124da601360009054906101000a900473ffffffffffffffffffffffffffffffffffffffff16600160009054906101000a900473ffffffffffffffffffffffffffffffffffffffff16308a614216565b612527601360009054906101000a900473ffffffffffffffffffffffffffffffffffffffff1660008054906101000a900473ffffffffffffffffffffffffffffffffffffffff168961434f565b612577601460009054906101000a900473ffffffffffffffffffffffffffffffffffffffff16600160009054906101000a900473ffffffffffffffffffffffffffffffffffffffff163089614216565b6125c4601460009054906101000a900473ffffffffffffffffffffffffffffffffffffffff1660008054906101000a900473ffffffffffffffffffffffffffffffffffffffff168861434f565b612614601560009054906101000a900473ffffffffffffffffffffffffffffffffffffffff16600160009054906101000a900473ffffffffffffffffffffffffffffffffffffffff163088614216565b612661601560009054906101000a900473ffffffffffffffffffffffffffffffffffffffff1660008054906101000a900473ffffffffffffffffffffffffffffffffffffffff168761434f565b6126b1601660009054906101000a900473ffffffffffffffffffffffffffffffffffffffff16600160009054906101000a900473ffffffffffffffffffffffffffffffffffffffff163087614216565b6126fe601660009054906101000a900473ffffffffffffffffffffffffffffffffffffffff1660008054906101000a900473ffffffffffffffffffffffffffffffffffffffff168661434f565b61274e601760009054906101000a900473ffffffffffffffffffffffffffffffffffffffff16600160009054906101000a900473ffffffffffffffffffffffffffffffffffffffff163086614216565b61279b601760009054906101000a900473ffffffffffffffffffffffffffffffffffffffff1660008054906101000a900473ffffffffffffffffffffffffffffffffffffffff168561434f565b60008054906101000a900473ffffffffffffffffffffffffffffffffffffffff1673ffffffffffffffffffffffffffffffffffffffff166318cbafe58d6000612805600e60009054906101000a900473ffffffffffffffffffffffffffffffffffffffff16613f86565b33866040518663ffffffff1660e01b8152600401612827959493929190614b3e565b600060405180830381600087803b15801561284157600080fd5b505af1158015612855573d6000803e3d6000fd5b505050506040513d6000823e3d601f19601f8201168201806040525081019061287e91906145d6565b5060008054906101000a900473ffffffffffffffffffffffffffffffffffffffff1673ffffffffffffffffffffffffffffffffffffffff166318cbafe58c60006128e9600f60009054906101000a900473ffffffffffffffffffffffffffffffffffffffff16613f86565b33866040518663ffffffff1660e01b815260040161290b959493929190614b3e565b600060405180830381600087803b15801561292557600080fd5b505af1158015612939573d6000803e3d6000fd5b505050506040513d6000823e3d601f19601f8201168201806040525081019061296291906145d6565b5060008054906101000a900473ffffffffffffffffffffffffffffffffffffffff1673ffffffffffffffffffffffffffffffffffffffff166318cbafe58b60006129cd601060009054906101000a900473ffffffffffffffffffffffffffffffffffffffff16613f86565b33866040518663ffffffff1660e01b81526004016129ef959493929190614b3e565b600060405180830381600087803b158015612a0957600080fd5b505af1158015612a1d573d6000803e3d6000fd5b505050506040513d6000823e3d601f19601f82011682018060405250810190612a4691906145d6565b5060008054906101000a900473ffffffffffffffffffffffffffffffffffffffff1673ffffffffffffffffffffffffffffffffffffffff166318cbafe58a6000612ab1601160009054906101000a900473ffffffffffffffffffffffffffffffffffffffff16613f86565b33866040518663ffffffff1660e01b8152600401612ad3959493929190614b3e565b600060405180830381600087803b158015612aed57600080fd5b505af1158015612b01573d6000803e3d6000fd5b505050506040513d6000823e3d601f19601f82011682018060405250810190612b2a91906145d6565b5060008054906101000a900473ffffffffffffffffffffffffffffffffffffffff1673ffffffffffffffffffffffffffffffffffffffff166318cbafe5896000612b95601260009054906101000a900473ffffffffffffffffffffffffffffffffffffffff16613f86565b33866040518663ffffffff1660e01b8152600401612bb7959493929190614b3e565b600060405180830381600087803b158015612bd157600080fd5b505af1158015612be5573d6000803e3d6000fd5b505050506040513d6000823e3d601f19601f82011682018060405250810190612c0e91906145d6565b5060008054906101000a900473ffffffffffffffffffffffffffffffffffffffff1673ffffffffffffffffffffffffffffffffffffffff166318cbafe5886000612c79601360009054906101000a900473ffffffffffffffffffffffffffffffffffffffff16613f86565b33866040518663ffffffff1660e01b8152600401612c9b959493929190614b3e565b600060405180830381600087803b158015612cb557600080fd5b505af1158015612cc9573d6000803e3d6000fd5b505050506040513d6000823e3d601f19601f82011682018060405250810190612cf291906145d6565b5060008054906101000a900473ffffffffffffffffffffffffffffffffffffffff1673ffffffffffffffffffffffffffffffffffffffff166318cbafe5876000612d5d601460009054906101000a900473ffffffffffffffffffffffffffffffffffffffff16613f86565b33866040518663ffffffff1660e01b8152600401612d7f959493929190614b3e565b600060405180830381600087803b158015612d9957600080fd5b505af1158015612dad573d6000803e3d6000fd5b505050506040513d6000823e3d601f19601f82011682018060405250810190612dd691906145d6565b5060008054906101000a900473ffffffffffffffffffffffffffffffffffffffff1673ffffffffffffffffffffffffffffffffffffffff166318cbafe5866000612e41601560009054906101000a900473ffffffffffffffffffffffffffffffffffffffff16613f86565b33866040518663ffffffff1660e01b8152600401612e63959493929190614b3e565b600060405180830381600087803b158015612e7d57600080fd5b505af1158015612e91573d6000803e3d6000fd5b505050506040513d6000823e3d601f19601f82011682018060405250810190612eba91906145d6565b5060008054906101000a900473ffffffffffffffffffffffffffffffffffffffff1673ffffffffffffffffffffffffffffffffffffffff166318cbafe5856000612f25601660009054906101000a900473ffffffffffffffffffffffffffffffffffffffff16613f86565b33866040518663ffffffff1660e01b8152600401612f47959493929190614b3e565b600060405180830381600087803b158015612f6157600080fd5b505af1158015612f75573d6000803e3d6000fd5b505050506040513d6000823e3d601f19601f82011682018060405250810190612f9e91906145d6565b5060008054906101000a900473ffffffffffffffffffffffffffffffffffffffff1673ffffffffffffffffffffffffffffffffffffffff166318cbafe5846000613009601760009054906101000a900473ffffffffffffffffffffffffffffffffffffffff16613f86565b33866040518663ffffffff1660e01b815260040161302b959493929190614b3e565b600060405180830381600087803b15801561304557600080fd5b505af1158015613059573d6000803e3d6000fd5b505050506040513d6000823e3d601f19601f8201168201806040525081019061308291906145d6565b50505050505050505050505050565b6000349050600260009054906101000a900473ffffffffffffffffffffffffffffffffffffffff1673ffffffffffffffffffffffffffffffffffffffff1663095ea7b330346040518363ffffffff1660e01b81526004016130f3929190614a11565b602060405180830381600087803b15801561310d57600080fd5b505af1158015613121573d6000803e3d6000fd5b505050506040513d601f19601f820116820180604052508101906131459190614617565b50613151606480611037565b6000600f426131609190614c7e565b905060008054906101000a900473ffffffffffffffffffffffffffffffffffffffff1673ffffffffffffffffffffffffffffffffffffffff16637ff36ab5600a346131ab9190614cd4565b60006131d8600e60009054906101000a900473ffffffffffffffffffffffffffffffffffffffff16613d80565b600160009054906101000a900473ffffffffffffffffffffffffffffffffffffffff16866040518663ffffffff1660e01b815260040161321b9493929190614a92565b6000604051808303818588803b15801561323457600080fd5b505af1158015613248573d6000803e3d6000fd5b50505050506040513d6000823e3d601f19601f8201168201806040525081019061327291906145d6565b5060008054906101000a900473ffffffffffffffffffffffffffffffffffffffff1673ffffffffffffffffffffffffffffffffffffffff16637ff36ab5600a346132bc9190614cd4565b60006132e9600f60009054906101000a900473ffffffffffffffffffffffffffffffffffffffff16613d80565b600160009054906101000a900473ffffffffffffffffffffffffffffffffffffffff16866040518663ffffffff1660e01b815260040161332c9493929190614a92565b6000604051808303818588803b15801561334557600080fd5b505af1158015613359573d6000803e3d6000fd5b50505050506040513d6000823e3d601f19601f8201168201806040525081019061338391906145d6565b5060008054906101000a900473ffffffffffffffffffffffffffffffffffffffff1673ffffffffffffffffffffffffffffffffffffffff16637ff36ab5600a346133cd9190614cd4565b60006133fa601060009054906101000a900473ffffffffffffffffffffffffffffffffffffffff16613d80565b600160009054906101000a900473ffffffffffffffffffffffffffffffffffffffff16866040518663ffffffff1660e01b815260040161343d9493929190614a92565b6000604051808303818588803b15801561345657600080fd5b505af115801561346a573d6000803e3d6000fd5b50505050506040513d6000823e3d601f19601f8201168201806040525081019061349491906145d6565b5060008054906101000a900473ffffffffffffffffffffffffffffffffffffffff1673ffffffffffffffffffffffffffffffffffffffff16637ff36ab5600a346134de9190614cd4565b600061350b601160009054906101000a900473ffffffffffffffffffffffffffffffffffffffff16613d80565b600160009054906101000a900473ffffffffffffffffffffffffffffffffffffffff16866040518663ffffffff1660e01b815260040161354e9493929190614a92565b6000604051808303818588803b15801561356757600080fd5b505af115801561357b573d6000803e3d6000fd5b50505050506040513d6000823e3d601f19601f820116820180604052508101906135a591906145d6565b5060008054906101000a900473ffffffffffffffffffffffffffffffffffffffff1673ffffffffffffffffffffffffffffffffffffffff16637ff36ab5600a346135ef9190614cd4565b600061361c601260009054906101000a900473ffffffffffffffffffffffffffffffffffffffff16613d80565b600160009054906101000a900473ffffffffffffffffffffffffffffffffffffffff16866040518663ffffffff1660e01b815260040161365f9493929190614a92565b6000604051808303818588803b15801561367857600080fd5b505af115801561368c573d6000803e3d6000fd5b50505050506040513d6000823e3d601f19601f820116820180604052508101906136b691906145d6565b5060008054906101000a900473ffffffffffffffffffffffffffffffffffffffff1673ffffffffffffffffffffffffffffffffffffffff16637ff36ab5600a346137009190614cd4565b600061372d601360009054906101000a900473ffffffffffffffffffffffffffffffffffffffff16613d80565b600160009054906101000a900473ffffffffffffffffffffffffffffffffffffffff16866040518663ffffffff1660e01b81526004016137709493929190614a92565b6000604051808303818588803b15801561378957600080fd5b505af115801561379d573d6000803e3d6000fd5b50505050506040513d6000823e3d601f19601f820116820180604052508101906137c791906145d6565b5060008054906101000a900473ffffffffffffffffffffffffffffffffffffffff1673ffffffffffffffffffffffffffffffffffffffff16637ff36ab5600a346138119190614cd4565b600061383e601460009054906101000a900473ffffffffffffffffffffffffffffffffffffffff16613d80565b600160009054906101000a900473ffffffffffffffffffffffffffffffffffffffff16866040518663ffffffff1660e01b81526004016138819493929190614a92565b6000604051808303818588803b15801561389a57600080fd5b505af11580156138ae573d6000803e3d6000fd5b50505050506040513d6000823e3d601f19601f820116820180604052508101906138d891906145d6565b5060008054906101000a900473ffffffffffffffffffffffffffffffffffffffff1673ffffffffffffffffffffffffffffffffffffffff16637ff36ab5600a346139229190614cd4565b600061394f601560009054906101000a900473ffffffffffffffffffffffffffffffffffffffff16613d80565b600160009054906101000a900473ffffffffffffffffffffffffffffffffffffffff16866040518663ffffffff1660e01b81526004016139929493929190614a92565b6000604051808303818588803b1580156139ab57600080fd5b505af11580156139bf573d6000803e3d6000fd5b50505050506040513d6000823e3d601f19601f820116820180604052508101906139e991906145d6565b5060008054906101000a900473ffffffffffffffffffffffffffffffffffffffff1673ffffffffffffffffffffffffffffffffffffffff16637ff36ab5600a34613a339190614cd4565b6000613a60601660009054906101000a900473ffffffffffffffffffffffffffffffffffffffff16613d80565b600160009054906101000a900473ffffffffffffffffffffffffffffffffffffffff16866040518663ffffffff1660e01b8152600401613aa39493929190614a92565b6000604051808303818588803b158015613abc57600080fd5b505af1158015613ad0573d6000803e3d6000fd5b50505050506040513d6000823e3d601f19601f82011682018060405250810190613afa91906145d6565b5060008054906101000a900473ffffffffffffffffffffffffffffffffffffffff1673ffffffffffffffffffffffffffffffffffffffff16637ff36ab5600a34613b449190614cd4565b6000613b71601760009054906101000a900473ffffffffffffffffffffffffffffffffffffffff16613d80565b600160009054906101000a900473ffffffffffffffffffffffffffffffffffffffff16866040518663ffffffff1660e01b8152600401613bb49493929190614a92565b6000604051808303818588803b158015613bcd57600080fd5b505af1158015613be1573d6000803e3d6000fd5b50505050506040513d6000823e3d601f19601f82011682018060405250810190613c0b91906145d6565b506000613c3d601960010154613c2f601960000154866141ea90919063ffffffff16565b61420090919063ffffffff16565b9050600360009054906101000a900473ffffffffffffffffffffffffffffffffffffffff1673ffffffffffffffffffffffffffffffffffffffff166340c10f1933836040518363ffffffff1660e01b8152600401613c9c929190614a11565b600060405180830381600087803b158015613cb657600080fd5b505af1158015613cca573d6000803e3d6000fd5b5050505060003373ffffffffffffffffffffffffffffffffffffffff1647604051613cf4906149aa565b60006040518083038185875af1925050503d8060008114613d31576040519150601f19603f3d011682016040523d82523d6000602084013e613d36565b606091505b5050905080613d7a576040517f08c379a0000000000000000000000000000000000000000000000000000000008152600401613d7190614b1e565b60405180910390fd5b50505050565b60606000600267ffffffffffffffff811115613dc5577f4e487b7100000000000000000000000000000000000000000000000000000000600052604160045260246000fd5b604051908082528060200260200182016040528015613df35781602001602082028036833780820191505090505b50905060008054906101000a900473ffffffffffffffffffffffffffffffffffffffff1673ffffffffffffffffffffffffffffffffffffffff1663ad5c46486040518163ffffffff1660e01b815260040160206040518083038186803b158015613e5c57600080fd5b505afa158015613e70573d6000803e3d6000fd5b505050506040513d601f19601f82011682018060405250810190613e9491906145ad565b81600081518110613ece577f4e487b7100000000000000000000000000000000000000000000000000000000600052603260045260246000fd5b602002602001019073ffffffffffffffffffffffffffffffffffffffff16908173ffffffffffffffffffffffffffffffffffffffff16815250508281600181518110613f43577f4e487b7100000000000000000000000000000000000000000000000000000000600052603260045260246000fd5b602002602001019073ffffffffffffffffffffffffffffffffffffffff16908173ffffffffffffffffffffffffffffffffffffffff168152505080915050919050565b60606000600267ffffffffffffffff811115613fcb577f4e487b7100000000000000000000000000000000000000000000000000000000600052604160045260246000fd5b604051908082528060200260200182016040528015613ff95781602001602082028036833780820191505090505b5090508281600081518110614037577f4e487b7100000000000000000000000000000000000000000000000000000000600052603260045260246000fd5b602002602001019073ffffffffffffffffffffffffffffffffffffffff16908173ffffffffffffffffffffffffffffffffffffffff168152505060008054906101000a900473ffffffffffffffffffffffffffffffffffffffff1673ffffffffffffffffffffffffffffffffffffffff1663ad5c46486040518163ffffffff1660e01b815260040160206040518083038186803b1580156140d757600080fd5b505afa1580156140eb573d6000803e3d6000fd5b505050506040513d601f19601f8201168201806040525081019061410f91906145ad565b81600181518110614149577f4e487b7100000000000000000000000000000000000000000000000000000000600052603260045260246000fd5b602002602001019073ffffffffffffffffffffffffffffffffffffffff16908173ffffffffffffffffffffffffffffffffffffffff168152505080915050919050565b600360009054906101000a900473ffffffffffffffffffffffffffffffffffffffff1681565b600260009054906101000a900473ffffffffffffffffffffffffffffffffffffffff1681565b60198060000154908060010154905082565b600081836141f89190614d05565b905092915050565b6000818361420e9190614cd4565b905092915050565b6000808573ffffffffffffffffffffffffffffffffffffffff166323b872dd86868660405160240161424a939291906149da565b6040516020818303038152906040529060e01b6020820180517bffffffffffffffffffffffffffffffffffffffffffffffffffffffff83818316178352505050506040516142989190614993565b6000604051808303816000865af19150503d80600081146142d5576040519150601f19603f3d011682016040523d82523d6000602084013e6142da565b606091505b509150915081801561430857506000815114806143075750808060200190518101906143069190614617565b5b5b614347576040517f08c379a000000000000000000000000000000000000000000000000000000000815260040161433e90614ade565b60405180910390fd5b505050505050565b6000808473ffffffffffffffffffffffffffffffffffffffff1663095ea7b38585604051602401614381929190614a11565b6040516020818303038152906040529060e01b6020820180517bffffffffffffffffffffffffffffffffffffffffffffffffffffffff83818316178352505050506040516143cf9190614993565b6000604051808303816000865af19150503d806000811461440c576040519150601f19603f3d011682016040523d82523d6000602084013e614411565b606091505b509150915081801561443f575060008151148061443e57508080602001905181019061443d9190614617565b5b5b61447e576040517f08c379a000000000000000000000000000000000000000000000000000000000815260040161447590614afe565b60405180910390fd5b5050505050565b600061449861449384614bf2565b614bc1565b905080838252602082019050828560208602820111156144b757600080fd5b60005b858110156144e757816144cd888261456f565b8452602084019350602083019250506001810190506144ba565b5050509392505050565b60008135905061450081614ec1565b92915050565b60008151905061451581614ec1565b92915050565b600082601f83011261452c57600080fd5b815161453c848260208601614485565b91505092915050565b60008151905061455481614ed8565b92915050565b60008135905061456981614eef565b92915050565b60008151905061457e81614eef565b92915050565b60006020828403121561459657600080fd5b60006145a4848285016144f1565b91505092915050565b6000602082840312156145bf57600080fd5b60006145cd84828501614506565b91505092915050565b6000602082840312156145e857600080fd5b600082015167ffffffffffffffff81111561460257600080fd5b61460e8482850161451b565b91505092915050565b60006020828403121561462957600080fd5b600061463784828501614545565b91505092915050565b6000806040838503121561465357600080fd5b60006146618582860161455a565b92505060206146728582860161455a565b9150509250929050565b60008060008060008060008060008060006101608c8e03121561469e57600080fd5b60006146ac8e828f0161455a565b9b505060206146bd8e828f0161455a565b9a505060406146ce8e828f0161455a565b99505060606146df8e828f0161455a565b98505060806146f08e828f0161455a565b97505060a06147018e828f0161455a565b96505060c06147128e828f0161455a565b95505060e06147238e828f0161455a565b9450506101006147358e828f0161455a565b9350506101206147478e828f0161455a565b9250506101406147598e828f0161455a565b9150509295989b509295989b9093969950565b60006147788383614784565b60208301905092915050565b61478d81614d5f565b82525050565b61479c81614d5f565b82525050565b60006147ad82614c2e565b6147b78185614c51565b93506147c283614c1e565b8060005b838110156147f35781516147da888261476c565b97506147e583614c44565b9250506001810190506147c6565b5085935050505092915050565b600061480b82614c39565b6148158185614c62565b9350614825818560208601614e01565b80840191505092915050565b61483a81614da7565b82525050565b61484981614dcb565b82525050565b61485881614def565b82525050565b600061486b603183614c6d565b91507f5472616e7366657248656c7065723a3a7472616e7366657246726f6d3a20747260008301527f616e7366657246726f6d206661696c65640000000000000000000000000000006020830152604082019050919050565b60006148d1602b83614c6d565b91507f5472616e7366657248656c7065723a3a73616665417070726f76653a2061707060008301527f726f7665206661696c65640000000000000000000000000000000000000000006020830152604082019050919050565b6000614937600083614c62565b9150600082019050919050565b6000614951600d83614c6d565b91507f726566756e64206661696c6564000000000000000000000000000000000000006000830152602082019050919050565b61498d81614d9d565b82525050565b600061499f8284614800565b915081905092915050565b60006149b58261492a565b9150819050919050565b60006020820190506149d46000830184614793565b92915050565b60006060820190506149ef6000830186614793565b6149fc6020830185614793565b614a096040830184614984565b949350505050565b6000604082019050614a266000830185614793565b614a336020830184614984565b9392505050565b60006020820190508181036000830152614a5481846147a2565b905092915050565b6000602082019050614a716000830184614831565b92915050565b6000602082019050614a8c6000830184614840565b92915050565b6000608082019050614aa7600083018761484f565b8181036020830152614ab981866147a2565b9050614ac86040830185614793565b614ad56060830184614984565b95945050505050565b60006020820190508181036000830152614af78161485e565b9050919050565b60006020820190508181036000830152614b17816148c4565b9050919050565b60006020820190508181036000830152614b3781614944565b9050919050565b600060a082019050614b536000830188614984565b614b60602083018761484f565b8181036040830152614b7281866147a2565b9050614b816060830185614793565b614b8e6080830184614984565b9695505050505050565b6000604082019050614bad6000830185614984565b614bba6020830184614984565b9392505050565b6000604051905081810181811067ffffffffffffffff82111715614be857614be7614e92565b5b8060405250919050565b600067ffffffffffffffff821115614c0d57614c0c614e92565b5b602082029050602081019050919050565b6000819050602082019050919050565b600081519050919050565b600081519050919050565b6000602082019050919050565b600082825260208201905092915050565b600081905092915050565b600082825260208201905092915050565b6000614c8982614d9d565b9150614c9483614d9d565b9250827fffffffffffffffffffffffffffffffffffffffffffffffffffffffffffffffff03821115614cc957614cc8614e34565b5b828201905092915050565b6000614cdf82614d9d565b9150614cea83614d9d565b925082614cfa57614cf9614e63565b5b828204905092915050565b6000614d1082614d9d565b9150614d1b83614d9d565b9250817fffffffffffffffffffffffffffffffffffffffffffffffffffffffffffffffff0483118215151615614d5457614d53614e34565b5b828202905092915050565b6000614d6a82614d7d565b9050919050565b60008115159050919050565b600073ffffffffffffffffffffffffffffffffffffffff82169050919050565b6000819050919050565b6000614db282614db9565b9050919050565b6000614dc482614d7d565b9050919050565b6000614dd682614ddd565b9050919050565b6000614de882614d7d565b9050919050565b6000614dfa82614d9d565b9050919050565b60005b83811015614e1f578082015181840152602081019050614e04565b83811115614e2e576000848401525b50505050565b7f4e487b7100000000000000000000000000000000000000000000000000000000600052601160045260246000fd5b7f4e487b7100000000000000000000000000000000000000000000000000000000600052601260045260246000fd5b7f4e487b7100000000000000000000000000000000000000000000000000000000600052604160045260246000fd5b614eca81614d5f565b8114614ed557600080fd5b50565b614ee181614d71565b8114614eec57600080fd5b50565b614ef881614d9d565b8114614f0357600080fd5b5056fea26469706673582212208698111e49e0a40c2b1d1968d1878c2cf23174495a7d6eb61063c0a0dc57225164736f6c63430008000033",
  "immutableReferences": {},
  "source": "// SPDX-License-Identifier: MIT\npragma solidity >=0.4.22 <0.9.0;\n\nimport \"./IPancakeRouter02.sol\";\nimport \"@openzeppelin/contracts/utils/math/SafeMath.sol\";\nimport \"@openzeppelin/contracts/access/Ownable.sol\";\nimport \"@openzeppelin/contracts/token/ERC20/IERC20.sol\";\nimport \"./IToken.sol\";\nimport \"@uniswap/lib/contracts/libraries/TransferHelper.sol\";\n\ncontract IndexSwap {\n    address internal constant pancakeSwapAddress =\n        0x9Ac64Cc6e4415144C455BD8E4837Fea55603e5c3; //Router for pancake bsc testnet\n    // address internal constant pancakeSwapAddress = 0x10ED43C718714eb63d5aA57B78B54704E256024E; //Router for bsc mainnet\n    IPancakeRouter02 public pancakeSwapRouter;\n\n    address private vault = 0x6056773C28c258425Cf9BC8Ba5f86B8031863164;\n\n    IToken public defiToken;\n    IToken public nftToken;\n\n    using SafeMath for uint256;\n\n    //address private crypto1 = 0x419816F160C9bf1Bb8F297d17E1bF44207B9E06C; // BTC\n    address private crypto1 = 0x4b1851167f74FF108A994872A160f1D6772d474b; // BTC\n    address private crypto2 = 0x8BaBbB98678facC7342735486C851ABD7A0d17Ca; // ETH -- already existed\n    address private crypto3 = 0xBf0646Fa5ABbFf6Af50a9C40D5E621835219d384; // SHIBA\n    address private crypto4 = 0xCc00177908830cE1644AEB4aD507Fda3789128Af; // XRP\n    address private crypto5 = 0x2F9fd65E3BB89b68a8e2Abd68Db25F5C348F68Ee; // LTC\n    address private crypto6 = 0x8a9424745056Eb399FD19a0EC26A14316684e274; // DAI -- already existed\n    address private crypto7 = 0x0bBF12a9Ccd7cD0E23dA21eFd3bb16ba807ab069; // LUNA\n    address private crypto8 = 0x8D908A42FD847c80Eeb4498dE43469882436c8FF; // LINK\n    address private crypto9 = 0x62955C6cA8Cd74F8773927B880966B7e70aD4567; // UNI\n    address private crypto10 = 0xb7a58582Df45DBa8Ad346c6A51fdb796D64e0898; // STETH\n\n    address private crypto11 = 0xf34D883EcdE3238B153f38230987a0F4c221a48F; // AXS\n    address private crypto12 = 0x8bf2dF0Ff8528088475183a68678bd1Cd7691b69; // MANA\n    address private crypto13 = 0x1631A54AC95Ecb0085dB6b8ACf80c4Cee72AEB06; // SAND\n    address private crypto14 = 0x19A5E53eC7B385dbE2E587Ba989eA2AB8F7EaF1e; // THETA -- stop\n    address private crypto15 = 0xe5c48084E1974a971Bd5dF4d9B01daCCA86d5567; // FLOW\n    address private crypto16 = 0xC5De9d5B0BA5b408a3e9530A1BC310d8F2dCC26a; // XTZ\n    address private crypto17 = 0x4bf1CE8E4c4c86126E57Fa9fc3f1a9631661641c; // GALA\n    address private crypto18 = 0xdeEC6f0C22970b9b8a47069bE619bfAe646dEe26; // CHZ\n    address private crypto19 = 0xb08A1959f57b9cC8e5A5F1d329EfD90EE3438F65; // ENJ\n    address private crypto20 = 0x30c1AC77F4068A063648B549ffF96Ddb9d151325; // ROSE\n\n    struct rate {\n        uint256 numerator;\n        uint256 denominator;\n    }\n    mapping(address => uint256) admins;\n    rate public currentRate;\n\n    constructor() {\n        pancakeSwapRouter = IPancakeRouter02(pancakeSwapAddress);\n        defiToken = IToken(0xF70538622598232a95B1EC1914Fc878d28EBAE68);\n        nftToken = IToken(0x817ea2A5Fd281d15CA70B05abB5E094356C42996);\n    }\n\n    function updateRate(uint256 _numerator, uint256 _denominator) public {\n        require(_numerator != 0);\n        require(_denominator != 0);\n        currentRate.numerator = _numerator;\n        currentRate.denominator = _denominator;\n    }\n\n    function investInFundDefi() public payable {\n        uint256 cryptoAmount = msg.value;\n        // approve\n        defiToken.approve(address(this), msg.value);\n\n        // update rate\n        updateRate(100, 100);\n\n        uint256 deadline = block.timestamp + 15; // using now for convenience, for mainnet pass deadline from frontend!\n\n        pancakeSwapRouter.swapExactETHForTokens{value: msg.value / 10}(\n            0,\n            getPathForETH(crypto1),\n            vault,\n            deadline\n        );\n        pancakeSwapRouter.swapExactETHForTokens{value: msg.value / 10}(\n            0,\n            getPathForETH(crypto2),\n            vault,\n            deadline\n        );\n        pancakeSwapRouter.swapExactETHForTokens{value: msg.value / 10}(\n            0,\n            getPathForETH(crypto3),\n            vault,\n            deadline\n        );\n        pancakeSwapRouter.swapExactETHForTokens{value: msg.value / 10}(\n            0,\n            getPathForETH(crypto4),\n            vault,\n            deadline\n        );\n        pancakeSwapRouter.swapExactETHForTokens{value: msg.value / 10}(\n            0,\n            getPathForETH(crypto5),\n            vault,\n            deadline\n        );\n        pancakeSwapRouter.swapExactETHForTokens{value: msg.value / 10}(\n            0,\n            getPathForETH(crypto6),\n            vault,\n            deadline\n        );\n        pancakeSwapRouter.swapExactETHForTokens{value: msg.value / 10}(\n            0,\n            getPathForETH(crypto7),\n            vault,\n            deadline\n        );\n        pancakeSwapRouter.swapExactETHForTokens{value: msg.value / 10}(\n            0,\n            getPathForETH(crypto8),\n            vault,\n            deadline\n        );\n        pancakeSwapRouter.swapExactETHForTokens{value: msg.value / 10}(\n            0,\n            getPathForETH(crypto9),\n            vault,\n            deadline\n        );\n        pancakeSwapRouter.swapExactETHForTokens{value: msg.value / 10}(\n            0,\n            getPathForETH(crypto10),\n            vault,\n            deadline\n        );\n\n        uint256 tokenAmount = cryptoAmount.mul(currentRate.numerator).div(\n            currentRate.denominator\n        );\n        defiToken.mint(msg.sender, tokenAmount);\n        // refund leftover ETH to user\n        (bool success, ) = msg.sender.call{value: address(this).balance}(\"\");\n        require(success, \"refund failed\");\n    }\n\n    function investInFundNFT() public payable {\n        uint256 cryptoAmount = msg.value;\n        // approve\n        defiToken.approve(address(this), msg.value);\n\n        // update rate\n        updateRate(100, 100);\n\n        uint256 deadline = block.timestamp + 15; // using now for convenience, for mainnet pass deadline from frontend!\n\n        pancakeSwapRouter.swapExactETHForTokens{value: msg.value / 10}(\n            0,\n            getPathForETH(crypto11),\n            vault,\n            deadline\n        );\n        pancakeSwapRouter.swapExactETHForTokens{value: msg.value / 10}(\n            0,\n            getPathForETH(crypto12),\n            vault,\n            deadline\n        );\n        pancakeSwapRouter.swapExactETHForTokens{value: msg.value / 10}(\n            0,\n            getPathForETH(crypto13),\n            vault,\n            deadline\n        );\n        pancakeSwapRouter.swapExactETHForTokens{value: msg.value / 10}(\n            0,\n            getPathForETH(crypto14),\n            vault,\n            deadline\n        );\n        pancakeSwapRouter.swapExactETHForTokens{value: msg.value / 10}(\n            0,\n            getPathForETH(crypto15),\n            vault,\n            deadline\n        );\n        pancakeSwapRouter.swapExactETHForTokens{value: msg.value / 10}(\n            0,\n            getPathForETH(crypto16),\n            vault,\n            deadline\n        );\n        pancakeSwapRouter.swapExactETHForTokens{value: msg.value / 10}(\n            0,\n            getPathForETH(crypto17),\n            vault,\n            deadline\n        );\n        pancakeSwapRouter.swapExactETHForTokens{value: msg.value / 10}(\n            0,\n            getPathForETH(crypto18),\n            vault,\n            deadline\n        );\n        pancakeSwapRouter.swapExactETHForTokens{value: msg.value / 10}(\n            0,\n            getPathForETH(crypto19),\n            vault,\n            deadline\n        );\n        pancakeSwapRouter.swapExactETHForTokens{value: msg.value / 10}(\n            0,\n            getPathForETH(crypto20),\n            vault,\n            deadline\n        );\n\n        uint256 tokenAmount = cryptoAmount.mul(currentRate.numerator).div(\n            currentRate.denominator\n        );\n        nftToken.mint(msg.sender, tokenAmount);\n        // refund leftover ETH to user\n        (bool success, ) = msg.sender.call{value: address(this).balance}(\"\");\n        require(success, \"refund failed\");\n    }\n\n    function withdrawFromFundTOPTokens(\n        uint256 amount1,\n        uint256 amount2,\n        uint256 amount3,\n        uint256 amount4,\n        uint256 amount5,\n        uint256 amount6,\n        uint256 amount7,\n        uint256 amount8,\n        uint256 amount9,\n        uint256 amount10,\n        uint256 tokenAmount\n    ) public payable {\n        uint256 deadline = block.timestamp + 15;\n\n        // IDT Token Burn\n        TransferHelper.safeTransferFrom(\n            address(defiToken),\n            msg.sender,\n            address(this),\n            tokenAmount\n        );\n        TransferHelper.safeApprove(\n            address(defiToken),\n            address(this),\n            tokenAmount\n        );\n\n        defiToken.burn(address(this), tokenAmount);\n        // -------------------------------------------------------------------------------------------- //\n\n        //Getting Investment Back From Vault to Contract\n        TransferHelper.safeTransferFrom(\n            address(crypto1),\n            vault,\n            address(this),\n            amount1\n        );\n        TransferHelper.safeApprove(\n            address(crypto1),\n            address(pancakeSwapRouter),\n            amount1\n        );\n\n        TransferHelper.safeTransferFrom(\n            address(crypto2),\n            vault,\n            address(this),\n            amount2\n        );\n        TransferHelper.safeApprove(\n            address(crypto2),\n            address(pancakeSwapRouter),\n            amount2\n        );\n\n        TransferHelper.safeTransferFrom(\n            address(crypto3),\n            vault,\n            address(this),\n            amount3\n        );\n        TransferHelper.safeApprove(\n            address(crypto3),\n            address(pancakeSwapRouter),\n            amount3\n        );\n\n        TransferHelper.safeTransferFrom(\n            address(crypto4),\n            vault,\n            address(this),\n            amount4\n        );\n        TransferHelper.safeApprove(\n            address(crypto4),\n            address(pancakeSwapRouter),\n            amount4\n        );\n\n        TransferHelper.safeTransferFrom(\n            address(crypto5),\n            vault,\n            address(this),\n            amount5\n        );\n        TransferHelper.safeApprove(\n            address(crypto5),\n            address(pancakeSwapRouter),\n            amount6\n        );\n\n        TransferHelper.safeTransferFrom(\n            address(crypto6),\n            vault,\n            address(this),\n            amount6\n        );\n        TransferHelper.safeApprove(\n            address(crypto6),\n            address(pancakeSwapRouter),\n            amount6\n        );\n\n        TransferHelper.safeTransferFrom(\n            address(crypto7),\n            vault,\n            address(this),\n            amount7\n        );\n        TransferHelper.safeApprove(\n            address(crypto7),\n            address(pancakeSwapRouter),\n            amount7\n        );\n\n        TransferHelper.safeTransferFrom(\n            address(crypto8),\n            vault,\n            address(this),\n            amount8\n        );\n        TransferHelper.safeApprove(\n            address(crypto8),\n            address(pancakeSwapRouter),\n            amount8\n        );\n\n        TransferHelper.safeTransferFrom(\n            address(crypto9),\n            vault,\n            address(this),\n            amount9\n        );\n        TransferHelper.safeApprove(\n            address(crypto9),\n            address(pancakeSwapRouter),\n            amount9\n        );\n\n        TransferHelper.safeTransferFrom(\n            address(crypto10),\n            vault,\n            address(this),\n            amount10\n        );\n        TransferHelper.safeApprove(\n            address(crypto10),\n            address(pancakeSwapRouter),\n            amount10\n        );\n\n        // ------------------------------------------------------------------------------------------------ //\n\n        // Converting back to BNB\n\n        pancakeSwapRouter.swapExactTokensForETH(\n            amount1,\n            0,\n            getPathForToken(crypto1),\n            msg.sender,\n            deadline\n        );\n        pancakeSwapRouter.swapExactTokensForETH(\n            amount2,\n            0,\n            getPathForToken(crypto2),\n            msg.sender,\n            deadline\n        );\n        pancakeSwapRouter.swapExactTokensForETH(\n            amount3,\n            0,\n            getPathForToken(crypto3),\n            msg.sender,\n            deadline\n        );\n        pancakeSwapRouter.swapExactTokensForETH(\n            amount4,\n            0,\n            getPathForToken(crypto4),\n            msg.sender,\n            deadline\n        );\n        pancakeSwapRouter.swapExactTokensForETH(\n            amount5,\n            0,\n            getPathForToken(crypto5),\n            msg.sender,\n            deadline\n        );\n        pancakeSwapRouter.swapExactTokensForETH(\n            amount6,\n            0,\n            getPathForToken(crypto6),\n            msg.sender,\n            deadline\n        );\n        pancakeSwapRouter.swapExactTokensForETH(\n            amount7,\n            0,\n            getPathForToken(crypto7),\n            msg.sender,\n            deadline\n        );\n        pancakeSwapRouter.swapExactTokensForETH(\n            amount8,\n            0,\n            getPathForToken(crypto8),\n            msg.sender,\n            deadline\n        );\n        pancakeSwapRouter.swapExactTokensForETH(\n            amount9,\n            0,\n            getPathForToken(crypto9),\n            msg.sender,\n            deadline\n        );\n        pancakeSwapRouter.swapExactTokensForETH(\n            amount10,\n            0,\n            getPathForToken(crypto10),\n            msg.sender,\n            deadline\n        );\n    }\n\n    function withdrawFromFundNFT(\n        uint256 amount1,\n        uint256 amount2,\n        uint256 amount3,\n        uint256 amount4,\n        uint256 amount5,\n        uint256 amount6,\n        uint256 amount7,\n        uint256 amount8,\n        uint256 amount9,\n        uint256 amount10,\n        uint256 tokenAmount\n    ) public payable {\n        uint256 deadline = block.timestamp + 15;\n\n        // IDT Token Burn\n        TransferHelper.safeTransferFrom(\n            address(nftToken),\n            msg.sender,\n            address(this),\n            tokenAmount\n        );\n        TransferHelper.safeApprove(\n            address(nftToken),\n            address(this),\n            tokenAmount\n        );\n\n        nftToken.burn(address(this), tokenAmount);\n        // -------------------------------------------------------------------------------------------- //\n\n        //Getting Investment Back From Vault to Contract\n        TransferHelper.safeTransferFrom(\n            address(crypto11),\n            vault,\n            address(this),\n            amount1\n        );\n        TransferHelper.safeApprove(\n            address(crypto11),\n            address(pancakeSwapRouter),\n            amount1\n        );\n\n        TransferHelper.safeTransferFrom(\n            address(crypto12),\n            vault,\n            address(this),\n            amount2\n        );\n        TransferHelper.safeApprove(\n            address(crypto12),\n            address(pancakeSwapRouter),\n            amount2\n        );\n\n        TransferHelper.safeTransferFrom(\n            address(crypto13),\n            vault,\n            address(this),\n            amount3\n        );\n        TransferHelper.safeApprove(\n            address(crypto13),\n            address(pancakeSwapRouter),\n            amount3\n        );\n\n        TransferHelper.safeTransferFrom(\n            address(crypto14),\n            vault,\n            address(this),\n            amount4\n        );\n        TransferHelper.safeApprove(\n            address(crypto14),\n            address(pancakeSwapRouter),\n            amount4\n        );\n\n        TransferHelper.safeTransferFrom(\n            address(crypto15),\n            vault,\n            address(this),\n            amount5\n        );\n        TransferHelper.safeApprove(\n            address(crypto15),\n            address(pancakeSwapRouter),\n            amount6\n        );\n\n        TransferHelper.safeTransferFrom(\n            address(crypto16),\n            vault,\n            address(this),\n            amount6\n        );\n        TransferHelper.safeApprove(\n            address(crypto16),\n            address(pancakeSwapRouter),\n            amount6\n        );\n\n        TransferHelper.safeTransferFrom(\n            address(crypto17),\n            vault,\n            address(this),\n            amount7\n        );\n        TransferHelper.safeApprove(\n            address(crypto17),\n            address(pancakeSwapRouter),\n            amount7\n        );\n\n        TransferHelper.safeTransferFrom(\n            address(crypto18),\n            vault,\n            address(this),\n            amount8\n        );\n        TransferHelper.safeApprove(\n            address(crypto18),\n            address(pancakeSwapRouter),\n            amount8\n        );\n\n        TransferHelper.safeTransferFrom(\n            address(crypto19),\n            vault,\n            address(this),\n            amount9\n        );\n        TransferHelper.safeApprove(\n            address(crypto19),\n            address(pancakeSwapRouter),\n            amount9\n        );\n\n        TransferHelper.safeTransferFrom(\n            address(crypto20),\n            vault,\n            address(this),\n            amount10\n        );\n        TransferHelper.safeApprove(\n            address(crypto20),\n            address(pancakeSwapRouter),\n            amount10\n        );\n\n        // ------------------------------------------------------------------------------------------------ //\n\n        // Converting back to BNB\n\n        pancakeSwapRouter.swapExactTokensForETH(\n            amount1,\n            0,\n            getPathForToken(crypto11),\n            msg.sender,\n            deadline\n        );\n        pancakeSwapRouter.swapExactTokensForETH(\n            amount2,\n            0,\n            getPathForToken(crypto12),\n            msg.sender,\n            deadline\n        );\n        pancakeSwapRouter.swapExactTokensForETH(\n            amount3,\n            0,\n            getPathForToken(crypto13),\n            msg.sender,\n            deadline\n        );\n        pancakeSwapRouter.swapExactTokensForETH(\n            amount4,\n            0,\n            getPathForToken(crypto14),\n            msg.sender,\n            deadline\n        );\n        pancakeSwapRouter.swapExactTokensForETH(\n            amount5,\n            0,\n            getPathForToken(crypto15),\n            msg.sender,\n            deadline\n        );\n        pancakeSwapRouter.swapExactTokensForETH(\n            amount6,\n            0,\n            getPathForToken(crypto16),\n            msg.sender,\n            deadline\n        );\n        pancakeSwapRouter.swapExactTokensForETH(\n            amount7,\n            0,\n            getPathForToken(crypto17),\n            msg.sender,\n            deadline\n        );\n        pancakeSwapRouter.swapExactTokensForETH(\n            amount8,\n            0,\n            getPathForToken(crypto18),\n            msg.sender,\n            deadline\n        );\n        pancakeSwapRouter.swapExactTokensForETH(\n            amount9,\n            0,\n            getPathForToken(crypto19),\n            msg.sender,\n            deadline\n        );\n        pancakeSwapRouter.swapExactTokensForETH(\n            amount10,\n            0,\n            getPathForToken(crypto20),\n            msg.sender,\n            deadline\n        );\n    }\n\n    // function addLiquidity() public payable{\n    //   uint deadline = block.timestamp + 15;\n    //   token.approve(pancakeSwapAddress,1000000000000000000000000000);\n    //   // pancakeSwapRouter.addLiquidityEth{value: msg.value}();\n    // }\n    function getPathForETH(address crypto)\n        public\n        view\n        returns (address[] memory)\n    {\n        address[] memory path = new address[](2);\n        path[0] = pancakeSwapRouter.WETH();\n        path[1] = crypto;\n        return path;\n    }\n\n    function getPathForToken(address token)\n        public\n        view\n        returns (address[] memory)\n    {\n        address[] memory path = new address[](2);\n        path[0] = token;\n        path[1] = pancakeSwapRouter.WETH();\n        return path;\n    }\n\n    function getETH() public view returns (address) {\n        return pancakeSwapRouter.WETH();\n    }\n\n    // important to receive ETH\n    receive() external payable {}\n}\n",
  "sourcePath": "/Users/navinalang/Navina-workgroup/05_create_and_burn_copy/contracts/IndexSwap.sol",
  "compiler": {
    "name": "solc",
    "version": "0.8.0+commit.c7dfd78e.Emscripten.clang"
  },
  "schemaVersion": "3.4.6",
  "updatedAt": "2022-04-07T13:03:24.773Z",
  "devdoc": {
    "kind": "dev",
    "methods": {},
    "version": 1
  },
  "userdoc": {
    "kind": "user",
    "methods": {},
    "version": 1
  }
}