{
  "contractName": "IndexSwap",
  "abi": [
    {
      "inputs": [],
      "stateMutability": "nonpayable",
      "type": "constructor"
    },
    {
      "inputs": [],
      "name": "currentRate",
      "outputs": [
        {
          "internalType": "uint256",
          "name": "numerator",
          "type": "uint256"
        },
        {
          "internalType": "uint256",
          "name": "denominator",
          "type": "uint256"
        }
      ],
      "stateMutability": "view",
      "type": "function"
    },
    {
      "inputs": [],
      "name": "defiToken",
      "outputs": [
        {
          "internalType": "contract IToken",
          "name": "",
          "type": "address"
        }
      ],
      "stateMutability": "view",
      "type": "function"
    },
    {
      "inputs": [],
      "name": "nftToken",
      "outputs": [
        {
          "internalType": "contract IToken",
          "name": "",
          "type": "address"
        }
      ],
      "stateMutability": "view",
      "type": "function"
    },
    {
      "inputs": [],
      "name": "pancakeSwapRouter",
      "outputs": [
        {
          "internalType": "contract IPancakeRouter02",
          "name": "",
          "type": "address"
        }
      ],
      "stateMutability": "view",
      "type": "function"
    },
    {
      "stateMutability": "payable",
      "type": "receive"
    },
    {
      "inputs": [
        {
          "internalType": "uint256",
          "name": "_numerator",
          "type": "uint256"
        },
        {
          "internalType": "uint256",
          "name": "_denominator",
          "type": "uint256"
        }
      ],
      "name": "updateRate",
      "outputs": [],
      "stateMutability": "nonpayable",
      "type": "function"
    },
    {
      "inputs": [],
      "name": "investInFundDefi",
      "outputs": [],
      "stateMutability": "payable",
      "type": "function"
    },
    {
      "inputs": [],
      "name": "investInFundNFT",
      "outputs": [],
      "stateMutability": "payable",
      "type": "function"
    },
    {
      "inputs": [
        {
          "internalType": "uint256",
          "name": "amount1",
          "type": "uint256"
        },
        {
          "internalType": "uint256",
          "name": "tokenAmount",
          "type": "uint256"
        },
        {
          "internalType": "address",
          "name": "owner",
          "type": "address"
        }
      ],
      "name": "withdrawFromFund",
      "outputs": [],
      "stateMutability": "payable",
      "type": "function"
    },
    {
      "inputs": [
        {
          "internalType": "address",
          "name": "crypto",
          "type": "address"
        }
      ],
      "name": "getPathForETH",
      "outputs": [
        {
          "internalType": "address[]",
          "name": "",
          "type": "address[]"
        }
      ],
      "stateMutability": "view",
      "type": "function"
    },
    {
      "inputs": [
        {
          "internalType": "address",
          "name": "token",
          "type": "address"
        }
      ],
      "name": "getPathForToken",
      "outputs": [
        {
          "internalType": "address[]",
          "name": "",
          "type": "address[]"
        }
      ],
      "stateMutability": "view",
      "type": "function"
    },
    {
      "inputs": [],
      "name": "getETH",
      "outputs": [
        {
          "internalType": "address",
          "name": "",
          "type": "address"
        }
      ],
      "stateMutability": "view",
      "type": "function"
    }
  ],
  "bytecode": "0x608060405273419816f160c9bf1bb8f297d17e1bf44207b9e06c600360006101000a81548173ffffffffffffffffffffffffffffffffffffffff021916908373ffffffffffffffffffffffffffffffffffffffff160217905550738babbb98678facc7342735486c851abd7a0d17ca600460006101000a81548173ffffffffffffffffffffffffffffffffffffffff021916908373ffffffffffffffffffffffffffffffffffffffff16021790555073b950614981c8bc650744347293e3ac4ea8ff123b600560006101000a81548173ffffffffffffffffffffffffffffffffffffffff021916908373ffffffffffffffffffffffffffffffffffffffff1602179055507353e5d0c3702fb163c8650ee74697be9bef38b9e5600660006101000a81548173ffffffffffffffffffffffffffffffffffffffff021916908373ffffffffffffffffffffffffffffffffffffffff16021790555073c3c89a5cd270bfb4f948cef2151d818e3cb9bdd2600760006101000a81548173ffffffffffffffffffffffffffffffffffffffff021916908373ffffffffffffffffffffffffffffffffffffffff16021790555073f1955902806ee5b144691a3de9005951079d8458600860006101000a81548173ffffffffffffffffffffffffffffffffffffffff021916908373ffffffffffffffffffffffffffffffffffffffff16021790555073f5d59a1a7667c23ea6b369085b8c693be6a6af5c600960006101000a81548173ffffffffffffffffffffffffffffffffffffffff021916908373ffffffffffffffffffffffffffffffffffffffff1602179055507354fa926a8c1241174afd79f3f1ea3219d11afb7e600a60006101000a81548173ffffffffffffffffffffffffffffffffffffffff021916908373ffffffffffffffffffffffffffffffffffffffff160217905550732f6131af2dcb1315ba63bccd0a5e3a236a5c5c93600b60006101000a81548173ffffffffffffffffffffffffffffffffffffffff021916908373ffffffffffffffffffffffffffffffffffffffff16021790555073190bb213cf401a4e5d8820b12198e92a858239c6600c60006101000a81548173ffffffffffffffffffffffffffffffffffffffff021916908373ffffffffffffffffffffffffffffffffffffffff16021790555034801561036257600080fd5b50739ac64cc6e4415144c455bd8e4837fea55603e5c36000806101000a81548173ffffffffffffffffffffffffffffffffffffffff021916908373ffffffffffffffffffffffffffffffffffffffff16021790555073ae24bd25b1aba33f69e97074af954b1bf84b72cb600160006101000a81548173ffffffffffffffffffffffffffffffffffffffff021916908373ffffffffffffffffffffffffffffffffffffffff16021790555073e870b73661cc3de504fe26111748c08224edbf63600260006101000a81548173ffffffffffffffffffffffffffffffffffffffff021916908373ffffffffffffffffffffffffffffffffffffffff1602179055506122d6806104706000396000f3fe6080604052600436106100a05760003560e01c80638149741c116100645780638149741c14610151578063b0849c1c1461015b578063ca0e7ed514610198578063d06fcba8146101d5578063ea987a1e14610200578063f9f8bdb71461022b576100a7565b806314f6c3be146100ac57806319effc68146100d757806324558995146100e157806333c408ea1461010c578063405abb4114610128576100a7565b366100a757005b600080fd5b3480156100b857600080fd5b506100c1610257565b6040516100ce9190611dd7565b60405180910390f35b6100df6102fd565b005b3480156100ed57600080fd5b506100f66109ed565b6040516101039190611e74565b60405180910390f35b61012660048036038101906101219190611c49565b610a11565b005b34801561013457600080fd5b5061014f600480360381019061014a9190611c0d565b610e98565b005b610159610ecc565b005b34801561016757600080fd5b50610182600480360381019061017d9190611b51565b6115bc565b60405161018f9190611e52565b60405180910390f35b3480156101a457600080fd5b506101bf60048036038101906101ba9190611b51565b6117c2565b6040516101cc9190611e52565b60405180910390f35b3480156101e157600080fd5b506101ea6119c8565b6040516101f79190611e8f565b60405180910390f35b34801561020c57600080fd5b506102156119ee565b6040516102229190611e8f565b60405180910390f35b34801561023757600080fd5b50610240611a14565b60405161024e929190611f16565b60405180910390f35b60008060009054906101000a900473ffffffffffffffffffffffffffffffffffffffff1673ffffffffffffffffffffffffffffffffffffffff1663ad5c46486040518163ffffffff1660e01b815260040160206040518083038186803b1580156102c057600080fd5b505afa1580156102d4573d6000803e3d6000fd5b505050506040513d601f19601f820116820180604052508101906102f89190611b7a565b905090565b6000349050600160009054906101000a900473ffffffffffffffffffffffffffffffffffffffff1673ffffffffffffffffffffffffffffffffffffffff1663095ea7b330346040518363ffffffff1660e01b815260040161035f929190611e29565b602060405180830381600087803b15801561037957600080fd5b505af115801561038d573d6000803e3d6000fd5b505050506040513d601f19601f820116820180604052508101906103b19190611be4565b506103bd606480610e98565b6000600f426103cc919061204b565b905060008054906101000a900473ffffffffffffffffffffffffffffffffffffffff1673ffffffffffffffffffffffffffffffffffffffff16637ff36ab560053461041791906120a1565b6000610444600360009054906101000a900473ffffffffffffffffffffffffffffffffffffffff166115bc565b33866040518663ffffffff1660e01b81526004016104659493929190611eaa565b6000604051808303818588803b15801561047e57600080fd5b505af1158015610492573d6000803e3d6000fd5b50505050506040513d6000823e3d601f19601f820116820180604052508101906104bc9190611ba3565b5060008054906101000a900473ffffffffffffffffffffffffffffffffffffffff1673ffffffffffffffffffffffffffffffffffffffff16637ff36ab560053461050691906120a1565b6000610533600460009054906101000a900473ffffffffffffffffffffffffffffffffffffffff166115bc565b33866040518663ffffffff1660e01b81526004016105549493929190611eaa565b6000604051808303818588803b15801561056d57600080fd5b505af1158015610581573d6000803e3d6000fd5b50505050506040513d6000823e3d601f19601f820116820180604052508101906105ab9190611ba3565b5060008054906101000a900473ffffffffffffffffffffffffffffffffffffffff1673ffffffffffffffffffffffffffffffffffffffff16637ff36ab56005346105f591906120a1565b6000610622600560009054906101000a900473ffffffffffffffffffffffffffffffffffffffff166115bc565b33866040518663ffffffff1660e01b81526004016106439493929190611eaa565b6000604051808303818588803b15801561065c57600080fd5b505af1158015610670573d6000803e3d6000fd5b50505050506040513d6000823e3d601f19601f8201168201806040525081019061069a9190611ba3565b5060008054906101000a900473ffffffffffffffffffffffffffffffffffffffff1673ffffffffffffffffffffffffffffffffffffffff16637ff36ab56005346106e491906120a1565b6000610711600660009054906101000a900473ffffffffffffffffffffffffffffffffffffffff166115bc565b33866040518663ffffffff1660e01b81526004016107329493929190611eaa565b6000604051808303818588803b15801561074b57600080fd5b505af115801561075f573d6000803e3d6000fd5b50505050506040513d6000823e3d601f19601f820116820180604052508101906107899190611ba3565b5060008054906101000a900473ffffffffffffffffffffffffffffffffffffffff1673ffffffffffffffffffffffffffffffffffffffff16637ff36ab56005346107d391906120a1565b6000610800600760009054906101000a900473ffffffffffffffffffffffffffffffffffffffff166115bc565b33866040518663ffffffff1660e01b81526004016108219493929190611eaa565b6000604051808303818588803b15801561083a57600080fd5b505af115801561084e573d6000803e3d6000fd5b50505050506040513d6000823e3d601f19601f820116820180604052508101906108789190611ba3565b5060006108aa600e6001015461089c600e6000015486611a2690919063ffffffff16565b611a3c90919063ffffffff16565b9050600160009054906101000a900473ffffffffffffffffffffffffffffffffffffffff1673ffffffffffffffffffffffffffffffffffffffff166340c10f1933836040518363ffffffff1660e01b8152600401610909929190611e29565b600060405180830381600087803b15801561092357600080fd5b505af1158015610937573d6000803e3d6000fd5b5050505060003373ffffffffffffffffffffffffffffffffffffffff164760405161096190611dc2565b60006040518083038185875af1925050503d806000811461099e576040519150601f19603f3d011682016040523d82523d6000602084013e6109a3565b606091505b50509050806109e7576040517f08c379a00000000000000000000000000000000000000000000000000000000081526004016109de90611ef6565b60405180910390fd5b50505050565b60008054906101000a900473ffffffffffffffffffffffffffffffffffffffff1681565b6000600f42610a20919061204b565b9050600260009054906101000a900473ffffffffffffffffffffffffffffffffffffffff1673ffffffffffffffffffffffffffffffffffffffff166323b872dd3330866040518463ffffffff1660e01b8152600401610a8193929190611df2565b602060405180830381600087803b158015610a9b57600080fd5b505af1158015610aaf573d6000803e3d6000fd5b505050506040513d601f19601f82011682018060405250810190610ad39190611be4565b50600260009054906101000a900473ffffffffffffffffffffffffffffffffffffffff1673ffffffffffffffffffffffffffffffffffffffff16639dc29fac30856040518363ffffffff1660e01b8152600401610b31929190611e29565b600060405180830381600087803b158015610b4b57600080fd5b505af1158015610b5f573d6000803e3d6000fd5b50505050600360009054906101000a900473ffffffffffffffffffffffffffffffffffffffff1673ffffffffffffffffffffffffffffffffffffffff1663095ea7b3739ac64cc6e4415144c455bd8e4837fea55603e5c3866040518363ffffffff1660e01b8152600401610bd4929190611e29565b602060405180830381600087803b158015610bee57600080fd5b505af1158015610c02573d6000803e3d6000fd5b505050506040513d601f19601f82011682018060405250810190610c269190611be4565b50600360009054906101000a900473ffffffffffffffffffffffffffffffffffffffff1673ffffffffffffffffffffffffffffffffffffffff1663095ea7b383866040518363ffffffff1660e01b8152600401610c84929190611e29565b602060405180830381600087803b158015610c9e57600080fd5b505af1158015610cb2573d6000803e3d6000fd5b505050506040513d601f19601f82011682018060405250810190610cd69190611be4565b50600360009054906101000a900473ffffffffffffffffffffffffffffffffffffffff1673ffffffffffffffffffffffffffffffffffffffff166323b872dd3330876040518463ffffffff1660e01b8152600401610d3693929190611df2565b602060405180830381600087803b158015610d5057600080fd5b505af1158015610d64573d6000803e3d6000fd5b505050506040513d601f19601f82011682018060405250810190610d889190611be4565b5060008054906101000a900473ffffffffffffffffffffffffffffffffffffffff1673ffffffffffffffffffffffffffffffffffffffff166318cbafe585610ded6064610ddf605f8a611a2690919063ffffffff16565b611a3c90919063ffffffff16565b610e18600360009054906101000a900473ffffffffffffffffffffffffffffffffffffffff166117c2565b86866040518663ffffffff1660e01b8152600401610e3a959493929190611f3f565b600060405180830381600087803b158015610e5457600080fd5b505af1158015610e68573d6000803e3d6000fd5b505050506040513d6000823e3d601f19601f82011682018060405250810190610e919190611ba3565b5050505050565b6000821415610ea657600080fd5b6000811415610eb457600080fd5b81600e6000018190555080600e600101819055505050565b6000349050600160009054906101000a900473ffffffffffffffffffffffffffffffffffffffff1673ffffffffffffffffffffffffffffffffffffffff1663095ea7b330346040518363ffffffff1660e01b8152600401610f2e929190611e29565b602060405180830381600087803b158015610f4857600080fd5b505af1158015610f5c573d6000803e3d6000fd5b505050506040513d601f19601f82011682018060405250810190610f809190611be4565b50610f8c606480610e98565b6000600f42610f9b919061204b565b905060008054906101000a900473ffffffffffffffffffffffffffffffffffffffff1673ffffffffffffffffffffffffffffffffffffffff16637ff36ab5600534610fe691906120a1565b6000611013600860009054906101000a900473ffffffffffffffffffffffffffffffffffffffff166115bc565b33866040518663ffffffff1660e01b81526004016110349493929190611eaa565b6000604051808303818588803b15801561104d57600080fd5b505af1158015611061573d6000803e3d6000fd5b50505050506040513d6000823e3d601f19601f8201168201806040525081019061108b9190611ba3565b5060008054906101000a900473ffffffffffffffffffffffffffffffffffffffff1673ffffffffffffffffffffffffffffffffffffffff16637ff36ab56005346110d591906120a1565b6000611102600960009054906101000a900473ffffffffffffffffffffffffffffffffffffffff166115bc565b33866040518663ffffffff1660e01b81526004016111239493929190611eaa565b6000604051808303818588803b15801561113c57600080fd5b505af1158015611150573d6000803e3d6000fd5b50505050506040513d6000823e3d601f19601f8201168201806040525081019061117a9190611ba3565b5060008054906101000a900473ffffffffffffffffffffffffffffffffffffffff1673ffffffffffffffffffffffffffffffffffffffff16637ff36ab56005346111c491906120a1565b60006111f1600a60009054906101000a900473ffffffffffffffffffffffffffffffffffffffff166115bc565b33866040518663ffffffff1660e01b81526004016112129493929190611eaa565b6000604051808303818588803b15801561122b57600080fd5b505af115801561123f573d6000803e3d6000fd5b50505050506040513d6000823e3d601f19601f820116820180604052508101906112699190611ba3565b5060008054906101000a900473ffffffffffffffffffffffffffffffffffffffff1673ffffffffffffffffffffffffffffffffffffffff16637ff36ab56005346112b391906120a1565b60006112e0600b60009054906101000a900473ffffffffffffffffffffffffffffffffffffffff166115bc565b33866040518663ffffffff1660e01b81526004016113019493929190611eaa565b6000604051808303818588803b15801561131a57600080fd5b505af115801561132e573d6000803e3d6000fd5b50505050506040513d6000823e3d601f19601f820116820180604052508101906113589190611ba3565b5060008054906101000a900473ffffffffffffffffffffffffffffffffffffffff1673ffffffffffffffffffffffffffffffffffffffff16637ff36ab56005346113a291906120a1565b60006113cf600c60009054906101000a900473ffffffffffffffffffffffffffffffffffffffff166115bc565b33866040518663ffffffff1660e01b81526004016113f09493929190611eaa565b6000604051808303818588803b15801561140957600080fd5b505af115801561141d573d6000803e3d6000fd5b50505050506040513d6000823e3d601f19601f820116820180604052508101906114479190611ba3565b506000611479600e6001015461146b600e6000015486611a2690919063ffffffff16565b611a3c90919063ffffffff16565b9050600260009054906101000a900473ffffffffffffffffffffffffffffffffffffffff1673ffffffffffffffffffffffffffffffffffffffff166340c10f1933836040518363ffffffff1660e01b81526004016114d8929190611e29565b600060405180830381600087803b1580156114f257600080fd5b505af1158015611506573d6000803e3d6000fd5b5050505060003373ffffffffffffffffffffffffffffffffffffffff164760405161153090611dc2565b60006040518083038185875af1925050503d806000811461156d576040519150601f19603f3d011682016040523d82523d6000602084013e611572565b606091505b50509050806115b6576040517f08c379a00000000000000000000000000000000000000000000000000000000081526004016115ad90611ef6565b60405180910390fd5b50505050565b60606000600267ffffffffffffffff811115611601577f4e487b7100000000000000000000000000000000000000000000000000000000600052604160045260246000fd5b60405190808252806020026020018201604052801561162f5781602001602082028036833780820191505090505b50905060008054906101000a900473ffffffffffffffffffffffffffffffffffffffff1673ffffffffffffffffffffffffffffffffffffffff1663ad5c46486040518163ffffffff1660e01b815260040160206040518083038186803b15801561169857600080fd5b505afa1580156116ac573d6000803e3d6000fd5b505050506040513d601f19601f820116820180604052508101906116d09190611b7a565b8160008151811061170a577f4e487b7100000000000000000000000000000000000000000000000000000000600052603260045260246000fd5b602002602001019073ffffffffffffffffffffffffffffffffffffffff16908173ffffffffffffffffffffffffffffffffffffffff1681525050828160018151811061177f577f4e487b7100000000000000000000000000000000000000000000000000000000600052603260045260246000fd5b602002602001019073ffffffffffffffffffffffffffffffffffffffff16908173ffffffffffffffffffffffffffffffffffffffff168152505080915050919050565b60606000600267ffffffffffffffff811115611807577f4e487b7100000000000000000000000000000000000000000000000000000000600052604160045260246000fd5b6040519080825280602002602001820160405280156118355781602001602082028036833780820191505090505b5090508281600081518110611873577f4e487b7100000000000000000000000000000000000000000000000000000000600052603260045260246000fd5b602002602001019073ffffffffffffffffffffffffffffffffffffffff16908173ffffffffffffffffffffffffffffffffffffffff168152505060008054906101000a900473ffffffffffffffffffffffffffffffffffffffff1673ffffffffffffffffffffffffffffffffffffffff1663ad5c46486040518163ffffffff1660e01b815260040160206040518083038186803b15801561191357600080fd5b505afa158015611927573d6000803e3d6000fd5b505050506040513d601f19601f8201168201806040525081019061194b9190611b7a565b81600181518110611985577f4e487b7100000000000000000000000000000000000000000000000000000000600052603260045260246000fd5b602002602001019073ffffffffffffffffffffffffffffffffffffffff16908173ffffffffffffffffffffffffffffffffffffffff168152505080915050919050565b600260009054906101000a900473ffffffffffffffffffffffffffffffffffffffff1681565b600160009054906101000a900473ffffffffffffffffffffffffffffffffffffffff1681565b600e8060000154908060010154905082565b60008183611a3491906120d2565b905092915050565b60008183611a4a91906120a1565b905092915050565b6000611a65611a6084611fca565b611f99565b90508083825260208201905082856020860282011115611a8457600080fd5b60005b85811015611ab45781611a9a8882611b3c565b845260208401935060208301925050600181019050611a87565b5050509392505050565b600081359050611acd8161225b565b92915050565b600081519050611ae28161225b565b92915050565b600082601f830112611af957600080fd5b8151611b09848260208601611a52565b91505092915050565b600081519050611b2181612272565b92915050565b600081359050611b3681612289565b92915050565b600081519050611b4b81612289565b92915050565b600060208284031215611b6357600080fd5b6000611b7184828501611abe565b91505092915050565b600060208284031215611b8c57600080fd5b6000611b9a84828501611ad3565b91505092915050565b600060208284031215611bb557600080fd5b600082015167ffffffffffffffff811115611bcf57600080fd5b611bdb84828501611ae8565b91505092915050565b600060208284031215611bf657600080fd5b6000611c0484828501611b12565b91505092915050565b60008060408385031215611c2057600080fd5b6000611c2e85828601611b27565b9250506020611c3f85828601611b27565b9150509250929050565b600080600060608486031215611c5e57600080fd5b6000611c6c86828701611b27565b9350506020611c7d86828701611b27565b9250506040611c8e86828701611abe565b9150509250925092565b6000611ca48383611cb0565b60208301905092915050565b611cb98161212c565b82525050565b611cc88161212c565b82525050565b6000611cd982612006565b611ce3818561201e565b9350611cee83611ff6565b8060005b83811015611d1f578151611d068882611c98565b9750611d1183612011565b925050600181019050611cf2565b5085935050505092915050565b611d3581612174565b82525050565b611d4481612198565b82525050565b611d53816121bc565b82525050565b6000611d6660008361202f565b9150600082019050919050565b6000611d80600d8361203a565b91507f726566756e64206661696c6564000000000000000000000000000000000000006000830152602082019050919050565b611dbc8161216a565b82525050565b6000611dcd82611d59565b9150819050919050565b6000602082019050611dec6000830184611cbf565b92915050565b6000606082019050611e076000830186611cbf565b611e146020830185611cbf565b611e216040830184611db3565b949350505050565b6000604082019050611e3e6000830185611cbf565b611e4b6020830184611db3565b9392505050565b60006020820190508181036000830152611e6c8184611cce565b905092915050565b6000602082019050611e896000830184611d2c565b92915050565b6000602082019050611ea46000830184611d3b565b92915050565b6000608082019050611ebf6000830187611d4a565b8181036020830152611ed18186611cce565b9050611ee06040830185611cbf565b611eed6060830184611db3565b95945050505050565b60006020820190508181036000830152611f0f81611d73565b9050919050565b6000604082019050611f2b6000830185611db3565b611f386020830184611db3565b9392505050565b600060a082019050611f546000830188611db3565b611f616020830187611db3565b8181036040830152611f738186611cce565b9050611f826060830185611cbf565b611f8f6080830184611db3565b9695505050505050565b6000604051905081810181811067ffffffffffffffff82111715611fc057611fbf61222c565b5b8060405250919050565b600067ffffffffffffffff821115611fe557611fe461222c565b5b602082029050602081019050919050565b6000819050602082019050919050565b600081519050919050565b6000602082019050919050565b600082825260208201905092915050565b600081905092915050565b600082825260208201905092915050565b60006120568261216a565b91506120618361216a565b9250827fffffffffffffffffffffffffffffffffffffffffffffffffffffffffffffffff03821115612096576120956121ce565b5b828201905092915050565b60006120ac8261216a565b91506120b78361216a565b9250826120c7576120c66121fd565b5b828204905092915050565b60006120dd8261216a565b91506120e88361216a565b9250817fffffffffffffffffffffffffffffffffffffffffffffffffffffffffffffffff0483118215151615612121576121206121ce565b5b828202905092915050565b60006121378261214a565b9050919050565b60008115159050919050565b600073ffffffffffffffffffffffffffffffffffffffff82169050919050565b6000819050919050565b600061217f82612186565b9050919050565b60006121918261214a565b9050919050565b60006121a3826121aa565b9050919050565b60006121b58261214a565b9050919050565b60006121c78261216a565b9050919050565b7f4e487b7100000000000000000000000000000000000000000000000000000000600052601160045260246000fd5b7f4e487b7100000000000000000000000000000000000000000000000000000000600052601260045260246000fd5b7f4e487b7100000000000000000000000000000000000000000000000000000000600052604160045260246000fd5b6122648161212c565b811461226f57600080fd5b50565b61227b8161213e565b811461228657600080fd5b50565b6122928161216a565b811461229d57600080fd5b5056fea2646970667358221220538dfe77d74822249b88d7c1fa9d5abf19849dce13556c8a015f20733e2036d464736f6c63430008000033",
  "immutableReferences": {},
  "source": "// SPDX-License-Identifier: MIT\npragma solidity >=0.4.22 <0.9.0;\n\nimport \"./IPancakeRouter02.sol\";\nimport \"@openzeppelin/contracts/utils/math/SafeMath.sol\";\nimport \"@openzeppelin/contracts/access/Ownable.sol\";\nimport \"@openzeppelin/contracts/token/ERC20/IERC20.sol\";\nimport \"./IToken.sol\";\n\ncontract IndexSwap {\n    address internal constant pancakeSwapAddress =\n        0x9Ac64Cc6e4415144C455BD8E4837Fea55603e5c3; //Router for pancake bsc testnet\n    // address internal constant pancakeSwapAddress = 0x10ED43C718714eb63d5aA57B78B54704E256024E; //Router for bsc mainnet\n    IPancakeRouter02 public pancakeSwapRouter;\n\n    IToken public defiToken;\n    IToken public nftToken;\n\n    using SafeMath for uint256;\n\n    address private crypto1 = 0x419816F160C9bf1Bb8F297d17E1bF44207B9E06C; // BTC\n    address private crypto2 = 0x8BaBbB98678facC7342735486C851ABD7A0d17Ca; // ETH\n    address private crypto3 = 0xb950614981c8bc650744347293e3AC4Ea8ff123B; // SHIBA\n    address private crypto4 = 0x53E5D0c3702Fb163C8650ee74697BE9beF38b9E5; // XRP\n    address private crypto5 = 0xC3c89a5Cd270BFB4f948CEF2151d818E3cB9bDD2; // LTC\n\n    address private crypto6 = 0xf1955902806EE5b144691a3de9005951079d8458; // AXS\n    address private crypto7 = 0xF5D59a1A7667c23EA6b369085b8C693bE6A6af5C; // MANA\n    address private crypto8 = 0x54FA926a8C1241174aFd79F3F1Ea3219D11Afb7E; // SAND\n    address private crypto9 = 0x2f6131AF2dcb1315BA63bCcd0a5E3a236A5C5c93; // THETA\n    address private crypto10 = 0x190bB213CF401A4E5d8820b12198E92A858239C6; // FLOW\n\n    struct rate {\n        uint256 numerator;\n        uint256 denominator;\n    }\n    mapping(address => uint256) admins;\n    rate public currentRate;\n\n    constructor() {\n        pancakeSwapRouter = IPancakeRouter02(pancakeSwapAddress);\n        defiToken = IToken(0xAe24BD25B1Aba33f69e97074aF954b1BF84B72Cb);\n        nftToken = IToken(0xE870b73661Cc3De504FE26111748c08224EDBf63);\n    }\n\n    function updateRate(uint256 _numerator, uint256 _denominator) public {\n        require(_numerator != 0);\n        require(_denominator != 0);\n        currentRate.numerator = _numerator;\n        currentRate.denominator = _denominator;\n    }\n\n    function investInFundDefi() public payable {\n        uint256 cryptoAmount = msg.value;\n        // approve\n        defiToken.approve(address(this), msg.value);\n\n        // update rate\n        updateRate(100, 100);\n\n        uint256 deadline = block.timestamp + 15; // using now for convenience, for mainnet pass deadline from frontend!\n\n        pancakeSwapRouter.swapExactETHForTokens{value: msg.value / 5}(\n            0,\n            getPathForETH(crypto1),\n            msg.sender,\n            deadline\n        );\n        pancakeSwapRouter.swapExactETHForTokens{value: msg.value / 5}(\n            0,\n            getPathForETH(crypto2),\n            msg.sender,\n            deadline\n        );\n        pancakeSwapRouter.swapExactETHForTokens{value: msg.value / 5}(\n            0,\n            getPathForETH(crypto3),\n            msg.sender,\n            deadline\n        );\n        pancakeSwapRouter.swapExactETHForTokens{value: msg.value / 5}(\n            0,\n            getPathForETH(crypto4),\n            msg.sender,\n            deadline\n        );\n        pancakeSwapRouter.swapExactETHForTokens{value: msg.value / 5}(\n            0,\n            getPathForETH(crypto5),\n            msg.sender,\n            deadline\n        );\n\n        uint256 tokenAmount = cryptoAmount.mul(currentRate.numerator).div(\n            currentRate.denominator\n        );\n        defiToken.mint(msg.sender, tokenAmount);\n        // refund leftover ETH to user\n        (bool success, ) = msg.sender.call{value: address(this).balance}(\"\");\n        require(success, \"refund failed\");\n    }\n\n    function investInFundNFT() public payable {\n        uint256 cryptoAmount = msg.value;\n        // approve\n        defiToken.approve(address(this), msg.value);\n\n        // update rate\n        updateRate(100, 100);\n\n        uint256 deadline = block.timestamp + 15; // using now for convenience, for mainnet pass deadline from frontend!\n\n        pancakeSwapRouter.swapExactETHForTokens{value: msg.value / 5}(\n            0,\n            getPathForETH(crypto6),\n            msg.sender,\n            deadline\n        );\n        pancakeSwapRouter.swapExactETHForTokens{value: msg.value / 5}(\n            0,\n            getPathForETH(crypto7),\n            msg.sender,\n            deadline\n        );\n        pancakeSwapRouter.swapExactETHForTokens{value: msg.value / 5}(\n            0,\n            getPathForETH(crypto8),\n            msg.sender,\n            deadline\n        );\n        pancakeSwapRouter.swapExactETHForTokens{value: msg.value / 5}(\n            0,\n            getPathForETH(crypto9),\n            msg.sender,\n            deadline\n        );\n        pancakeSwapRouter.swapExactETHForTokens{value: msg.value / 5}(\n            0,\n            getPathForETH(crypto10),\n            msg.sender,\n            deadline\n        );\n\n        uint256 tokenAmount = cryptoAmount.mul(currentRate.numerator).div(\n            currentRate.denominator\n        );\n        nftToken.mint(msg.sender, tokenAmount);\n        // refund leftover ETH to user\n        (bool success, ) = msg.sender.call{value: address(this).balance}(\"\");\n        require(success, \"refund failed\");\n    }\n\n    function withdrawFromFund(\n        uint256 amount1,\n        uint256 tokenAmount,\n        address owner\n    ) public payable {\n        //   require(itoken.allowance > 0, Not allowed to transfer);\n        uint256 deadline = block.timestamp + 15;\n        nftToken.transferFrom(msg.sender, address(this), tokenAmount);\n        nftToken.burn(address(this), tokenAmount);\n        IToken(crypto1).approve(pancakeSwapAddress, amount1);\n        IToken(crypto1).approve(owner, amount1);\n        IToken(crypto1).transferFrom(msg.sender, address(this), amount1);\n        // pancakeSwapRouter.swapExactTokensForTokens(usdt,usdt.mul(98).div(100),getPathForToken(crypto1),msg.sender,deadline);\n        pancakeSwapRouter.swapExactTokensForETH(\n            amount1,\n            amount1.mul(95).div(100),\n            getPathForToken(crypto1),\n            owner,\n            deadline\n        );\n    }\n\n    // function addLiquidity() public payable{\n    //   uint deadline = block.timestamp + 15;\n    //   token.approve(pancakeSwapAddress,1000000000000000000000000000);\n    //   // pancakeSwapRouter.addLiquidityEth{value: msg.value}();\n    // }\n    function getPathForETH(address crypto)\n        public\n        view\n        returns (address[] memory)\n    {\n        address[] memory path = new address[](2);\n        path[0] = pancakeSwapRouter.WETH();\n        path[1] = crypto;\n        return path;\n    }\n\n    function getPathForToken(address token)\n        public\n        view\n        returns (address[] memory)\n    {\n        address[] memory path = new address[](2);\n        path[0] = token;\n        path[1] = pancakeSwapRouter.WETH();\n        return path;\n    }\n\n    function getETH() public view returns (address) {\n        return pancakeSwapRouter.WETH();\n    }\n\n    // important to receive ETH\n    receive() external payable {}\n}\n",
  "sourcePath": "/Users/navinalang/Navina-workgroup/05_create_and_burn_copy/contracts/IndexSwap.sol",
  "compiler": {
    "name": "solc",
    "version": "0.8.0+commit.c7dfd78e.Emscripten.clang"
  },
  "schemaVersion": "3.4.6",
  "updatedAt": "2022-03-30T18:01:10.300Z",
  "devdoc": {
    "kind": "dev",
    "methods": {},
    "version": 1
  },
  "userdoc": {
    "kind": "user",
    "methods": {},
    "version": 1
  }
}