{
  "contractName": "IndexSwap",
  "abi": [
    {
      "inputs": [
        {
          "internalType": "address",
          "name": "_nftToken",
          "type": "address"
        },
        {
          "internalType": "address",
          "name": "_defiToken",
          "type": "address"
        }
      ],
      "stateMutability": "nonpayable",
      "type": "constructor"
    },
    {
      "inputs": [],
      "name": "currentRate",
      "outputs": [
        {
          "internalType": "uint256",
          "name": "numerator",
          "type": "uint256"
        },
        {
          "internalType": "uint256",
          "name": "denominator",
          "type": "uint256"
        }
      ],
      "stateMutability": "view",
      "type": "function"
    },
    {
      "inputs": [],
      "name": "defiToken",
      "outputs": [
        {
          "internalType": "contract IToken",
          "name": "",
          "type": "address"
        }
      ],
      "stateMutability": "view",
      "type": "function"
    },
    {
      "inputs": [],
      "name": "nftToken",
      "outputs": [
        {
          "internalType": "contract IToken",
          "name": "",
          "type": "address"
        }
      ],
      "stateMutability": "view",
      "type": "function"
    },
    {
      "inputs": [],
      "name": "pancakeSwapRouter",
      "outputs": [
        {
          "internalType": "contract IPancakeRouter02",
          "name": "",
          "type": "address"
        }
      ],
      "stateMutability": "view",
      "type": "function"
    },
    {
      "stateMutability": "payable",
      "type": "receive"
    },
    {
      "inputs": [
        {
          "internalType": "uint256",
          "name": "_numerator",
          "type": "uint256"
        },
        {
          "internalType": "uint256",
          "name": "_denominator",
          "type": "uint256"
        }
      ],
      "name": "updateRate",
      "outputs": [],
      "stateMutability": "nonpayable",
      "type": "function"
    },
    {
      "inputs": [],
      "name": "investInFundDeFi",
      "outputs": [],
      "stateMutability": "payable",
      "type": "function"
    },
    {
      "inputs": [],
      "name": "investInFundNFT",
      "outputs": [],
      "stateMutability": "payable",
      "type": "function"
    },
    {
      "inputs": [
        {
          "internalType": "uint256",
          "name": "amount",
          "type": "uint256"
        }
      ],
      "name": "withdrawFromFund",
      "outputs": [],
      "stateMutability": "payable",
      "type": "function"
    },
    {
      "inputs": [],
      "name": "addLiquidity",
      "outputs": [],
      "stateMutability": "payable",
      "type": "function"
    },
    {
      "inputs": [],
      "name": "swapTest",
      "outputs": [],
      "stateMutability": "payable",
      "type": "function"
    },
    {
      "inputs": [
        {
          "internalType": "address",
          "name": "crypto",
          "type": "address"
        }
      ],
      "name": "getPathForETH",
      "outputs": [
        {
          "internalType": "address[]",
          "name": "",
          "type": "address[]"
        }
      ],
      "stateMutability": "view",
      "type": "function"
    },
    {
      "inputs": [
        {
          "internalType": "address",
          "name": "token",
          "type": "address"
        }
      ],
      "name": "getPathForToken",
      "outputs": [
        {
          "internalType": "address[]",
          "name": "",
          "type": "address[]"
        }
      ],
      "stateMutability": "view",
      "type": "function"
    },
    {
      "inputs": [],
      "name": "getETH",
      "outputs": [
        {
          "internalType": "address",
          "name": "",
          "type": "address"
        }
      ],
      "stateMutability": "view",
      "type": "function"
    }
  ],
  "bytecode": "0x6080604052737ef95a0fee0dd31b22626fa2e10ee6a223f8a684600360006101000a81548173ffffffffffffffffffffffffffffffffffffffff021916908373ffffffffffffffffffffffffffffffffffffffff1602179055507378867bbeef44f2326bf8ddd1941a4439382ef2a7600460006101000a81548173ffffffffffffffffffffffffffffffffffffffff021916908373ffffffffffffffffffffffffffffffffffffffff160217905550738a9424745056eb399fd19a0ec26a14316684e274600560006101000a81548173ffffffffffffffffffffffffffffffffffffffff021916908373ffffffffffffffffffffffffffffffffffffffff1602179055503480156200011057600080fd5b506040516200217c3803806200217c83398181016040528101906200013691906200022b565b739ac64cc6e4415144c455bd8e4837fea55603e5c36000806101000a81548173ffffffffffffffffffffffffffffffffffffffff021916908373ffffffffffffffffffffffffffffffffffffffff16021790555081600160006101000a81548173ffffffffffffffffffffffffffffffffffffffff021916908373ffffffffffffffffffffffffffffffffffffffff16021790555080600260006101000a81548173ffffffffffffffffffffffffffffffffffffffff021916908373ffffffffffffffffffffffffffffffffffffffff1602179055505050620002ba565b6000815190506200022581620002a0565b92915050565b600080604083850312156200023f57600080fd5b60006200024f8582860162000214565b9250506020620002628582860162000214565b9150509250929050565b6000620002798262000280565b9050919050565b600073ffffffffffffffffffffffffffffffffffffffff82169050919050565b620002ab816200026c565b8114620002b757600080fd5b50565b611eb280620002ca6000396000f3fe6080604052600436106100c65760003560e01c8063b0849c1c1161007f578063d06fcba811610059578063d06fcba814610205578063e8078d9414610230578063ea987a1e1461023a578063f9f8bdb714610265576100cd565b8063b0849c1c1461016f578063bd386379146101ac578063ca0e7ed5146101c8576100cd565b806314f6c3be146100d2578063176e1c0d146100fd57806321e445aa146101075780632455899514610111578063405abb411461013c5780638149741c14610165576100cd565b366100cd57005b600080fd5b3480156100de57600080fd5b506100e7610291565b6040516100f491906119e4565b60405180910390f35b610105610337565b005b61010f610433565b005b34801561011d57600080fd5b50610126610960565b6040516101339190611aaa565b60405180910390f35b34801561014857600080fd5b50610163600480360381019061015e9190611869565b610984565b005b61016d6109b8565b005b34801561017b57600080fd5b5061019660048036038101906101919190611784565b610ee5565b6040516101a39190611a88565b60405180910390f35b6101c660048036038101906101c19190611840565b6110eb565b005b3480156101d457600080fd5b506101ef60048036038101906101ea9190611784565b611241565b6040516101fc9190611a88565b60405180910390f35b34801561021157600080fd5b5061021a611447565b6040516102279190611ac5565b60405180910390f35b61023861146d565b005b34801561024657600080fd5b5061024f611621565b60405161025c9190611ac5565b60405180910390f35b34801561027157600080fd5b5061027a611647565b604051610288929190611b4c565b60405180910390f35b60008060009054906101000a900473ffffffffffffffffffffffffffffffffffffffff1673ffffffffffffffffffffffffffffffffffffffff1663ad5c46486040518163ffffffff1660e01b815260040160206040518083038186803b1580156102fa57600080fd5b505afa15801561030e573d6000803e3d6000fd5b505050506040513d601f19601f8201168201806040525081019061033291906117ad565b905090565b60008054906101000a900473ffffffffffffffffffffffffffffffffffffffff1673ffffffffffffffffffffffffffffffffffffffff1663fb3bdb416003346103809190611c7d565b346103ac600360009054906101000a900473ffffffffffffffffffffffffffffffffffffffff16610ee5565b33601e426103ba9190611c27565b6040518663ffffffff1660e01b81526004016103d99493929190611b00565b6000604051808303818588803b1580156103f257600080fd5b505af1158015610406573d6000803e3d6000fd5b50505050506040513d6000823e3d601f19601f8201168201806040525081019061043091906117d6565b50565b600260009054906101000a900473ffffffffffffffffffffffffffffffffffffffff1673ffffffffffffffffffffffffffffffffffffffff1663095ea7b330346040518363ffffffff1660e01b8152600401610490929190611a5f565b602060405180830381600087803b1580156104aa57600080fd5b505af11580156104be573d6000803e3d6000fd5b505050506040513d601f19601f820116820180604052508101906104e29190611817565b506104ee606480610984565b6000600f426104fd9190611c27565b905060008054906101000a900473ffffffffffffffffffffffffffffffffffffffff1673ffffffffffffffffffffffffffffffffffffffff1663fb3bdb416003346105489190611c7d565b6003346105559190611c7d565b610580600360009054906101000a900473ffffffffffffffffffffffffffffffffffffffff16610ee5565b33866040518663ffffffff1660e01b81526004016105a19493929190611b00565b6000604051808303818588803b1580156105ba57600080fd5b505af11580156105ce573d6000803e3d6000fd5b50505050506040513d6000823e3d601f19601f820116820180604052508101906105f891906117d6565b5060008054906101000a900473ffffffffffffffffffffffffffffffffffffffff1673ffffffffffffffffffffffffffffffffffffffff1663fb3bdb416003346106429190611c7d565b60033461064f9190611c7d565b61067a600460009054906101000a900473ffffffffffffffffffffffffffffffffffffffff16610ee5565b33866040518663ffffffff1660e01b815260040161069b9493929190611b00565b6000604051808303818588803b1580156106b457600080fd5b505af11580156106c8573d6000803e3d6000fd5b50505050506040513d6000823e3d601f19601f820116820180604052508101906106f291906117d6565b5060008054906101000a900473ffffffffffffffffffffffffffffffffffffffff1673ffffffffffffffffffffffffffffffffffffffff1663fb3bdb4160033461073c9190611c7d565b6003346107499190611c7d565b610774600560009054906101000a900473ffffffffffffffffffffffffffffffffffffffff16610ee5565b33866040518663ffffffff1660e01b81526004016107959493929190611b00565b6000604051808303818588803b1580156107ae57600080fd5b505af11580156107c2573d6000803e3d6000fd5b50505050506040513d6000823e3d601f19601f820116820180604052508101906107ec91906117d6565b50600061081e6007600101546108106007600001543461165990919063ffffffff16565b61166f90919063ffffffff16565b9050600260009054906101000a900473ffffffffffffffffffffffffffffffffffffffff1673ffffffffffffffffffffffffffffffffffffffff166340c10f1933836040518363ffffffff1660e01b815260040161087d929190611a5f565b600060405180830381600087803b15801561089757600080fd5b505af11580156108ab573d6000803e3d6000fd5b5050505060003373ffffffffffffffffffffffffffffffffffffffff16476040516108d5906119cf565b60006040518083038185875af1925050503d8060008114610912576040519150601f19603f3d011682016040523d82523d6000602084013e610917565b606091505b505090508061095b576040517f08c379a000000000000000000000000000000000000000000000000000000000815260040161095290611ae0565b60405180910390fd5b505050565b60008054906101000a900473ffffffffffffffffffffffffffffffffffffffff1681565b600082141561099257600080fd5b60008114156109a057600080fd5b81600760000181905550806007600101819055505050565b600160009054906101000a900473ffffffffffffffffffffffffffffffffffffffff1673ffffffffffffffffffffffffffffffffffffffff1663095ea7b330346040518363ffffffff1660e01b8152600401610a15929190611a5f565b602060405180830381600087803b158015610a2f57600080fd5b505af1158015610a43573d6000803e3d6000fd5b505050506040513d601f19601f82011682018060405250810190610a679190611817565b50610a73606480610984565b6000600f42610a829190611c27565b905060008054906101000a900473ffffffffffffffffffffffffffffffffffffffff1673ffffffffffffffffffffffffffffffffffffffff1663fb3bdb41600334610acd9190611c7d565b600334610ada9190611c7d565b610b05600360009054906101000a900473ffffffffffffffffffffffffffffffffffffffff16610ee5565b33866040518663ffffffff1660e01b8152600401610b269493929190611b00565b6000604051808303818588803b158015610b3f57600080fd5b505af1158015610b53573d6000803e3d6000fd5b50505050506040513d6000823e3d601f19601f82011682018060405250810190610b7d91906117d6565b5060008054906101000a900473ffffffffffffffffffffffffffffffffffffffff1673ffffffffffffffffffffffffffffffffffffffff1663fb3bdb41600334610bc79190611c7d565b600334610bd49190611c7d565b610bff600460009054906101000a900473ffffffffffffffffffffffffffffffffffffffff16610ee5565b33866040518663ffffffff1660e01b8152600401610c209493929190611b00565b6000604051808303818588803b158015610c3957600080fd5b505af1158015610c4d573d6000803e3d6000fd5b50505050506040513d6000823e3d601f19601f82011682018060405250810190610c7791906117d6565b5060008054906101000a900473ffffffffffffffffffffffffffffffffffffffff1673ffffffffffffffffffffffffffffffffffffffff1663fb3bdb41600334610cc19190611c7d565b600334610cce9190611c7d565b610cf9600560009054906101000a900473ffffffffffffffffffffffffffffffffffffffff16610ee5565b33866040518663ffffffff1660e01b8152600401610d1a9493929190611b00565b6000604051808303818588803b158015610d3357600080fd5b505af1158015610d47573d6000803e3d6000fd5b50505050506040513d6000823e3d601f19601f82011682018060405250810190610d7191906117d6565b506000610da3600760010154610d956007600001543461165990919063ffffffff16565b61166f90919063ffffffff16565b9050600160009054906101000a900473ffffffffffffffffffffffffffffffffffffffff1673ffffffffffffffffffffffffffffffffffffffff166340c10f1933836040518363ffffffff1660e01b8152600401610e02929190611a5f565b600060405180830381600087803b158015610e1c57600080fd5b505af1158015610e30573d6000803e3d6000fd5b5050505060003373ffffffffffffffffffffffffffffffffffffffff1647604051610e5a906119cf565b60006040518083038185875af1925050503d8060008114610e97576040519150601f19603f3d011682016040523d82523d6000602084013e610e9c565b606091505b5050905080610ee0576040517f08c379a0000000000000000000000000000000000000000000000000000000008152600401610ed790611ae0565b60405180910390fd5b505050565b60606000600267ffffffffffffffff811115610f2a577f4e487b7100000000000000000000000000000000000000000000000000000000600052604160045260246000fd5b604051908082528060200260200182016040528015610f585781602001602082028036833780820191505090505b50905060008054906101000a900473ffffffffffffffffffffffffffffffffffffffff1673ffffffffffffffffffffffffffffffffffffffff1663ad5c46486040518163ffffffff1660e01b815260040160206040518083038186803b158015610fc157600080fd5b505afa158015610fd5573d6000803e3d6000fd5b505050506040513d601f19601f82011682018060405250810190610ff991906117ad565b81600081518110611033577f4e487b7100000000000000000000000000000000000000000000000000000000600052603260045260246000fd5b602002602001019073ffffffffffffffffffffffffffffffffffffffff16908173ffffffffffffffffffffffffffffffffffffffff168152505082816001815181106110a8577f4e487b7100000000000000000000000000000000000000000000000000000000600052603260045260246000fd5b602002602001019073ffffffffffffffffffffffffffffffffffffffff16908173ffffffffffffffffffffffffffffffffffffffff168152505080915050919050565b6000600f426110fa9190611c27565b9050600160009054906101000a900473ffffffffffffffffffffffffffffffffffffffff1673ffffffffffffffffffffffffffffffffffffffff166323b872dd3330856040518463ffffffff1660e01b815260040161115b939291906119ff565b602060405180830381600087803b15801561117557600080fd5b505af1158015611189573d6000803e3d6000fd5b505050506040513d601f19601f820116820180604052508101906111ad9190611817565b50600160009054906101000a900473ffffffffffffffffffffffffffffffffffffffff1673ffffffffffffffffffffffffffffffffffffffff16639dc29fac30846040518363ffffffff1660e01b815260040161120b929190611a5f565b600060405180830381600087803b15801561122557600080fd5b505af1158015611239573d6000803e3d6000fd5b505050505050565b60606000600267ffffffffffffffff811115611286577f4e487b7100000000000000000000000000000000000000000000000000000000600052604160045260246000fd5b6040519080825280602002602001820160405280156112b45781602001602082028036833780820191505090505b50905082816000815181106112f2577f4e487b7100000000000000000000000000000000000000000000000000000000600052603260045260246000fd5b602002602001019073ffffffffffffffffffffffffffffffffffffffff16908173ffffffffffffffffffffffffffffffffffffffff168152505060008054906101000a900473ffffffffffffffffffffffffffffffffffffffff1673ffffffffffffffffffffffffffffffffffffffff1663ad5c46486040518163ffffffff1660e01b815260040160206040518083038186803b15801561139257600080fd5b505afa1580156113a6573d6000803e3d6000fd5b505050506040513d601f19601f820116820180604052508101906113ca91906117ad565b81600181518110611404577f4e487b7100000000000000000000000000000000000000000000000000000000600052603260045260246000fd5b602002602001019073ffffffffffffffffffffffffffffffffffffffff16908173ffffffffffffffffffffffffffffffffffffffff168152505080915050919050565b600160009054906101000a900473ffffffffffffffffffffffffffffffffffffffff1681565b6000600f4261147c9190611c27565b9050600160009054906101000a900473ffffffffffffffffffffffffffffffffffffffff1673ffffffffffffffffffffffffffffffffffffffff1663095ea7b3739ac64cc6e4415144c455bd8e4837fea55603e5c36b033b2e3c9fd0803ce80000006040518363ffffffff1660e01b81526004016114fb929190611a36565b602060405180830381600087803b15801561151557600080fd5b505af1158015611529573d6000803e3d6000fd5b505050506040513d601f19601f8201168201806040525081019061154d9190611817565b50600260009054906101000a900473ffffffffffffffffffffffffffffffffffffffff1673ffffffffffffffffffffffffffffffffffffffff1663095ea7b3739ac64cc6e4415144c455bd8e4837fea55603e5c36b033b2e3c9fd0803ce80000006040518363ffffffff1660e01b81526004016115cb929190611a36565b602060405180830381600087803b1580156115e557600080fd5b505af11580156115f9573d6000803e3d6000fd5b505050506040513d601f19601f8201168201806040525081019061161d9190611817565b5050565b600260009054906101000a900473ffffffffffffffffffffffffffffffffffffffff1681565b60078060000154908060010154905082565b600081836116679190611cae565b905092915050565b6000818361167d9190611c7d565b905092915050565b600061169861169384611ba6565b611b75565b905080838252602082019050828560208602820111156116b757600080fd5b60005b858110156116e757816116cd888261176f565b8452602084019350602083019250506001810190506116ba565b5050509392505050565b60008135905061170081611e37565b92915050565b60008151905061171581611e37565b92915050565b600082601f83011261172c57600080fd5b815161173c848260208601611685565b91505092915050565b60008151905061175481611e4e565b92915050565b60008135905061176981611e65565b92915050565b60008151905061177e81611e65565b92915050565b60006020828403121561179657600080fd5b60006117a4848285016116f1565b91505092915050565b6000602082840312156117bf57600080fd5b60006117cd84828501611706565b91505092915050565b6000602082840312156117e857600080fd5b600082015167ffffffffffffffff81111561180257600080fd5b61180e8482850161171b565b91505092915050565b60006020828403121561182957600080fd5b600061183784828501611745565b91505092915050565b60006020828403121561185257600080fd5b60006118608482850161175a565b91505092915050565b6000806040838503121561187c57600080fd5b600061188a8582860161175a565b925050602061189b8582860161175a565b9150509250929050565b60006118b183836118bd565b60208301905092915050565b6118c681611d08565b82525050565b6118d581611d08565b82525050565b60006118e682611be2565b6118f08185611bfa565b93506118fb83611bd2565b8060005b8381101561192c57815161191388826118a5565b975061191e83611bed565b9250506001810190506118ff565b5085935050505092915050565b61194281611d50565b82525050565b61195181611d74565b82525050565b61196081611d98565b82525050565b6000611973600083611c0b565b9150600082019050919050565b600061198d600d83611c16565b91507f726566756e64206661696c6564000000000000000000000000000000000000006000830152602082019050919050565b6119c981611d46565b82525050565b60006119da82611966565b9150819050919050565b60006020820190506119f960008301846118cc565b92915050565b6000606082019050611a1460008301866118cc565b611a2160208301856118cc565b611a2e60408301846119c0565b949350505050565b6000604082019050611a4b60008301856118cc565b611a586020830184611957565b9392505050565b6000604082019050611a7460008301856118cc565b611a8160208301846119c0565b9392505050565b60006020820190508181036000830152611aa281846118db565b905092915050565b6000602082019050611abf6000830184611939565b92915050565b6000602082019050611ada6000830184611948565b92915050565b60006020820190508181036000830152611af981611980565b9050919050565b6000608082019050611b1560008301876119c0565b8181036020830152611b2781866118db565b9050611b3660408301856118cc565b611b4360608301846119c0565b95945050505050565b6000604082019050611b6160008301856119c0565b611b6e60208301846119c0565b9392505050565b6000604051905081810181811067ffffffffffffffff82111715611b9c57611b9b611e08565b5b8060405250919050565b600067ffffffffffffffff821115611bc157611bc0611e08565b5b602082029050602081019050919050565b6000819050602082019050919050565b600081519050919050565b6000602082019050919050565b600082825260208201905092915050565b600081905092915050565b600082825260208201905092915050565b6000611c3282611d46565b9150611c3d83611d46565b9250827fffffffffffffffffffffffffffffffffffffffffffffffffffffffffffffffff03821115611c7257611c71611daa565b5b828201905092915050565b6000611c8882611d46565b9150611c9383611d46565b925082611ca357611ca2611dd9565b5b828204905092915050565b6000611cb982611d46565b9150611cc483611d46565b9250817fffffffffffffffffffffffffffffffffffffffffffffffffffffffffffffffff0483118215151615611cfd57611cfc611daa565b5b828202905092915050565b6000611d1382611d26565b9050919050565b60008115159050919050565b600073ffffffffffffffffffffffffffffffffffffffff82169050919050565b6000819050919050565b6000611d5b82611d62565b9050919050565b6000611d6d82611d26565b9050919050565b6000611d7f82611d86565b9050919050565b6000611d9182611d26565b9050919050565b6000611da382611d46565b9050919050565b7f4e487b7100000000000000000000000000000000000000000000000000000000600052601160045260246000fd5b7f4e487b7100000000000000000000000000000000000000000000000000000000600052601260045260246000fd5b7f4e487b7100000000000000000000000000000000000000000000000000000000600052604160045260246000fd5b611e4081611d08565b8114611e4b57600080fd5b50565b611e5781611d1a565b8114611e6257600080fd5b50565b611e6e81611d46565b8114611e7957600080fd5b5056fea26469706673582212206911b1a47447927de3ef4a92501cc260f21a12d73d522ceb038988b6badbc00264736f6c63430008000033",
  "immutableReferences": {},
  "source": "// SPDX-License-Identifier: MIT\npragma solidity >=0.4.22 <0.9.0;\n\nimport \"./IPancakeRouter02.sol\";\nimport \"@openzeppelin/contracts/utils/math/SafeMath.sol\";\nimport \"@openzeppelin/contracts/access/Ownable.sol\";\nimport \"@openzeppelin/contracts/token/ERC20/IERC20.sol\";\nimport \"./IToken.sol\";\n\ncontract IndexSwap {\n    // TESTNET\n    address internal constant pancakeSwapAddress =\n        0x9Ac64Cc6e4415144C455BD8E4837Fea55603e5c3; //Router for pancake bsc testnet\n\n    /* \n    MAINNET\n    address internal constant pancakeSwapAddress = 0x10ED43C718714eb63d5aA57B78B54704E256024E;\n    */\n\n    IPancakeRouter02 public pancakeSwapRouter;\n    IToken public nftToken;\n    IToken public defiToken;\n    using SafeMath for uint256;\n\n    //  // Testnet address\n    address private crypto1 = 0x7ef95a0FEE0Dd31b22626fA2e10Ee6A223F8a684; // usdt\n    address private crypto2 = 0x78867BbEeF44f2326bF8DDd1941a4439382EF2A7; // busd\n    address private crypto3 = 0x8a9424745056Eb399FD19a0EC26A14316684e274; // dai\n    //   address private crypto4 = 0x8BaBbB98678facC7342735486C851ABD7A0d17Ca;\n    //   address private crypto5 = 0xDAcbdeCc2992a63390d108e8507B98c7E2B5584a;\n\n    // Mainnet Address\n    // address private crypto1 = 0x2170Ed0880ac9A755fd29B2688956BD959F933F8; //ETH\n    // address private crypto2 = 0x55d398326f99059fF775485246999027B3197955; //BUSD\n    // address private crypto3 = 0x1D2F0da169ceB9fC7B3144628dB156f3F6c60dBE; // XRP\n    //uint totalSum;\n\n    struct rate {\n        uint256 numerator;\n        uint256 denominator;\n    }\n    mapping(address => uint256) admins;\n    rate public currentRate;\n\n    constructor(address _nftToken, address _defiToken) {\n        pancakeSwapRouter = IPancakeRouter02(pancakeSwapAddress);\n        nftToken = IToken(_nftToken);\n        defiToken = IToken(_defiToken);\n    }\n\n    function updateRate(uint256 _numerator, uint256 _denominator) public {\n        require(_numerator != 0);\n        require(_denominator != 0);\n        currentRate.numerator = _numerator;\n        currentRate.denominator = _denominator;\n    }\n\n    function investInFundDeFi() public payable {\n        // approve\n        defiToken.approve(address(this), msg.value);\n\n        // update rate\n        updateRate(100, 100);\n\n        uint256 deadline = block.timestamp + 15; // using 'now' for convenience, for mainnet pass deadline from frontend!\n\n        pancakeSwapRouter.swapETHForExactTokens{value: msg.value / 3}(\n            msg.value / 3,\n            getPathForETH(crypto1),\n            msg.sender,\n            deadline\n        );\n        pancakeSwapRouter.swapETHForExactTokens{value: msg.value / 3}(\n            msg.value / 3,\n            getPathForETH(crypto2),\n            msg.sender,\n            deadline\n        );\n        pancakeSwapRouter.swapETHForExactTokens{value: msg.value / 3}(\n            msg.value / 3,\n            getPathForETH(crypto3),\n            msg.sender,\n            deadline\n        );\n\n        uint256 tokenAmount = msg.value.mul(currentRate.numerator).div(\n            currentRate.denominator\n        );\n        defiToken.mint(msg.sender, tokenAmount);\n        // refund leftover ETH to user\n        (bool success, ) = msg.sender.call{value: address(this).balance}(\"\");\n        require(success, \"refund failed\");\n    }\n\n    function investInFundNFT() public payable {\n        // approve\n        nftToken.approve(address(this), msg.value);\n\n        // update rate\n        updateRate(100, 100);\n\n        uint256 deadline = block.timestamp + 15; // using 'now' for convenience, for mainnet pass deadline from frontend!\n\n        pancakeSwapRouter.swapETHForExactTokens{value: msg.value / 3}(\n            msg.value / 3,\n            getPathForETH(crypto1),\n            msg.sender,\n            deadline\n        );\n        pancakeSwapRouter.swapETHForExactTokens{value: msg.value / 3}(\n            msg.value / 3,\n            getPathForETH(crypto2),\n            msg.sender,\n            deadline\n        );\n        pancakeSwapRouter.swapETHForExactTokens{value: msg.value / 3}(\n            msg.value / 3,\n            getPathForETH(crypto3),\n            msg.sender,\n            deadline\n        );\n\n        uint256 tokenAmount = msg.value.mul(currentRate.numerator).div(\n            currentRate.denominator\n        );\n        nftToken.mint(msg.sender, tokenAmount);\n        // refund leftover ETH to user\n        (bool success, ) = msg.sender.call{value: address(this).balance}(\"\");\n        require(success, \"refund failed\");\n    }\n\n    function withdrawFromFund(uint256 amount) public payable {\n        uint256 deadline = block.timestamp + 15;\n        nftToken.transferFrom(msg.sender, address(this), amount);\n        nftToken.burn(address(this), amount);\n    }\n\n    function addLiquidity() public payable {\n        uint256 deadline = block.timestamp + 15;\n        nftToken.approve(pancakeSwapAddress, 1000000000000000000000000000);\n        defiToken.approve(pancakeSwapAddress, 1000000000000000000000000000);\n        // pancakeSwapRouter.addLiquidityEth{value: msg.value}();\n    }\n\n    function swapTest() public payable {\n        pancakeSwapRouter.swapETHForExactTokens{value: msg.value / 3}(\n            msg.value,\n            getPathForETH(crypto1),\n            msg.sender,\n            block.timestamp + 30\n        );\n    }\n\n    function getPathForETH(address crypto)\n        public\n        view\n        returns (address[] memory)\n    {\n        address[] memory path = new address[](2);\n        path[0] = pancakeSwapRouter.WETH();\n        path[1] = crypto;\n        return path;\n    }\n\n    function getPathForToken(address token)\n        public\n        view\n        returns (address[] memory)\n    {\n        address[] memory path = new address[](2);\n        path[0] = token;\n        path[1] = pancakeSwapRouter.WETH();\n        return path;\n    }\n\n    function getETH() public view returns (address) {\n        return pancakeSwapRouter.WETH();\n    }\n\n    // important to receive ETH\n    receive() external payable {}\n}\n",
  "sourcePath": "/Users/navinalang/Navina-workgroup/05_create_and_burn_copy/contracts/IndexSwap.sol",
  "compiler": {
    "name": "solc",
    "version": "0.8.0+commit.c7dfd78e.Emscripten.clang"
  },
  "schemaVersion": "3.4.6",
  "updatedAt": "2022-03-29T12:23:06.675Z",
  "devdoc": {
    "kind": "dev",
    "methods": {},
    "version": 1
  },
  "userdoc": {
    "kind": "user",
    "methods": {},
    "version": 1
  }
}