{
  "contractName": "NFTPortfolio",
  "abi": [
    {
      "inputs": [],
      "stateMutability": "nonpayable",
      "type": "constructor"
    },
    {
      "inputs": [
        {
          "internalType": "address",
          "name": "",
          "type": "address"
        }
      ],
      "name": "axsBalance",
      "outputs": [
        {
          "internalType": "uint256",
          "name": "",
          "type": "uint256"
        }
      ],
      "stateMutability": "view",
      "type": "function"
    },
    {
      "inputs": [
        {
          "internalType": "address",
          "name": "",
          "type": "address"
        }
      ],
      "name": "chzBalance",
      "outputs": [
        {
          "internalType": "uint256",
          "name": "",
          "type": "uint256"
        }
      ],
      "stateMutability": "view",
      "type": "function"
    },
    {
      "inputs": [],
      "name": "currentRate",
      "outputs": [
        {
          "internalType": "uint256",
          "name": "numerator",
          "type": "uint256"
        },
        {
          "internalType": "uint256",
          "name": "denominator",
          "type": "uint256"
        }
      ],
      "stateMutability": "view",
      "type": "function"
    },
    {
      "inputs": [
        {
          "internalType": "address",
          "name": "",
          "type": "address"
        }
      ],
      "name": "enjBalance",
      "outputs": [
        {
          "internalType": "uint256",
          "name": "",
          "type": "uint256"
        }
      ],
      "stateMutability": "view",
      "type": "function"
    },
    {
      "inputs": [
        {
          "internalType": "address",
          "name": "",
          "type": "address"
        }
      ],
      "name": "flowalance",
      "outputs": [
        {
          "internalType": "uint256",
          "name": "",
          "type": "uint256"
        }
      ],
      "stateMutability": "view",
      "type": "function"
    },
    {
      "inputs": [
        {
          "internalType": "address",
          "name": "",
          "type": "address"
        }
      ],
      "name": "galaBalance",
      "outputs": [
        {
          "internalType": "uint256",
          "name": "",
          "type": "uint256"
        }
      ],
      "stateMutability": "view",
      "type": "function"
    },
    {
      "inputs": [
        {
          "internalType": "address",
          "name": "",
          "type": "address"
        }
      ],
      "name": "manaBalance",
      "outputs": [
        {
          "internalType": "uint256",
          "name": "",
          "type": "uint256"
        }
      ],
      "stateMutability": "view",
      "type": "function"
    },
    {
      "inputs": [],
      "name": "nftToken",
      "outputs": [
        {
          "internalType": "contract IToken",
          "name": "",
          "type": "address"
        }
      ],
      "stateMutability": "view",
      "type": "function"
    },
    {
      "inputs": [],
      "name": "pancakeSwapRouter",
      "outputs": [
        {
          "internalType": "contract IPancakeRouter02",
          "name": "",
          "type": "address"
        }
      ],
      "stateMutability": "view",
      "type": "function"
    },
    {
      "inputs": [
        {
          "internalType": "address",
          "name": "",
          "type": "address"
        }
      ],
      "name": "roseBalance",
      "outputs": [
        {
          "internalType": "uint256",
          "name": "",
          "type": "uint256"
        }
      ],
      "stateMutability": "view",
      "type": "function"
    },
    {
      "inputs": [
        {
          "internalType": "address",
          "name": "",
          "type": "address"
        }
      ],
      "name": "sandBalance",
      "outputs": [
        {
          "internalType": "uint256",
          "name": "",
          "type": "uint256"
        }
      ],
      "stateMutability": "view",
      "type": "function"
    },
    {
      "inputs": [
        {
          "internalType": "address",
          "name": "",
          "type": "address"
        }
      ],
      "name": "thetaBalance",
      "outputs": [
        {
          "internalType": "uint256",
          "name": "",
          "type": "uint256"
        }
      ],
      "stateMutability": "view",
      "type": "function"
    },
    {
      "inputs": [
        {
          "internalType": "address",
          "name": "",
          "type": "address"
        }
      ],
      "name": "xtzBalance",
      "outputs": [
        {
          "internalType": "uint256",
          "name": "",
          "type": "uint256"
        }
      ],
      "stateMutability": "view",
      "type": "function"
    },
    {
      "stateMutability": "payable",
      "type": "receive"
    },
    {
      "inputs": [
        {
          "internalType": "uint256",
          "name": "_numerator",
          "type": "uint256"
        },
        {
          "internalType": "uint256",
          "name": "_denominator",
          "type": "uint256"
        }
      ],
      "name": "updateRate",
      "outputs": [],
      "stateMutability": "nonpayable",
      "type": "function"
    },
    {
      "inputs": [
        {
          "internalType": "uint256",
          "name": "axs",
          "type": "uint256"
        },
        {
          "internalType": "uint256",
          "name": "mana",
          "type": "uint256"
        },
        {
          "internalType": "uint256",
          "name": "sand",
          "type": "uint256"
        },
        {
          "internalType": "uint256",
          "name": "theta",
          "type": "uint256"
        },
        {
          "internalType": "uint256",
          "name": "flow",
          "type": "uint256"
        },
        {
          "internalType": "uint256",
          "name": "xtz",
          "type": "uint256"
        },
        {
          "internalType": "uint256",
          "name": "gala",
          "type": "uint256"
        },
        {
          "internalType": "uint256",
          "name": "chz",
          "type": "uint256"
        },
        {
          "internalType": "uint256",
          "name": "enj",
          "type": "uint256"
        },
        {
          "internalType": "uint256",
          "name": "rose",
          "type": "uint256"
        },
        {
          "internalType": "address",
          "name": "user",
          "type": "address"
        }
      ],
      "name": "setUpDataNFT",
      "outputs": [],
      "stateMutability": "nonpayable",
      "type": "function"
    },
    {
      "inputs": [
        {
          "internalType": "uint256",
          "name": "axs",
          "type": "uint256"
        },
        {
          "internalType": "uint256",
          "name": "mana",
          "type": "uint256"
        },
        {
          "internalType": "uint256",
          "name": "sand",
          "type": "uint256"
        },
        {
          "internalType": "uint256",
          "name": "theta",
          "type": "uint256"
        },
        {
          "internalType": "uint256",
          "name": "flow",
          "type": "uint256"
        },
        {
          "internalType": "uint256",
          "name": "xtz",
          "type": "uint256"
        },
        {
          "internalType": "uint256",
          "name": "gala",
          "type": "uint256"
        },
        {
          "internalType": "uint256",
          "name": "chz",
          "type": "uint256"
        },
        {
          "internalType": "uint256",
          "name": "enj",
          "type": "uint256"
        },
        {
          "internalType": "uint256",
          "name": "rose",
          "type": "uint256"
        },
        {
          "internalType": "address",
          "name": "user",
          "type": "address"
        }
      ],
      "name": "editDataNFT",
      "outputs": [],
      "stateMutability": "nonpayable",
      "type": "function"
    },
    {
      "inputs": [],
      "name": "investInFundDefi",
      "outputs": [],
      "stateMutability": "payable",
      "type": "function"
    },
    {
      "inputs": [
        {
          "internalType": "uint256",
          "name": "tokenAmount",
          "type": "uint256"
        }
      ],
      "name": "withdrawFromFundNFT",
      "outputs": [],
      "stateMutability": "payable",
      "type": "function"
    },
    {
      "inputs": [
        {
          "internalType": "address",
          "name": "crypto",
          "type": "address"
        }
      ],
      "name": "getPathForETH",
      "outputs": [
        {
          "internalType": "address[]",
          "name": "",
          "type": "address[]"
        }
      ],
      "stateMutability": "view",
      "type": "function"
    },
    {
      "inputs": [
        {
          "internalType": "address",
          "name": "token",
          "type": "address"
        }
      ],
      "name": "getPathForToken",
      "outputs": [
        {
          "internalType": "address[]",
          "name": "",
          "type": "address[]"
        }
      ],
      "stateMutability": "view",
      "type": "function"
    },
    {
      "inputs": [],
      "name": "getETH",
      "outputs": [
        {
          "internalType": "address",
          "name": "",
          "type": "address"
        }
      ],
      "stateMutability": "view",
      "type": "function"
    }
  ],
  "bytecode": "0x6080604052736056773c28c258425cf9bc8ba5f86b8031863164600160006101000a81548173ffffffffffffffffffffffffffffffffffffffff021916908373ffffffffffffffffffffffffffffffffffffffff16021790555073f34d883ecde3238b153f38230987a0f4c221a48f600360006101000a81548173ffffffffffffffffffffffffffffffffffffffff021916908373ffffffffffffffffffffffffffffffffffffffff160217905550738bf2df0ff8528088475183a68678bd1cd7691b69600460006101000a81548173ffffffffffffffffffffffffffffffffffffffff021916908373ffffffffffffffffffffffffffffffffffffffff160217905550731631a54ac95ecb0085db6b8acf80c4cee72aeb06600560006101000a81548173ffffffffffffffffffffffffffffffffffffffff021916908373ffffffffffffffffffffffffffffffffffffffff1602179055507319a5e53ec7b385dbe2e587ba989ea2ab8f7eaf1e600660006101000a81548173ffffffffffffffffffffffffffffffffffffffff021916908373ffffffffffffffffffffffffffffffffffffffff16021790555073e5c48084e1974a971bd5df4d9b01dacca86d5567600760006101000a81548173ffffffffffffffffffffffffffffffffffffffff021916908373ffffffffffffffffffffffffffffffffffffffff16021790555073c5de9d5b0ba5b408a3e9530a1bc310d8f2dcc26a600860006101000a81548173ffffffffffffffffffffffffffffffffffffffff021916908373ffffffffffffffffffffffffffffffffffffffff160217905550734bf1ce8e4c4c86126e57fa9fc3f1a9631661641c600960006101000a81548173ffffffffffffffffffffffffffffffffffffffff021916908373ffffffffffffffffffffffffffffffffffffffff16021790555073deec6f0c22970b9b8a47069be619bfae646dee26600a60006101000a81548173ffffffffffffffffffffffffffffffffffffffff021916908373ffffffffffffffffffffffffffffffffffffffff16021790555073b08a1959f57b9cc8e5a5f1d329efd90ee3438f65600b60006101000a81548173ffffffffffffffffffffffffffffffffffffffff021916908373ffffffffffffffffffffffffffffffffffffffff1602179055507330c1ac77f4068a063648b549fff96ddb9d151325600c60006101000a81548173ffffffffffffffffffffffffffffffffffffffff021916908373ffffffffffffffffffffffffffffffffffffffff1602179055503480156103b757600080fd5b50739ac64cc6e4415144c455bd8e4837fea55603e5c36000806101000a81548173ffffffffffffffffffffffffffffffffffffffff021916908373ffffffffffffffffffffffffffffffffffffffff16021790555073817ea2a5fd281d15ca70b05abb5e094356c42996600260006101000a81548173ffffffffffffffffffffffffffffffffffffffff021916908373ffffffffffffffffffffffffffffffffffffffff16021790555061470f806104706000396000f3fe60806040526004361061012e5760003560e01c8063b0849c1c116100ab578063d1d563c71161006f578063d1d563c714610428578063d7c75bcc14610444578063de272c3314610481578063e6c5dd7c146104be578063f9f8bdb7146104fb578063fbf1a7dd1461052757610135565b8063b0849c1c1461031d578063ba2dcba81461035a578063c99b9a8a14610397578063ca0e7ed5146103c0578063d06fcba8146103fd57610135565b806324558995116100f25780632455899514610212578063405abb411461023d5780634278bdc3146102665780637dea0e11146102a35780639af4cf9c146102e057610135565b806305c122d81461013a57806310f5ca691461017757806314f6c3be146101b457806319effc68146101df5780631dc5745f146101e957610135565b3661013557005b600080fd5b34801561014657600080fd5b50610161600480360381019061015c9190613cdf565b610564565b60405161016e91906142c2565b60405180910390f35b34801561018357600080fd5b5061019e60048036038101906101999190613cdf565b61057c565b6040516101ab91906142c2565b60405180910390f35b3480156101c057600080fd5b506101c9610594565b6040516101d69190614143565b60405180910390f35b6101e761063a565b005b3480156101f557600080fd5b50610210600480360381019061020b9190613e00565b6115e9565b005b34801561021e57600080fd5b50610227611b82565b60405161023491906141e0565b60405180910390f35b34801561024957600080fd5b50610264600480360381019061025f9190613dc4565b611ba6565b005b34801561027257600080fd5b5061028d60048036038101906102889190613cdf565b611bda565b60405161029a91906142c2565b60405180910390f35b3480156102af57600080fd5b506102ca60048036038101906102c59190613cdf565b611bf2565b6040516102d791906142c2565b60405180910390f35b3480156102ec57600080fd5b5061030760048036038101906103029190613cdf565b611c0a565b60405161031491906142c2565b60405180910390f35b34801561032957600080fd5b50610344600480360381019061033f9190613cdf565b611c22565b60405161035191906141be565b60405180910390f35b34801561036657600080fd5b50610381600480360381019061037c9190613cdf565b611e28565b60405161038e91906142c2565b60405180910390f35b3480156103a357600080fd5b506103be60048036038101906103b99190613e00565b611e40565b005b3480156103cc57600080fd5b506103e760048036038101906103e29190613cdf565b6123d9565b6040516103f491906141be565b60405180910390f35b34801561040957600080fd5b506104126125df565b60405161041f91906141fb565b60405180910390f35b610442600480360381019061043d9190613d9b565b612605565b005b34801561045057600080fd5b5061046b60048036038101906104669190613cdf565b6138d3565b60405161047891906142c2565b60405180910390f35b34801561048d57600080fd5b506104a860048036038101906104a39190613cdf565b6138eb565b6040516104b591906142c2565b60405180910390f35b3480156104ca57600080fd5b506104e560048036038101906104e09190613cdf565b613903565b6040516104f291906142c2565b60405180910390f35b34801561050757600080fd5b5061051061391b565b60405161051e929190614337565b60405180910390f35b34801561053357600080fd5b5061054e60048036038101906105499190613cdf565b61392d565b60405161055b91906142c2565b60405180910390f35b60126020528060005260406000206000915090505481565b60146020528060005260406000206000915090505481565b60008060009054906101000a900473ffffffffffffffffffffffffffffffffffffffff1673ffffffffffffffffffffffffffffffffffffffff1663ad5c46486040518163ffffffff1660e01b815260040160206040518083038186803b1580156105fd57600080fd5b505afa158015610611573d6000803e3d6000fd5b505050506040513d601f19601f820116820180604052508101906106359190613d08565b905090565b600260009054906101000a900473ffffffffffffffffffffffffffffffffffffffff1673ffffffffffffffffffffffffffffffffffffffff1663095ea7b330346040518363ffffffff1660e01b8152600401610697929190614195565b602060405180830381600087803b1580156106b157600080fd5b505af11580156106c5573d6000803e3d6000fd5b505050506040513d601f19601f820116820180604052508101906106e99190613d72565b506106f5606480611ba6565b6060806060806060806060806060806000600f42610713919061441d565b905060008054906101000a900473ffffffffffffffffffffffffffffffffffffffff1673ffffffffffffffffffffffffffffffffffffffff16637ff36ab5600a3461075e9190614473565b600061078b600360009054906101000a900473ffffffffffffffffffffffffffffffffffffffff16611c22565b600160009054906101000a900473ffffffffffffffffffffffffffffffffffffffff16866040518663ffffffff1660e01b81526004016107ce9493929190614216565b6000604051808303818588803b1580156107e757600080fd5b505af11580156107fb573d6000803e3d6000fd5b50505050506040513d6000823e3d601f19601f820116820180604052508101906108259190613d31565b9a5060008054906101000a900473ffffffffffffffffffffffffffffffffffffffff1673ffffffffffffffffffffffffffffffffffffffff16637ff36ab5600a346108709190614473565b600061089d600460009054906101000a900473ffffffffffffffffffffffffffffffffffffffff16611c22565b600160009054906101000a900473ffffffffffffffffffffffffffffffffffffffff16866040518663ffffffff1660e01b81526004016108e09493929190614216565b6000604051808303818588803b1580156108f957600080fd5b505af115801561090d573d6000803e3d6000fd5b50505050506040513d6000823e3d601f19601f820116820180604052508101906109379190613d31565b995060008054906101000a900473ffffffffffffffffffffffffffffffffffffffff1673ffffffffffffffffffffffffffffffffffffffff16637ff36ab5600a346109829190614473565b60006109af600560009054906101000a900473ffffffffffffffffffffffffffffffffffffffff16611c22565b600160009054906101000a900473ffffffffffffffffffffffffffffffffffffffff16866040518663ffffffff1660e01b81526004016109f29493929190614216565b6000604051808303818588803b158015610a0b57600080fd5b505af1158015610a1f573d6000803e3d6000fd5b50505050506040513d6000823e3d601f19601f82011682018060405250810190610a499190613d31565b985060008054906101000a900473ffffffffffffffffffffffffffffffffffffffff1673ffffffffffffffffffffffffffffffffffffffff16637ff36ab5600a34610a949190614473565b6000610ac1600660009054906101000a900473ffffffffffffffffffffffffffffffffffffffff16611c22565b600160009054906101000a900473ffffffffffffffffffffffffffffffffffffffff16866040518663ffffffff1660e01b8152600401610b049493929190614216565b6000604051808303818588803b158015610b1d57600080fd5b505af1158015610b31573d6000803e3d6000fd5b50505050506040513d6000823e3d601f19601f82011682018060405250810190610b5b9190613d31565b975060008054906101000a900473ffffffffffffffffffffffffffffffffffffffff1673ffffffffffffffffffffffffffffffffffffffff16637ff36ab5600a34610ba69190614473565b6000610bd3600760009054906101000a900473ffffffffffffffffffffffffffffffffffffffff16611c22565b600160009054906101000a900473ffffffffffffffffffffffffffffffffffffffff16866040518663ffffffff1660e01b8152600401610c169493929190614216565b6000604051808303818588803b158015610c2f57600080fd5b505af1158015610c43573d6000803e3d6000fd5b50505050506040513d6000823e3d601f19601f82011682018060405250810190610c6d9190613d31565b965060008054906101000a900473ffffffffffffffffffffffffffffffffffffffff1673ffffffffffffffffffffffffffffffffffffffff16637ff36ab5600a34610cb89190614473565b6000610ce5600860009054906101000a900473ffffffffffffffffffffffffffffffffffffffff16611c22565b600160009054906101000a900473ffffffffffffffffffffffffffffffffffffffff16866040518663ffffffff1660e01b8152600401610d289493929190614216565b6000604051808303818588803b158015610d4157600080fd5b505af1158015610d55573d6000803e3d6000fd5b50505050506040513d6000823e3d601f19601f82011682018060405250810190610d7f9190613d31565b955060008054906101000a900473ffffffffffffffffffffffffffffffffffffffff1673ffffffffffffffffffffffffffffffffffffffff16637ff36ab5600a34610dca9190614473565b6000610df7600960009054906101000a900473ffffffffffffffffffffffffffffffffffffffff16611c22565b600160009054906101000a900473ffffffffffffffffffffffffffffffffffffffff16866040518663ffffffff1660e01b8152600401610e3a9493929190614216565b6000604051808303818588803b158015610e5357600080fd5b505af1158015610e67573d6000803e3d6000fd5b50505050506040513d6000823e3d601f19601f82011682018060405250810190610e919190613d31565b945060008054906101000a900473ffffffffffffffffffffffffffffffffffffffff1673ffffffffffffffffffffffffffffffffffffffff16637ff36ab5600a34610edc9190614473565b6000610f09600a60009054906101000a900473ffffffffffffffffffffffffffffffffffffffff16611c22565b600160009054906101000a900473ffffffffffffffffffffffffffffffffffffffff16866040518663ffffffff1660e01b8152600401610f4c9493929190614216565b6000604051808303818588803b158015610f6557600080fd5b505af1158015610f79573d6000803e3d6000fd5b50505050506040513d6000823e3d601f19601f82011682018060405250810190610fa39190613d31565b935060008054906101000a900473ffffffffffffffffffffffffffffffffffffffff1673ffffffffffffffffffffffffffffffffffffffff16637ff36ab5600a34610fee9190614473565b600061101b600b60009054906101000a900473ffffffffffffffffffffffffffffffffffffffff16611c22565b600160009054906101000a900473ffffffffffffffffffffffffffffffffffffffff16866040518663ffffffff1660e01b815260040161105e9493929190614216565b6000604051808303818588803b15801561107757600080fd5b505af115801561108b573d6000803e3d6000fd5b50505050506040513d6000823e3d601f19601f820116820180604052508101906110b59190613d31565b925060008054906101000a900473ffffffffffffffffffffffffffffffffffffffff1673ffffffffffffffffffffffffffffffffffffffff16637ff36ab5600a346111009190614473565b600061112d600c60009054906101000a900473ffffffffffffffffffffffffffffffffffffffff16611c22565b600160009054906101000a900473ffffffffffffffffffffffffffffffffffffffff16866040518663ffffffff1660e01b81526004016111709493929190614216565b6000604051808303818588803b15801561118957600080fd5b505af115801561119d573d6000803e3d6000fd5b50505050506040513d6000823e3d601f19601f820116820180604052508101906111c79190613d31565b91506114668b600181518110611206577f4e487b7100000000000000000000000000000000000000000000000000000000600052603260045260246000fd5b60200260200101518b600181518110611248577f4e487b7100000000000000000000000000000000000000000000000000000000600052603260045260246000fd5b60200260200101518b60018151811061128a577f4e487b7100000000000000000000000000000000000000000000000000000000600052603260045260246000fd5b60200260200101518b6001815181106112cc577f4e487b7100000000000000000000000000000000000000000000000000000000600052603260045260246000fd5b60200260200101518b60018151811061130e577f4e487b7100000000000000000000000000000000000000000000000000000000600052603260045260246000fd5b60200260200101518b600181518110611350577f4e487b7100000000000000000000000000000000000000000000000000000000600052603260045260246000fd5b60200260200101518b600181518110611392577f4e487b7100000000000000000000000000000000000000000000000000000000600052603260045260246000fd5b60200260200101518b6001815181106113d4577f4e487b7100000000000000000000000000000000000000000000000000000000600052603260045260246000fd5b60200260200101518b600181518110611416577f4e487b7100000000000000000000000000000000000000000000000000000000600052603260045260246000fd5b60200260200101518b600181518110611458577f4e487b7100000000000000000000000000000000000000000000000000000000600052603260045260246000fd5b602002602001015133611e40565b6000349050600061149c60186001015461148e6018600001548561394590919063ffffffff16565b61395b90919063ffffffff16565b9050600260009054906101000a900473ffffffffffffffffffffffffffffffffffffffff1673ffffffffffffffffffffffffffffffffffffffff166340c10f1933836040518363ffffffff1660e01b81526004016114fb929190614195565b600060405180830381600087803b15801561151557600080fd5b505af1158015611529573d6000803e3d6000fd5b5050505060003373ffffffffffffffffffffffffffffffffffffffff16476040516115539061412e565b60006040518083038185875af1925050503d8060008114611590576040519150601f19603f3d011682016040523d82523d6000602084013e611595565b606091505b50509050806115d9576040517f08c379a00000000000000000000000000000000000000000000000000000000081526004016115d0906142a2565b60405180910390fd5b5050505050505050505050505050565b8a600d60008373ffffffffffffffffffffffffffffffffffffffff1673ffffffffffffffffffffffffffffffffffffffff1681526020019081526020016000205461163491906144fe565b600d60008373ffffffffffffffffffffffffffffffffffffffff1673ffffffffffffffffffffffffffffffffffffffff1681526020019081526020016000208190555089600e60008373ffffffffffffffffffffffffffffffffffffffff1673ffffffffffffffffffffffffffffffffffffffff168152602001908152602001600020546116c291906144fe565b600e60008373ffffffffffffffffffffffffffffffffffffffff1673ffffffffffffffffffffffffffffffffffffffff1681526020019081526020016000208190555088600f60008373ffffffffffffffffffffffffffffffffffffffff1673ffffffffffffffffffffffffffffffffffffffff1681526020019081526020016000205461175091906144fe565b600f60008373ffffffffffffffffffffffffffffffffffffffff1673ffffffffffffffffffffffffffffffffffffffff1681526020019081526020016000208190555087601060008373ffffffffffffffffffffffffffffffffffffffff1673ffffffffffffffffffffffffffffffffffffffff168152602001908152602001600020546117de91906144fe565b601060008373ffffffffffffffffffffffffffffffffffffffff1673ffffffffffffffffffffffffffffffffffffffff1681526020019081526020016000208190555086601160008373ffffffffffffffffffffffffffffffffffffffff1673ffffffffffffffffffffffffffffffffffffffff1681526020019081526020016000205461186c91906144fe565b601160008373ffffffffffffffffffffffffffffffffffffffff1673ffffffffffffffffffffffffffffffffffffffff1681526020019081526020016000208190555085601260008373ffffffffffffffffffffffffffffffffffffffff1673ffffffffffffffffffffffffffffffffffffffff168152602001908152602001600020546118fa91906144fe565b601260008373ffffffffffffffffffffffffffffffffffffffff1673ffffffffffffffffffffffffffffffffffffffff1681526020019081526020016000208190555084601360008373ffffffffffffffffffffffffffffffffffffffff1673ffffffffffffffffffffffffffffffffffffffff1681526020019081526020016000205461198891906144fe565b601360008373ffffffffffffffffffffffffffffffffffffffff1673ffffffffffffffffffffffffffffffffffffffff1681526020019081526020016000208190555083601460008373ffffffffffffffffffffffffffffffffffffffff1673ffffffffffffffffffffffffffffffffffffffff16815260200190815260200160002054611a1691906144fe565b601460008373ffffffffffffffffffffffffffffffffffffffff1673ffffffffffffffffffffffffffffffffffffffff1681526020019081526020016000208190555082601560008373ffffffffffffffffffffffffffffffffffffffff1673ffffffffffffffffffffffffffffffffffffffff16815260200190815260200160002054611aa491906144fe565b601560008373ffffffffffffffffffffffffffffffffffffffff1673ffffffffffffffffffffffffffffffffffffffff1681526020019081526020016000208190555081601660008373ffffffffffffffffffffffffffffffffffffffff1673ffffffffffffffffffffffffffffffffffffffff16815260200190815260200160002054611b3291906144fe565b601660008373ffffffffffffffffffffffffffffffffffffffff1673ffffffffffffffffffffffffffffffffffffffff168152602001908152602001600020819055505050505050505050505050565b60008054906101000a900473ffffffffffffffffffffffffffffffffffffffff1681565b6000821415611bb457600080fd5b6000811415611bc257600080fd5b81601860000181905550806018600101819055505050565b60116020528060005260406000206000915090505481565b60156020528060005260406000206000915090505481565b600f6020528060005260406000206000915090505481565b60606000600267ffffffffffffffff811115611c67577f4e487b7100000000000000000000000000000000000000000000000000000000600052604160045260246000fd5b604051908082528060200260200182016040528015611c955781602001602082028036833780820191505090505b50905060008054906101000a900473ffffffffffffffffffffffffffffffffffffffff1673ffffffffffffffffffffffffffffffffffffffff1663ad5c46486040518163ffffffff1660e01b815260040160206040518083038186803b158015611cfe57600080fd5b505afa158015611d12573d6000803e3d6000fd5b505050506040513d601f19601f82011682018060405250810190611d369190613d08565b81600081518110611d70577f4e487b7100000000000000000000000000000000000000000000000000000000600052603260045260246000fd5b602002602001019073ffffffffffffffffffffffffffffffffffffffff16908173ffffffffffffffffffffffffffffffffffffffff16815250508281600181518110611de5577f4e487b7100000000000000000000000000000000000000000000000000000000600052603260045260246000fd5b602002602001019073ffffffffffffffffffffffffffffffffffffffff16908173ffffffffffffffffffffffffffffffffffffffff168152505080915050919050565b600e6020528060005260406000206000915090505481565b8a600d60008373ffffffffffffffffffffffffffffffffffffffff1673ffffffffffffffffffffffffffffffffffffffff16815260200190815260200160002054611e8b919061441d565b600d60008373ffffffffffffffffffffffffffffffffffffffff1673ffffffffffffffffffffffffffffffffffffffff1681526020019081526020016000208190555089600e60008373ffffffffffffffffffffffffffffffffffffffff1673ffffffffffffffffffffffffffffffffffffffff16815260200190815260200160002054611f19919061441d565b600e60008373ffffffffffffffffffffffffffffffffffffffff1673ffffffffffffffffffffffffffffffffffffffff1681526020019081526020016000208190555088600f60008373ffffffffffffffffffffffffffffffffffffffff1673ffffffffffffffffffffffffffffffffffffffff16815260200190815260200160002054611fa7919061441d565b600f60008373ffffffffffffffffffffffffffffffffffffffff1673ffffffffffffffffffffffffffffffffffffffff1681526020019081526020016000208190555087601060008373ffffffffffffffffffffffffffffffffffffffff1673ffffffffffffffffffffffffffffffffffffffff16815260200190815260200160002054612035919061441d565b601060008373ffffffffffffffffffffffffffffffffffffffff1673ffffffffffffffffffffffffffffffffffffffff1681526020019081526020016000208190555086601160008373ffffffffffffffffffffffffffffffffffffffff1673ffffffffffffffffffffffffffffffffffffffff168152602001908152602001600020546120c3919061441d565b601160008373ffffffffffffffffffffffffffffffffffffffff1673ffffffffffffffffffffffffffffffffffffffff1681526020019081526020016000208190555085601260008373ffffffffffffffffffffffffffffffffffffffff1673ffffffffffffffffffffffffffffffffffffffff16815260200190815260200160002054612151919061441d565b601260008373ffffffffffffffffffffffffffffffffffffffff1673ffffffffffffffffffffffffffffffffffffffff1681526020019081526020016000208190555084601360008373ffffffffffffffffffffffffffffffffffffffff1673ffffffffffffffffffffffffffffffffffffffff168152602001908152602001600020546121df919061441d565b601360008373ffffffffffffffffffffffffffffffffffffffff1673ffffffffffffffffffffffffffffffffffffffff1681526020019081526020016000208190555083601460008373ffffffffffffffffffffffffffffffffffffffff1673ffffffffffffffffffffffffffffffffffffffff1681526020019081526020016000205461226d919061441d565b601460008373ffffffffffffffffffffffffffffffffffffffff1673ffffffffffffffffffffffffffffffffffffffff1681526020019081526020016000208190555082601560008373ffffffffffffffffffffffffffffffffffffffff1673ffffffffffffffffffffffffffffffffffffffff168152602001908152602001600020546122fb919061441d565b601560008373ffffffffffffffffffffffffffffffffffffffff1673ffffffffffffffffffffffffffffffffffffffff1681526020019081526020016000208190555081601660008373ffffffffffffffffffffffffffffffffffffffff1673ffffffffffffffffffffffffffffffffffffffff16815260200190815260200160002054612389919061441d565b601660008373ffffffffffffffffffffffffffffffffffffffff1673ffffffffffffffffffffffffffffffffffffffff168152602001908152602001600020819055505050505050505050505050565b60606000600267ffffffffffffffff81111561241e577f4e487b7100000000000000000000000000000000000000000000000000000000600052604160045260246000fd5b60405190808252806020026020018201604052801561244c5781602001602082028036833780820191505090505b509050828160008151811061248a577f4e487b7100000000000000000000000000000000000000000000000000000000600052603260045260246000fd5b602002602001019073ffffffffffffffffffffffffffffffffffffffff16908173ffffffffffffffffffffffffffffffffffffffff168152505060008054906101000a900473ffffffffffffffffffffffffffffffffffffffff1673ffffffffffffffffffffffffffffffffffffffff1663ad5c46486040518163ffffffff1660e01b815260040160206040518083038186803b15801561252a57600080fd5b505afa15801561253e573d6000803e3d6000fd5b505050506040513d601f19601f820116820180604052508101906125629190613d08565b8160018151811061259c577f4e487b7100000000000000000000000000000000000000000000000000000000600052603260045260246000fd5b602002602001019073ffffffffffffffffffffffffffffffffffffffff16908173ffffffffffffffffffffffffffffffffffffffff168152505080915050919050565b600260009054906101000a900473ffffffffffffffffffffffffffffffffffffffff1681565b6000600d60003373ffffffffffffffffffffffffffffffffffffffff1673ffffffffffffffffffffffffffffffffffffffff1681526020019081526020016000205490506000600e60003373ffffffffffffffffffffffffffffffffffffffff1673ffffffffffffffffffffffffffffffffffffffff1681526020019081526020016000205490506000600f60003373ffffffffffffffffffffffffffffffffffffffff1673ffffffffffffffffffffffffffffffffffffffff1681526020019081526020016000205490506000601060003373ffffffffffffffffffffffffffffffffffffffff1673ffffffffffffffffffffffffffffffffffffffff1681526020019081526020016000205490506000601160003373ffffffffffffffffffffffffffffffffffffffff1673ffffffffffffffffffffffffffffffffffffffff1681526020019081526020016000205490506000601260003373ffffffffffffffffffffffffffffffffffffffff1673ffffffffffffffffffffffffffffffffffffffff1681526020019081526020016000205490506000601360003373ffffffffffffffffffffffffffffffffffffffff1673ffffffffffffffffffffffffffffffffffffffff1681526020019081526020016000205490506000601460003373ffffffffffffffffffffffffffffffffffffffff1673ffffffffffffffffffffffffffffffffffffffff1681526020019081526020016000205490506000601560003373ffffffffffffffffffffffffffffffffffffffff1673ffffffffffffffffffffffffffffffffffffffff1681526020019081526020016000205490506000601660003373ffffffffffffffffffffffffffffffffffffffff1673ffffffffffffffffffffffffffffffffffffffff1681526020019081526020016000205490506128db600260009054906101000a900473ffffffffffffffffffffffffffffffffffffffff1633308e613971565b612908600260009054906101000a900473ffffffffffffffffffffffffffffffffffffffff16308d613aaa565b600260009054906101000a900473ffffffffffffffffffffffffffffffffffffffff1673ffffffffffffffffffffffffffffffffffffffff16639dc29fac308d6040518363ffffffff1660e01b8152600401612965929190614195565b600060405180830381600087803b15801561297f57600080fd5b505af1158015612993573d6000803e3d6000fd5b505050506129e7600360009054906101000a900473ffffffffffffffffffffffffffffffffffffffff16600160009054906101000a900473ffffffffffffffffffffffffffffffffffffffff16308d613971565b612a34600360009054906101000a900473ffffffffffffffffffffffffffffffffffffffff1660008054906101000a900473ffffffffffffffffffffffffffffffffffffffff168c613aaa565b612a84600460009054906101000a900473ffffffffffffffffffffffffffffffffffffffff16600160009054906101000a900473ffffffffffffffffffffffffffffffffffffffff16308c613971565b612ad1600460009054906101000a900473ffffffffffffffffffffffffffffffffffffffff1660008054906101000a900473ffffffffffffffffffffffffffffffffffffffff168b613aaa565b612b21600560009054906101000a900473ffffffffffffffffffffffffffffffffffffffff16600160009054906101000a900473ffffffffffffffffffffffffffffffffffffffff16308b613971565b612b6e600560009054906101000a900473ffffffffffffffffffffffffffffffffffffffff1660008054906101000a900473ffffffffffffffffffffffffffffffffffffffff168a613aaa565b612bbe600660009054906101000a900473ffffffffffffffffffffffffffffffffffffffff16600160009054906101000a900473ffffffffffffffffffffffffffffffffffffffff16308a613971565b612c0b600660009054906101000a900473ffffffffffffffffffffffffffffffffffffffff1660008054906101000a900473ffffffffffffffffffffffffffffffffffffffff1689613aaa565b612c5b600760009054906101000a900473ffffffffffffffffffffffffffffffffffffffff16600160009054906101000a900473ffffffffffffffffffffffffffffffffffffffff163089613971565b612ca8600760009054906101000a900473ffffffffffffffffffffffffffffffffffffffff1660008054906101000a900473ffffffffffffffffffffffffffffffffffffffff1687613aaa565b612cf8600860009054906101000a900473ffffffffffffffffffffffffffffffffffffffff16600160009054906101000a900473ffffffffffffffffffffffffffffffffffffffff163088613971565b612d45600860009054906101000a900473ffffffffffffffffffffffffffffffffffffffff1660008054906101000a900473ffffffffffffffffffffffffffffffffffffffff1687613aaa565b612d95600960009054906101000a900473ffffffffffffffffffffffffffffffffffffffff16600160009054906101000a900473ffffffffffffffffffffffffffffffffffffffff163087613971565b612de2600960009054906101000a900473ffffffffffffffffffffffffffffffffffffffff1660008054906101000a900473ffffffffffffffffffffffffffffffffffffffff1686613aaa565b612e32600a60009054906101000a900473ffffffffffffffffffffffffffffffffffffffff16600160009054906101000a900473ffffffffffffffffffffffffffffffffffffffff163086613971565b612e7f600a60009054906101000a900473ffffffffffffffffffffffffffffffffffffffff1660008054906101000a900473ffffffffffffffffffffffffffffffffffffffff1685613aaa565b612ecf600b60009054906101000a900473ffffffffffffffffffffffffffffffffffffffff16600160009054906101000a900473ffffffffffffffffffffffffffffffffffffffff163085613971565b612f1c600b60009054906101000a900473ffffffffffffffffffffffffffffffffffffffff1660008054906101000a900473ffffffffffffffffffffffffffffffffffffffff1684613aaa565b612f6c600c60009054906101000a900473ffffffffffffffffffffffffffffffffffffffff16600160009054906101000a900473ffffffffffffffffffffffffffffffffffffffff163084613971565b612fb9600c60009054906101000a900473ffffffffffffffffffffffffffffffffffffffff1660008054906101000a900473ffffffffffffffffffffffffffffffffffffffff1683613aaa565b6000600f42612fc8919061441d565b905060008054906101000a900473ffffffffffffffffffffffffffffffffffffffff1673ffffffffffffffffffffffffffffffffffffffff166318cbafe58c6000613034600360009054906101000a900473ffffffffffffffffffffffffffffffffffffffff166123d9565b33866040518663ffffffff1660e01b81526004016130569594939291906142dd565b600060405180830381600087803b15801561307057600080fd5b505af1158015613084573d6000803e3d6000fd5b505050506040513d6000823e3d601f19601f820116820180604052508101906130ad9190613d31565b5060008054906101000a900473ffffffffffffffffffffffffffffffffffffffff1673ffffffffffffffffffffffffffffffffffffffff166318cbafe58b6000613118600460009054906101000a900473ffffffffffffffffffffffffffffffffffffffff166123d9565b33866040518663ffffffff1660e01b815260040161313a9594939291906142dd565b600060405180830381600087803b15801561315457600080fd5b505af1158015613168573d6000803e3d6000fd5b505050506040513d6000823e3d601f19601f820116820180604052508101906131919190613d31565b5060008054906101000a900473ffffffffffffffffffffffffffffffffffffffff1673ffffffffffffffffffffffffffffffffffffffff166318cbafe58a60006131fc600560009054906101000a900473ffffffffffffffffffffffffffffffffffffffff166123d9565b33866040518663ffffffff1660e01b815260040161321e9594939291906142dd565b600060405180830381600087803b15801561323857600080fd5b505af115801561324c573d6000803e3d6000fd5b505050506040513d6000823e3d601f19601f820116820180604052508101906132759190613d31565b5060008054906101000a900473ffffffffffffffffffffffffffffffffffffffff1673ffffffffffffffffffffffffffffffffffffffff166318cbafe58960006132e0600660009054906101000a900473ffffffffffffffffffffffffffffffffffffffff166123d9565b33866040518663ffffffff1660e01b81526004016133029594939291906142dd565b600060405180830381600087803b15801561331c57600080fd5b505af1158015613330573d6000803e3d6000fd5b505050506040513d6000823e3d601f19601f820116820180604052508101906133599190613d31565b5060008054906101000a900473ffffffffffffffffffffffffffffffffffffffff1673ffffffffffffffffffffffffffffffffffffffff166318cbafe58860006133c4600760009054906101000a900473ffffffffffffffffffffffffffffffffffffffff166123d9565b33866040518663ffffffff1660e01b81526004016133e69594939291906142dd565b600060405180830381600087803b15801561340057600080fd5b505af1158015613414573d6000803e3d6000fd5b505050506040513d6000823e3d601f19601f8201168201806040525081019061343d9190613d31565b5060008054906101000a900473ffffffffffffffffffffffffffffffffffffffff1673ffffffffffffffffffffffffffffffffffffffff166318cbafe58760006134a8600860009054906101000a900473ffffffffffffffffffffffffffffffffffffffff166123d9565b33866040518663ffffffff1660e01b81526004016134ca9594939291906142dd565b600060405180830381600087803b1580156134e457600080fd5b505af11580156134f8573d6000803e3d6000fd5b505050506040513d6000823e3d601f19601f820116820180604052508101906135219190613d31565b5060008054906101000a900473ffffffffffffffffffffffffffffffffffffffff1673ffffffffffffffffffffffffffffffffffffffff166318cbafe586600061358c600960009054906101000a900473ffffffffffffffffffffffffffffffffffffffff166123d9565b33866040518663ffffffff1660e01b81526004016135ae9594939291906142dd565b600060405180830381600087803b1580156135c857600080fd5b505af11580156135dc573d6000803e3d6000fd5b505050506040513d6000823e3d601f19601f820116820180604052508101906136059190613d31565b5060008054906101000a900473ffffffffffffffffffffffffffffffffffffffff1673ffffffffffffffffffffffffffffffffffffffff166318cbafe5856000613670600a60009054906101000a900473ffffffffffffffffffffffffffffffffffffffff166123d9565b33866040518663ffffffff1660e01b81526004016136929594939291906142dd565b600060405180830381600087803b1580156136ac57600080fd5b505af11580156136c0573d6000803e3d6000fd5b505050506040513d6000823e3d601f19601f820116820180604052508101906136e99190613d31565b5060008054906101000a900473ffffffffffffffffffffffffffffffffffffffff1673ffffffffffffffffffffffffffffffffffffffff166318cbafe5846000613754600b60009054906101000a900473ffffffffffffffffffffffffffffffffffffffff166123d9565b33866040518663ffffffff1660e01b81526004016137769594939291906142dd565b600060405180830381600087803b15801561379057600080fd5b505af11580156137a4573d6000803e3d6000fd5b505050506040513d6000823e3d601f19601f820116820180604052508101906137cd9190613d31565b5060008054906101000a900473ffffffffffffffffffffffffffffffffffffffff1673ffffffffffffffffffffffffffffffffffffffff166318cbafe5836000613838600c60009054906101000a900473ffffffffffffffffffffffffffffffffffffffff166123d9565b33866040518663ffffffff1660e01b815260040161385a9594939291906142dd565b600060405180830381600087803b15801561387457600080fd5b505af1158015613888573d6000803e3d6000fd5b505050506040513d6000823e3d601f19601f820116820180604052508101906138b19190613d31565b506138c58b8b8b8b8b8b8b8b8b8b336115e9565b505050505050505050505050565b60136020528060005260406000206000915090505481565b60166020528060005260406000206000915090505481565b60106020528060005260406000206000915090505481565b60188060000154908060010154905082565b600d6020528060005260406000206000915090505481565b6000818361395391906144a4565b905092915050565b600081836139699190614473565b905092915050565b6000808573ffffffffffffffffffffffffffffffffffffffff166323b872dd8686866040516024016139a59392919061415e565b6040516020818303038152906040529060e01b6020820180517bffffffffffffffffffffffffffffffffffffffffffffffffffffffff83818316178352505050506040516139f39190614117565b6000604051808303816000865af19150503d8060008114613a30576040519150601f19603f3d011682016040523d82523d6000602084013e613a35565b606091505b5091509150818015613a635750600081511480613a62575080806020019051810190613a619190613d72565b5b5b613aa2576040517f08c379a0000000000000000000000000000000000000000000000000000000008152600401613a9990614262565b60405180910390fd5b505050505050565b6000808473ffffffffffffffffffffffffffffffffffffffff1663095ea7b38585604051602401613adc929190614195565b6040516020818303038152906040529060e01b6020820180517bffffffffffffffffffffffffffffffffffffffffffffffffffffffff8381831617835250505050604051613b2a9190614117565b6000604051808303816000865af19150503d8060008114613b67576040519150601f19603f3d011682016040523d82523d6000602084013e613b6c565b606091505b5091509150818015613b9a5750600081511480613b99575080806020019051810190613b989190613d72565b5b5b613bd9576040517f08c379a0000000000000000000000000000000000000000000000000000000008152600401613bd090614282565b60405180910390fd5b5050505050565b6000613bf3613bee84614391565b614360565b90508083825260208201905082856020860282011115613c1257600080fd5b60005b85811015613c425781613c288882613cca565b845260208401935060208301925050600181019050613c15565b5050509392505050565b600081359050613c5b81614694565b92915050565b600081519050613c7081614694565b92915050565b600082601f830112613c8757600080fd5b8151613c97848260208601613be0565b91505092915050565b600081519050613caf816146ab565b92915050565b600081359050613cc4816146c2565b92915050565b600081519050613cd9816146c2565b92915050565b600060208284031215613cf157600080fd5b6000613cff84828501613c4c565b91505092915050565b600060208284031215613d1a57600080fd5b6000613d2884828501613c61565b91505092915050565b600060208284031215613d4357600080fd5b600082015167ffffffffffffffff811115613d5d57600080fd5b613d6984828501613c76565b91505092915050565b600060208284031215613d8457600080fd5b6000613d9284828501613ca0565b91505092915050565b600060208284031215613dad57600080fd5b6000613dbb84828501613cb5565b91505092915050565b60008060408385031215613dd757600080fd5b6000613de585828601613cb5565b9250506020613df685828601613cb5565b9150509250929050565b60008060008060008060008060008060006101608c8e031215613e2257600080fd5b6000613e308e828f01613cb5565b9b50506020613e418e828f01613cb5565b9a50506040613e528e828f01613cb5565b9950506060613e638e828f01613cb5565b9850506080613e748e828f01613cb5565b97505060a0613e858e828f01613cb5565b96505060c0613e968e828f01613cb5565b95505060e0613ea78e828f01613cb5565b945050610100613eb98e828f01613cb5565b935050610120613ecb8e828f01613cb5565b925050610140613edd8e828f01613c4c565b9150509295989b509295989b9093969950565b6000613efc8383613f08565b60208301905092915050565b613f1181614532565b82525050565b613f2081614532565b82525050565b6000613f31826143cd565b613f3b81856143f0565b9350613f46836143bd565b8060005b83811015613f77578151613f5e8882613ef0565b9750613f69836143e3565b925050600181019050613f4a565b5085935050505092915050565b6000613f8f826143d8565b613f998185614401565b9350613fa98185602086016145d4565b80840191505092915050565b613fbe8161457a565b82525050565b613fcd8161459e565b82525050565b613fdc816145c2565b82525050565b6000613fef60318361440c565b91507f5472616e7366657248656c7065723a3a7472616e7366657246726f6d3a20747260008301527f616e7366657246726f6d206661696c65640000000000000000000000000000006020830152604082019050919050565b6000614055602b8361440c565b91507f5472616e7366657248656c7065723a3a73616665417070726f76653a2061707060008301527f726f7665206661696c65640000000000000000000000000000000000000000006020830152604082019050919050565b60006140bb600083614401565b9150600082019050919050565b60006140d5600d8361440c565b91507f726566756e64206661696c6564000000000000000000000000000000000000006000830152602082019050919050565b61411181614570565b82525050565b60006141238284613f84565b915081905092915050565b6000614139826140ae565b9150819050919050565b60006020820190506141586000830184613f17565b92915050565b60006060820190506141736000830186613f17565b6141806020830185613f17565b61418d6040830184614108565b949350505050565b60006040820190506141aa6000830185613f17565b6141b76020830184614108565b9392505050565b600060208201905081810360008301526141d88184613f26565b905092915050565b60006020820190506141f56000830184613fb5565b92915050565b60006020820190506142106000830184613fc4565b92915050565b600060808201905061422b6000830187613fd3565b818103602083015261423d8186613f26565b905061424c6040830185613f17565b6142596060830184614108565b95945050505050565b6000602082019050818103600083015261427b81613fe2565b9050919050565b6000602082019050818103600083015261429b81614048565b9050919050565b600060208201905081810360008301526142bb816140c8565b9050919050565b60006020820190506142d76000830184614108565b92915050565b600060a0820190506142f26000830188614108565b6142ff6020830187613fd3565b81810360408301526143118186613f26565b90506143206060830185613f17565b61432d6080830184614108565b9695505050505050565b600060408201905061434c6000830185614108565b6143596020830184614108565b9392505050565b6000604051905081810181811067ffffffffffffffff8211171561438757614386614665565b5b8060405250919050565b600067ffffffffffffffff8211156143ac576143ab614665565b5b602082029050602081019050919050565b6000819050602082019050919050565b600081519050919050565b600081519050919050565b6000602082019050919050565b600082825260208201905092915050565b600081905092915050565b600082825260208201905092915050565b600061442882614570565b915061443383614570565b9250827fffffffffffffffffffffffffffffffffffffffffffffffffffffffffffffffff0382111561446857614467614607565b5b828201905092915050565b600061447e82614570565b915061448983614570565b92508261449957614498614636565b5b828204905092915050565b60006144af82614570565b91506144ba83614570565b9250817fffffffffffffffffffffffffffffffffffffffffffffffffffffffffffffffff04831182151516156144f3576144f2614607565b5b828202905092915050565b600061450982614570565b915061451483614570565b92508282101561452757614526614607565b5b828203905092915050565b600061453d82614550565b9050919050565b60008115159050919050565b600073ffffffffffffffffffffffffffffffffffffffff82169050919050565b6000819050919050565b60006145858261458c565b9050919050565b600061459782614550565b9050919050565b60006145a9826145b0565b9050919050565b60006145bb82614550565b9050919050565b60006145cd82614570565b9050919050565b60005b838110156145f25780820151818401526020810190506145d7565b83811115614601576000848401525b50505050565b7f4e487b7100000000000000000000000000000000000000000000000000000000600052601160045260246000fd5b7f4e487b7100000000000000000000000000000000000000000000000000000000600052601260045260246000fd5b7f4e487b7100000000000000000000000000000000000000000000000000000000600052604160045260246000fd5b61469d81614532565b81146146a857600080fd5b50565b6146b481614544565b81146146bf57600080fd5b50565b6146cb81614570565b81146146d657600080fd5b5056fea26469706673582212204c0f71e8f6b807affd0c679e42f69c596a3848a3f3e85fef0d6398407ceefa8564736f6c63430008000033",
  "immutableReferences": {},
  "source": "// SPDX-License-Identifier: MIT\npragma solidity >=0.4.22 <0.9.0;\n\nimport \"./IPancakeRouter02.sol\";\nimport \"@openzeppelin/contracts/utils/math/SafeMath.sol\";\nimport \"@openzeppelin/contracts/access/Ownable.sol\";\nimport \"@openzeppelin/contracts/token/ERC20/IERC20.sol\";\nimport \"./IToken.sol\";\nimport \"@uniswap/lib/contracts/libraries/TransferHelper.sol\";\n\ncontract NFTPortfolio {\n    address internal constant pancakeSwapAddress =\n        0x9Ac64Cc6e4415144C455BD8E4837Fea55603e5c3; //Router for pancake bsc testnet\n    // address internal constant pancakeSwapAddress = 0x10ED43C718714eb63d5aA57B78B54704E256024E; //Router for bsc mainnet\n    IPancakeRouter02 public pancakeSwapRouter;\n\n    address private vault = 0x6056773C28c258425Cf9BC8Ba5f86B8031863164;\n\n    IToken public nftToken;\n\n    using SafeMath for uint256;\n\n    address private crypto11 = 0xf34D883EcdE3238B153f38230987a0F4c221a48F; // AXS\n    address private crypto12 = 0x8bf2dF0Ff8528088475183a68678bd1Cd7691b69; // MANA\n    address private crypto13 = 0x1631A54AC95Ecb0085dB6b8ACf80c4Cee72AEB06; // SAND\n    address private crypto14 = 0x19A5E53eC7B385dbE2E587Ba989eA2AB8F7EaF1e; // THETA -- stop\n    address private crypto15 = 0xe5c48084E1974a971Bd5dF4d9B01daCCA86d5567; // FLOW\n    address private crypto16 = 0xC5De9d5B0BA5b408a3e9530A1BC310d8F2dCC26a; // XTZ\n    address private crypto17 = 0x4bf1CE8E4c4c86126E57Fa9fc3f1a9631661641c; // GALA\n    address private crypto18 = 0xdeEC6f0C22970b9b8a47069bE619bfAe646dEe26; // CHZ\n    address private crypto19 = 0xb08A1959f57b9cC8e5A5F1d329EfD90EE3438F65; // ENJ\n    address private crypto20 = 0x30c1AC77F4068A063648B549ffF96Ddb9d151325; // ROSE\n\n    mapping(address => uint256) public axsBalance;\n    mapping(address => uint256) public manaBalance;\n    mapping(address => uint256) public sandBalance;\n    mapping(address => uint256) public thetaBalance;\n    mapping(address => uint256) public flowalance;\n    mapping(address => uint256) public xtzBalance;\n    mapping(address => uint256) public galaBalance;\n    mapping(address => uint256) public chzBalance;\n    mapping(address => uint256) public enjBalance;\n    mapping(address => uint256) public roseBalance;\n\n    struct rate {\n        uint256 numerator;\n        uint256 denominator;\n    }\n    mapping(address => uint256) admins;\n    rate public currentRate;\n\n    constructor() {\n        pancakeSwapRouter = IPancakeRouter02(pancakeSwapAddress);\n        nftToken = IToken(0x817ea2A5Fd281d15CA70B05abB5E094356C42996);\n    }\n\n    function updateRate(uint256 _numerator, uint256 _denominator) public {\n        require(_numerator != 0);\n        require(_denominator != 0);\n        currentRate.numerator = _numerator;\n        currentRate.denominator = _denominator;\n    }\n\n    function setUpDataNFT(\n        uint256 axs,\n        uint256 mana,\n        uint256 sand,\n        uint256 theta,\n        uint256 flow,\n        uint256 xtz,\n        uint256 gala,\n        uint256 chz,\n        uint256 enj,\n        uint256 rose,\n        address user\n    ) public {\n        axsBalance[user] = axsBalance[user] + axs;\n        manaBalance[user] = manaBalance[user] + mana;\n        sandBalance[user] = sandBalance[user] + sand;\n        thetaBalance[user] = thetaBalance[user] + theta;\n        flowalance[user] = flowalance[user] + flow;\n        xtzBalance[user] = xtzBalance[user] + xtz;\n        galaBalance[user] = galaBalance[user] + gala;\n        chzBalance[user] = chzBalance[user] + chz;\n        enjBalance[user] = enjBalance[user] + enj;\n        roseBalance[user] = roseBalance[user] + rose;\n    }\n\n    function editDataNFT(\n        uint256 axs,\n        uint256 mana,\n        uint256 sand,\n        uint256 theta,\n        uint256 flow,\n        uint256 xtz,\n        uint256 gala,\n        uint256 chz,\n        uint256 enj,\n        uint256 rose,\n        address user\n    ) public {\n        axsBalance[user] = axsBalance[user] - axs;\n        manaBalance[user] = manaBalance[user] - mana;\n        sandBalance[user] = sandBalance[user] - sand;\n        thetaBalance[user] = thetaBalance[user] - theta;\n        flowalance[user] = flowalance[user] - flow;\n        xtzBalance[user] = xtzBalance[user] - xtz;\n        galaBalance[user] = galaBalance[user] - gala;\n        chzBalance[user] = chzBalance[user] - chz;\n        enjBalance[user] = enjBalance[user] - enj;\n        roseBalance[user] = roseBalance[user] - rose;\n    }\n\n    function investInFundDefi() public payable {\n        // approve\n        nftToken.approve(address(this), msg.value);\n\n        // update rate\n        updateRate(100, 100);\n\n        uint256[] memory crpyto1Amount;\n        uint256[] memory crpyto2Amount;\n        uint256[] memory crpyto3Amount;\n        uint256[] memory crpyto4Amount;\n        uint256[] memory crpyto5Amount;\n        uint256[] memory crpyto6Amount;\n        uint256[] memory crpyto7Amount;\n        uint256[] memory crpyto8Amount;\n        uint256[] memory crpyto9Amount;\n        uint256[] memory crpyto10Amount;\n\n        uint256 deadline = block.timestamp + 15; // using now for convenience, for mainnet pass deadline from frontend!\n\n        crpyto1Amount = pancakeSwapRouter.swapExactETHForTokens{\n            value: msg.value / 10\n        }(0, getPathForETH(crypto11), vault, deadline);\n\n        crpyto2Amount = pancakeSwapRouter.swapExactETHForTokens{\n            value: msg.value / 10\n        }(0, getPathForETH(crypto12), vault, deadline);\n\n        crpyto3Amount = pancakeSwapRouter.swapExactETHForTokens{\n            value: msg.value / 10\n        }(0, getPathForETH(crypto13), vault, deadline);\n\n        crpyto4Amount = pancakeSwapRouter.swapExactETHForTokens{\n            value: msg.value / 10\n        }(0, getPathForETH(crypto14), vault, deadline);\n\n        crpyto5Amount = pancakeSwapRouter.swapExactETHForTokens{\n            value: msg.value / 10\n        }(0, getPathForETH(crypto15), vault, deadline);\n\n        crpyto6Amount = pancakeSwapRouter.swapExactETHForTokens{\n            value: msg.value / 10\n        }(0, getPathForETH(crypto16), vault, deadline);\n\n        crpyto7Amount = pancakeSwapRouter.swapExactETHForTokens{\n            value: msg.value / 10\n        }(0, getPathForETH(crypto17), vault, deadline);\n\n        crpyto8Amount = pancakeSwapRouter.swapExactETHForTokens{\n            value: msg.value / 10\n        }(0, getPathForETH(crypto18), vault, deadline);\n\n        crpyto9Amount = pancakeSwapRouter.swapExactETHForTokens{\n            value: msg.value / 10\n        }(0, getPathForETH(crypto19), vault, deadline);\n\n        crpyto10Amount = pancakeSwapRouter.swapExactETHForTokens{\n            value: msg.value / 10\n        }(0, getPathForETH(crypto20), vault, deadline);\n\n        setUpDataNFT(\n            crpyto1Amount[1],\n            crpyto2Amount[1],\n            crpyto3Amount[1],\n            crpyto4Amount[1],\n            crpyto5Amount[1],\n            crpyto6Amount[1],\n            crpyto7Amount[1],\n            crpyto8Amount[1],\n            crpyto9Amount[1],\n            crpyto10Amount[1],\n            msg.sender\n        );\n        uint256 cryptoAmount = msg.value;\n        uint256 tokenAmount = cryptoAmount.mul(currentRate.numerator).div(\n            currentRate.denominator\n        );\n        nftToken.mint(msg.sender, tokenAmount);\n        // refund leftover ETH to user\n        (bool success, ) = msg.sender.call{value: address(this).balance}(\"\");\n        require(success, \"refund failed\");\n    }\n\n    function withdrawFromFundNFT(uint256 tokenAmount) public payable {\n        uint256 amount1 = axsBalance[msg.sender];\n        uint256 amount2 = manaBalance[msg.sender];\n        uint256 amount3 = sandBalance[msg.sender];\n        uint256 amount4 = thetaBalance[msg.sender];\n        uint256 amount5 = flowalance[msg.sender];\n        uint256 amount6 = xtzBalance[msg.sender];\n        uint256 amount7 = galaBalance[msg.sender];\n        uint256 amount8 = chzBalance[msg.sender];\n        uint256 amount9 = enjBalance[msg.sender];\n        uint256 amount10 = roseBalance[msg.sender];\n\n        // IDT Token Burn\n        TransferHelper.safeTransferFrom(\n            address(nftToken),\n            msg.sender,\n            address(this),\n            tokenAmount\n        );\n        TransferHelper.safeApprove(\n            address(nftToken),\n            address(this),\n            tokenAmount\n        );\n\n        nftToken.burn(address(this), tokenAmount);\n        // -------------------------------------------------------------------------------------------- //\n\n        //Getting Investment Back From Vault to Contract\n        TransferHelper.safeTransferFrom(\n            address(crypto11),\n            vault,\n            address(this),\n            amount1\n        );\n        TransferHelper.safeApprove(\n            address(crypto11),\n            address(pancakeSwapRouter),\n            amount1\n        );\n\n        TransferHelper.safeTransferFrom(\n            address(crypto12),\n            vault,\n            address(this),\n            amount2\n        );\n        TransferHelper.safeApprove(\n            address(crypto12),\n            address(pancakeSwapRouter),\n            amount2\n        );\n\n        TransferHelper.safeTransferFrom(\n            address(crypto13),\n            vault,\n            address(this),\n            amount3\n        );\n        TransferHelper.safeApprove(\n            address(crypto13),\n            address(pancakeSwapRouter),\n            amount3\n        );\n\n        TransferHelper.safeTransferFrom(\n            address(crypto14),\n            vault,\n            address(this),\n            amount4\n        );\n        TransferHelper.safeApprove(\n            address(crypto14),\n            address(pancakeSwapRouter),\n            amount4\n        );\n\n        TransferHelper.safeTransferFrom(\n            address(crypto15),\n            vault,\n            address(this),\n            amount5\n        );\n        TransferHelper.safeApprove(\n            address(crypto15),\n            address(pancakeSwapRouter),\n            amount6\n        );\n\n        TransferHelper.safeTransferFrom(\n            address(crypto16),\n            vault,\n            address(this),\n            amount6\n        );\n        TransferHelper.safeApprove(\n            address(crypto16),\n            address(pancakeSwapRouter),\n            amount6\n        );\n\n        TransferHelper.safeTransferFrom(\n            address(crypto17),\n            vault,\n            address(this),\n            amount7\n        );\n        TransferHelper.safeApprove(\n            address(crypto17),\n            address(pancakeSwapRouter),\n            amount7\n        );\n\n        TransferHelper.safeTransferFrom(\n            address(crypto18),\n            vault,\n            address(this),\n            amount8\n        );\n        TransferHelper.safeApprove(\n            address(crypto18),\n            address(pancakeSwapRouter),\n            amount8\n        );\n\n        TransferHelper.safeTransferFrom(\n            address(crypto19),\n            vault,\n            address(this),\n            amount9\n        );\n        TransferHelper.safeApprove(\n            address(crypto19),\n            address(pancakeSwapRouter),\n            amount9\n        );\n\n        TransferHelper.safeTransferFrom(\n            address(crypto20),\n            vault,\n            address(this),\n            amount10\n        );\n        TransferHelper.safeApprove(\n            address(crypto20),\n            address(pancakeSwapRouter),\n            amount10\n        );\n\n        // ------------------------------------------------------------------------------------------------ //\n\n        // Converting back to BNB\n        uint256 deadline = block.timestamp + 15;\n\n        pancakeSwapRouter.swapExactTokensForETH(\n            amount1,\n            0,\n            getPathForToken(crypto11),\n            msg.sender,\n            deadline\n        );\n        pancakeSwapRouter.swapExactTokensForETH(\n            amount2,\n            0,\n            getPathForToken(crypto12),\n            msg.sender,\n            deadline\n        );\n        pancakeSwapRouter.swapExactTokensForETH(\n            amount3,\n            0,\n            getPathForToken(crypto13),\n            msg.sender,\n            deadline\n        );\n        pancakeSwapRouter.swapExactTokensForETH(\n            amount4,\n            0,\n            getPathForToken(crypto14),\n            msg.sender,\n            deadline\n        );\n        pancakeSwapRouter.swapExactTokensForETH(\n            amount5,\n            0,\n            getPathForToken(crypto15),\n            msg.sender,\n            deadline\n        );\n        pancakeSwapRouter.swapExactTokensForETH(\n            amount6,\n            0,\n            getPathForToken(crypto16),\n            msg.sender,\n            deadline\n        );\n        pancakeSwapRouter.swapExactTokensForETH(\n            amount7,\n            0,\n            getPathForToken(crypto17),\n            msg.sender,\n            deadline\n        );\n        pancakeSwapRouter.swapExactTokensForETH(\n            amount8,\n            0,\n            getPathForToken(crypto18),\n            msg.sender,\n            deadline\n        );\n        pancakeSwapRouter.swapExactTokensForETH(\n            amount9,\n            0,\n            getPathForToken(crypto19),\n            msg.sender,\n            deadline\n        );\n        pancakeSwapRouter.swapExactTokensForETH(\n            amount10,\n            0,\n            getPathForToken(crypto20),\n            msg.sender,\n            deadline\n        );\n\n        editDataNFT(\n            amount1,\n            amount2,\n            amount3,\n            amount4,\n            amount5,\n            amount6,\n            amount7,\n            amount8,\n            amount9,\n            amount10,\n            msg.sender\n        );\n    }\n\n    // function addLiquidity() public payable{\n    //   uint deadline = block.timestamp + 15;\n    //   token.approve(pancakeSwapAddress,1000000000000000000000000000);\n    //   // pancakeSwapRouter.addLiquidityEth{value: msg.value}();\n    // }\n    function getPathForETH(address crypto)\n        public\n        view\n        returns (address[] memory)\n    {\n        address[] memory path = new address[](2);\n        path[0] = pancakeSwapRouter.WETH();\n        path[1] = crypto;\n        return path;\n    }\n\n    function getPathForToken(address token)\n        public\n        view\n        returns (address[] memory)\n    {\n        address[] memory path = new address[](2);\n        path[0] = token;\n        path[1] = pancakeSwapRouter.WETH();\n        return path;\n    }\n\n    function getETH() public view returns (address) {\n        return pancakeSwapRouter.WETH();\n    }\n\n    // important to receive ETH\n    receive() external payable {}\n}\n",
  "sourcePath": "/Users/navinalang/Navina-workgroup/05_create_and_burn_testnet/contracts/NFTPortfolio.sol",
  "compiler": {
    "name": "solc",
    "version": "0.8.0+commit.c7dfd78e.Emscripten.clang"
  },
  "schemaVersion": "3.4.6",
  "updatedAt": "2022-04-11T21:58:03.544Z",
  "devdoc": {
    "kind": "dev",
    "methods": {},
    "version": 1
  },
  "userdoc": {
    "kind": "user",
    "methods": {},
    "version": 1
  }
}