{
  "contractName": "NFTPortfolio",
  "abi": [
    {
      "inputs": [],
      "stateMutability": "nonpayable",
      "type": "constructor"
    },
    {
      "inputs": [
        {
          "internalType": "address",
          "name": "",
          "type": "address"
        }
      ],
      "name": "axsBalance",
      "outputs": [
        {
          "internalType": "uint256",
          "name": "",
          "type": "uint256"
        }
      ],
      "stateMutability": "view",
      "type": "function"
    },
    {
      "inputs": [
        {
          "internalType": "address",
          "name": "",
          "type": "address"
        }
      ],
      "name": "chzBalance",
      "outputs": [
        {
          "internalType": "uint256",
          "name": "",
          "type": "uint256"
        }
      ],
      "stateMutability": "view",
      "type": "function"
    },
    {
      "inputs": [],
      "name": "currentRate",
      "outputs": [
        {
          "internalType": "uint256",
          "name": "numerator",
          "type": "uint256"
        },
        {
          "internalType": "uint256",
          "name": "denominator",
          "type": "uint256"
        }
      ],
      "stateMutability": "view",
      "type": "function"
    },
    {
      "inputs": [
        {
          "internalType": "address",
          "name": "",
          "type": "address"
        }
      ],
      "name": "enjBalance",
      "outputs": [
        {
          "internalType": "uint256",
          "name": "",
          "type": "uint256"
        }
      ],
      "stateMutability": "view",
      "type": "function"
    },
    {
      "inputs": [
        {
          "internalType": "address",
          "name": "",
          "type": "address"
        }
      ],
      "name": "flowalance",
      "outputs": [
        {
          "internalType": "uint256",
          "name": "",
          "type": "uint256"
        }
      ],
      "stateMutability": "view",
      "type": "function"
    },
    {
      "inputs": [
        {
          "internalType": "address",
          "name": "",
          "type": "address"
        }
      ],
      "name": "galaBalance",
      "outputs": [
        {
          "internalType": "uint256",
          "name": "",
          "type": "uint256"
        }
      ],
      "stateMutability": "view",
      "type": "function"
    },
    {
      "inputs": [
        {
          "internalType": "address",
          "name": "",
          "type": "address"
        }
      ],
      "name": "manaBalance",
      "outputs": [
        {
          "internalType": "uint256",
          "name": "",
          "type": "uint256"
        }
      ],
      "stateMutability": "view",
      "type": "function"
    },
    {
      "inputs": [],
      "name": "nftToken",
      "outputs": [
        {
          "internalType": "contract IToken",
          "name": "",
          "type": "address"
        }
      ],
      "stateMutability": "view",
      "type": "function"
    },
    {
      "inputs": [],
      "name": "pancakeSwapRouter",
      "outputs": [
        {
          "internalType": "contract IPancakeRouter02",
          "name": "",
          "type": "address"
        }
      ],
      "stateMutability": "view",
      "type": "function"
    },
    {
      "inputs": [
        {
          "internalType": "address",
          "name": "",
          "type": "address"
        }
      ],
      "name": "roseBalance",
      "outputs": [
        {
          "internalType": "uint256",
          "name": "",
          "type": "uint256"
        }
      ],
      "stateMutability": "view",
      "type": "function"
    },
    {
      "inputs": [
        {
          "internalType": "address",
          "name": "",
          "type": "address"
        }
      ],
      "name": "sandBalance",
      "outputs": [
        {
          "internalType": "uint256",
          "name": "",
          "type": "uint256"
        }
      ],
      "stateMutability": "view",
      "type": "function"
    },
    {
      "inputs": [
        {
          "internalType": "address",
          "name": "",
          "type": "address"
        }
      ],
      "name": "thetaBalance",
      "outputs": [
        {
          "internalType": "uint256",
          "name": "",
          "type": "uint256"
        }
      ],
      "stateMutability": "view",
      "type": "function"
    },
    {
      "inputs": [
        {
          "internalType": "address",
          "name": "",
          "type": "address"
        }
      ],
      "name": "xtzBalance",
      "outputs": [
        {
          "internalType": "uint256",
          "name": "",
          "type": "uint256"
        }
      ],
      "stateMutability": "view",
      "type": "function"
    },
    {
      "stateMutability": "payable",
      "type": "receive"
    },
    {
      "inputs": [
        {
          "internalType": "uint256",
          "name": "_numerator",
          "type": "uint256"
        },
        {
          "internalType": "uint256",
          "name": "_denominator",
          "type": "uint256"
        }
      ],
      "name": "updateRate",
      "outputs": [],
      "stateMutability": "nonpayable",
      "type": "function"
    },
    {
      "inputs": [
        {
          "internalType": "uint256",
          "name": "axs",
          "type": "uint256"
        },
        {
          "internalType": "uint256",
          "name": "mana",
          "type": "uint256"
        },
        {
          "internalType": "uint256",
          "name": "sand",
          "type": "uint256"
        },
        {
          "internalType": "uint256",
          "name": "theta",
          "type": "uint256"
        },
        {
          "internalType": "uint256",
          "name": "flow",
          "type": "uint256"
        },
        {
          "internalType": "uint256",
          "name": "xtz",
          "type": "uint256"
        },
        {
          "internalType": "uint256",
          "name": "gala",
          "type": "uint256"
        },
        {
          "internalType": "uint256",
          "name": "chz",
          "type": "uint256"
        },
        {
          "internalType": "uint256",
          "name": "enj",
          "type": "uint256"
        },
        {
          "internalType": "uint256",
          "name": "rose",
          "type": "uint256"
        },
        {
          "internalType": "address",
          "name": "user",
          "type": "address"
        }
      ],
      "name": "setUpDataNFT",
      "outputs": [],
      "stateMutability": "nonpayable",
      "type": "function"
    },
    {
      "inputs": [],
      "name": "investInFundDefi",
      "outputs": [],
      "stateMutability": "payable",
      "type": "function"
    },
    {
      "inputs": [
        {
          "internalType": "uint256",
          "name": "tokenAmount",
          "type": "uint256"
        }
      ],
      "name": "withdrawFromFundNFT",
      "outputs": [],
      "stateMutability": "payable",
      "type": "function"
    },
    {
      "inputs": [
        {
          "internalType": "address",
          "name": "crypto",
          "type": "address"
        }
      ],
      "name": "getPathForETH",
      "outputs": [
        {
          "internalType": "address[]",
          "name": "",
          "type": "address[]"
        }
      ],
      "stateMutability": "view",
      "type": "function"
    },
    {
      "inputs": [
        {
          "internalType": "address",
          "name": "token",
          "type": "address"
        }
      ],
      "name": "getPathForToken",
      "outputs": [
        {
          "internalType": "address[]",
          "name": "",
          "type": "address[]"
        }
      ],
      "stateMutability": "view",
      "type": "function"
    },
    {
      "inputs": [],
      "name": "getETH",
      "outputs": [
        {
          "internalType": "address",
          "name": "",
          "type": "address"
        }
      ],
      "stateMutability": "view",
      "type": "function"
    }
  ],
  "bytecode": "0x6080604052736056773c28c258425cf9bc8ba5f86b8031863164600160006101000a81548173ffffffffffffffffffffffffffffffffffffffff021916908373ffffffffffffffffffffffffffffffffffffffff16021790555073f34d883ecde3238b153f38230987a0f4c221a48f600360006101000a81548173ffffffffffffffffffffffffffffffffffffffff021916908373ffffffffffffffffffffffffffffffffffffffff160217905550738bf2df0ff8528088475183a68678bd1cd7691b69600460006101000a81548173ffffffffffffffffffffffffffffffffffffffff021916908373ffffffffffffffffffffffffffffffffffffffff160217905550731631a54ac95ecb0085db6b8acf80c4cee72aeb06600560006101000a81548173ffffffffffffffffffffffffffffffffffffffff021916908373ffffffffffffffffffffffffffffffffffffffff1602179055507319a5e53ec7b385dbe2e587ba989ea2ab8f7eaf1e600660006101000a81548173ffffffffffffffffffffffffffffffffffffffff021916908373ffffffffffffffffffffffffffffffffffffffff16021790555073e5c48084e1974a971bd5df4d9b01dacca86d5567600760006101000a81548173ffffffffffffffffffffffffffffffffffffffff021916908373ffffffffffffffffffffffffffffffffffffffff16021790555073c5de9d5b0ba5b408a3e9530a1bc310d8f2dcc26a600860006101000a81548173ffffffffffffffffffffffffffffffffffffffff021916908373ffffffffffffffffffffffffffffffffffffffff160217905550734bf1ce8e4c4c86126e57fa9fc3f1a9631661641c600960006101000a81548173ffffffffffffffffffffffffffffffffffffffff021916908373ffffffffffffffffffffffffffffffffffffffff16021790555073deec6f0c22970b9b8a47069be619bfae646dee26600a60006101000a81548173ffffffffffffffffffffffffffffffffffffffff021916908373ffffffffffffffffffffffffffffffffffffffff16021790555073b08a1959f57b9cc8e5a5f1d329efd90ee3438f65600b60006101000a81548173ffffffffffffffffffffffffffffffffffffffff021916908373ffffffffffffffffffffffffffffffffffffffff1602179055507330c1ac77f4068a063648b549fff96ddb9d151325600c60006101000a81548173ffffffffffffffffffffffffffffffffffffffff021916908373ffffffffffffffffffffffffffffffffffffffff1602179055503480156103b757600080fd5b50739ac64cc6e4415144c455bd8e4837fea55603e5c36000806101000a81548173ffffffffffffffffffffffffffffffffffffffff021916908373ffffffffffffffffffffffffffffffffffffffff16021790555073817ea2a5fd281d15ca70b05abb5e094356c42996600260006101000a81548173ffffffffffffffffffffffffffffffffffffffff021916908373ffffffffffffffffffffffffffffffffffffffff1602179055506140fb806104706000396000f3fe6080604052600436106101235760003560e01c8063ba2dcba8116100a0578063d7c75bcc11610064578063d7c75bcc14610410578063de272c331461044d578063e6c5dd7c1461048a578063f9f8bdb7146104c7578063fbf1a7dd146104f35761012a565b8063ba2dcba814610326578063c99b9a8a14610363578063ca0e7ed51461038c578063d06fcba8146103c9578063d1d563c7146103f45761012a565b8063405abb41116100e7578063405abb41146102095780634278bdc3146102325780637dea0e111461026f5780639af4cf9c146102ac578063b0849c1c146102e95761012a565b806305c122d81461012f57806310f5ca691461016c57806314f6c3be146101a957806319effc68146101d457806324558995146101de5761012a565b3661012a57005b600080fd5b34801561013b57600080fd5b50610156600480360381019061015191906136ff565b610530565b6040516101639190613ce2565b60405180910390f35b34801561017857600080fd5b50610193600480360381019061018e91906136ff565b610548565b6040516101a09190613ce2565b60405180910390f35b3480156101b557600080fd5b506101be610560565b6040516101cb9190613b63565b60405180910390f35b6101dc610606565b005b3480156101ea57600080fd5b506101f36115b5565b6040516102009190613c00565b60405180910390f35b34801561021557600080fd5b50610230600480360381019061022b91906137e4565b6115d9565b005b34801561023e57600080fd5b50610259600480360381019061025491906136ff565b61160d565b6040516102669190613ce2565b60405180910390f35b34801561027b57600080fd5b50610296600480360381019061029191906136ff565b611625565b6040516102a39190613ce2565b60405180910390f35b3480156102b857600080fd5b506102d360048036038101906102ce91906136ff565b61163d565b6040516102e09190613ce2565b60405180910390f35b3480156102f557600080fd5b50610310600480360381019061030b91906136ff565b611655565b60405161031d9190613bde565b60405180910390f35b34801561033257600080fd5b5061034d600480360381019061034891906136ff565b61185b565b60405161035a9190613ce2565b60405180910390f35b34801561036f57600080fd5b5061038a60048036038101906103859190613820565b611873565b005b34801561039857600080fd5b506103b360048036038101906103ae91906136ff565b611e0c565b6040516103c09190613bde565b60405180910390f35b3480156103d557600080fd5b506103de612012565b6040516103eb9190613c1b565b60405180910390f35b61040e600480360381019061040991906137bb565b612038565b005b34801561041c57600080fd5b50610437600480360381019061043291906136ff565b6132f3565b6040516104449190613ce2565b60405180910390f35b34801561045957600080fd5b50610474600480360381019061046f91906136ff565b61330b565b6040516104819190613ce2565b60405180910390f35b34801561049657600080fd5b506104b160048036038101906104ac91906136ff565b613323565b6040516104be9190613ce2565b60405180910390f35b3480156104d357600080fd5b506104dc61333b565b6040516104ea929190613d57565b60405180910390f35b3480156104ff57600080fd5b5061051a600480360381019061051591906136ff565b61334d565b6040516105279190613ce2565b60405180910390f35b60126020528060005260406000206000915090505481565b60146020528060005260406000206000915090505481565b60008060009054906101000a900473ffffffffffffffffffffffffffffffffffffffff1673ffffffffffffffffffffffffffffffffffffffff1663ad5c46486040518163ffffffff1660e01b815260040160206040518083038186803b1580156105c957600080fd5b505afa1580156105dd573d6000803e3d6000fd5b505050506040513d601f19601f820116820180604052508101906106019190613728565b905090565b600260009054906101000a900473ffffffffffffffffffffffffffffffffffffffff1673ffffffffffffffffffffffffffffffffffffffff1663095ea7b330346040518363ffffffff1660e01b8152600401610663929190613bb5565b602060405180830381600087803b15801561067d57600080fd5b505af1158015610691573d6000803e3d6000fd5b505050506040513d601f19601f820116820180604052508101906106b59190613792565b506106c16064806115d9565b6060806060806060806060806060806000600f426106df9190613e3d565b905060008054906101000a900473ffffffffffffffffffffffffffffffffffffffff1673ffffffffffffffffffffffffffffffffffffffff16637ff36ab5600a3461072a9190613e93565b6000610757600360009054906101000a900473ffffffffffffffffffffffffffffffffffffffff16611655565b600160009054906101000a900473ffffffffffffffffffffffffffffffffffffffff16866040518663ffffffff1660e01b815260040161079a9493929190613c36565b6000604051808303818588803b1580156107b357600080fd5b505af11580156107c7573d6000803e3d6000fd5b50505050506040513d6000823e3d601f19601f820116820180604052508101906107f19190613751565b9a5060008054906101000a900473ffffffffffffffffffffffffffffffffffffffff1673ffffffffffffffffffffffffffffffffffffffff16637ff36ab5600a3461083c9190613e93565b6000610869600460009054906101000a900473ffffffffffffffffffffffffffffffffffffffff16611655565b600160009054906101000a900473ffffffffffffffffffffffffffffffffffffffff16866040518663ffffffff1660e01b81526004016108ac9493929190613c36565b6000604051808303818588803b1580156108c557600080fd5b505af11580156108d9573d6000803e3d6000fd5b50505050506040513d6000823e3d601f19601f820116820180604052508101906109039190613751565b995060008054906101000a900473ffffffffffffffffffffffffffffffffffffffff1673ffffffffffffffffffffffffffffffffffffffff16637ff36ab5600a3461094e9190613e93565b600061097b600560009054906101000a900473ffffffffffffffffffffffffffffffffffffffff16611655565b600160009054906101000a900473ffffffffffffffffffffffffffffffffffffffff16866040518663ffffffff1660e01b81526004016109be9493929190613c36565b6000604051808303818588803b1580156109d757600080fd5b505af11580156109eb573d6000803e3d6000fd5b50505050506040513d6000823e3d601f19601f82011682018060405250810190610a159190613751565b985060008054906101000a900473ffffffffffffffffffffffffffffffffffffffff1673ffffffffffffffffffffffffffffffffffffffff16637ff36ab5600a34610a609190613e93565b6000610a8d600660009054906101000a900473ffffffffffffffffffffffffffffffffffffffff16611655565b600160009054906101000a900473ffffffffffffffffffffffffffffffffffffffff16866040518663ffffffff1660e01b8152600401610ad09493929190613c36565b6000604051808303818588803b158015610ae957600080fd5b505af1158015610afd573d6000803e3d6000fd5b50505050506040513d6000823e3d601f19601f82011682018060405250810190610b279190613751565b975060008054906101000a900473ffffffffffffffffffffffffffffffffffffffff1673ffffffffffffffffffffffffffffffffffffffff16637ff36ab5600a34610b729190613e93565b6000610b9f600760009054906101000a900473ffffffffffffffffffffffffffffffffffffffff16611655565b600160009054906101000a900473ffffffffffffffffffffffffffffffffffffffff16866040518663ffffffff1660e01b8152600401610be29493929190613c36565b6000604051808303818588803b158015610bfb57600080fd5b505af1158015610c0f573d6000803e3d6000fd5b50505050506040513d6000823e3d601f19601f82011682018060405250810190610c399190613751565b965060008054906101000a900473ffffffffffffffffffffffffffffffffffffffff1673ffffffffffffffffffffffffffffffffffffffff16637ff36ab5600a34610c849190613e93565b6000610cb1600860009054906101000a900473ffffffffffffffffffffffffffffffffffffffff16611655565b600160009054906101000a900473ffffffffffffffffffffffffffffffffffffffff16866040518663ffffffff1660e01b8152600401610cf49493929190613c36565b6000604051808303818588803b158015610d0d57600080fd5b505af1158015610d21573d6000803e3d6000fd5b50505050506040513d6000823e3d601f19601f82011682018060405250810190610d4b9190613751565b955060008054906101000a900473ffffffffffffffffffffffffffffffffffffffff1673ffffffffffffffffffffffffffffffffffffffff16637ff36ab5600a34610d969190613e93565b6000610dc3600960009054906101000a900473ffffffffffffffffffffffffffffffffffffffff16611655565b600160009054906101000a900473ffffffffffffffffffffffffffffffffffffffff16866040518663ffffffff1660e01b8152600401610e069493929190613c36565b6000604051808303818588803b158015610e1f57600080fd5b505af1158015610e33573d6000803e3d6000fd5b50505050506040513d6000823e3d601f19601f82011682018060405250810190610e5d9190613751565b945060008054906101000a900473ffffffffffffffffffffffffffffffffffffffff1673ffffffffffffffffffffffffffffffffffffffff16637ff36ab5600a34610ea89190613e93565b6000610ed5600a60009054906101000a900473ffffffffffffffffffffffffffffffffffffffff16611655565b600160009054906101000a900473ffffffffffffffffffffffffffffffffffffffff16866040518663ffffffff1660e01b8152600401610f189493929190613c36565b6000604051808303818588803b158015610f3157600080fd5b505af1158015610f45573d6000803e3d6000fd5b50505050506040513d6000823e3d601f19601f82011682018060405250810190610f6f9190613751565b935060008054906101000a900473ffffffffffffffffffffffffffffffffffffffff1673ffffffffffffffffffffffffffffffffffffffff16637ff36ab5600a34610fba9190613e93565b6000610fe7600b60009054906101000a900473ffffffffffffffffffffffffffffffffffffffff16611655565b600160009054906101000a900473ffffffffffffffffffffffffffffffffffffffff16866040518663ffffffff1660e01b815260040161102a9493929190613c36565b6000604051808303818588803b15801561104357600080fd5b505af1158015611057573d6000803e3d6000fd5b50505050506040513d6000823e3d601f19601f820116820180604052508101906110819190613751565b925060008054906101000a900473ffffffffffffffffffffffffffffffffffffffff1673ffffffffffffffffffffffffffffffffffffffff16637ff36ab5600a346110cc9190613e93565b60006110f9600c60009054906101000a900473ffffffffffffffffffffffffffffffffffffffff16611655565b600160009054906101000a900473ffffffffffffffffffffffffffffffffffffffff16866040518663ffffffff1660e01b815260040161113c9493929190613c36565b6000604051808303818588803b15801561115557600080fd5b505af1158015611169573d6000803e3d6000fd5b50505050506040513d6000823e3d601f19601f820116820180604052508101906111939190613751565b91506114328b6001815181106111d2577f4e487b7100000000000000000000000000000000000000000000000000000000600052603260045260246000fd5b60200260200101518b600181518110611214577f4e487b7100000000000000000000000000000000000000000000000000000000600052603260045260246000fd5b60200260200101518b600181518110611256577f4e487b7100000000000000000000000000000000000000000000000000000000600052603260045260246000fd5b60200260200101518b600181518110611298577f4e487b7100000000000000000000000000000000000000000000000000000000600052603260045260246000fd5b60200260200101518b6001815181106112da577f4e487b7100000000000000000000000000000000000000000000000000000000600052603260045260246000fd5b60200260200101518b60018151811061131c577f4e487b7100000000000000000000000000000000000000000000000000000000600052603260045260246000fd5b60200260200101518b60018151811061135e577f4e487b7100000000000000000000000000000000000000000000000000000000600052603260045260246000fd5b60200260200101518b6001815181106113a0577f4e487b7100000000000000000000000000000000000000000000000000000000600052603260045260246000fd5b60200260200101518b6001815181106113e2577f4e487b7100000000000000000000000000000000000000000000000000000000600052603260045260246000fd5b60200260200101518b600181518110611424577f4e487b7100000000000000000000000000000000000000000000000000000000600052603260045260246000fd5b602002602001015133611873565b6000349050600061146860186001015461145a6018600001548561336590919063ffffffff16565b61337b90919063ffffffff16565b9050600260009054906101000a900473ffffffffffffffffffffffffffffffffffffffff1673ffffffffffffffffffffffffffffffffffffffff166340c10f1933836040518363ffffffff1660e01b81526004016114c7929190613bb5565b600060405180830381600087803b1580156114e157600080fd5b505af11580156114f5573d6000803e3d6000fd5b5050505060003373ffffffffffffffffffffffffffffffffffffffff164760405161151f90613b4e565b60006040518083038185875af1925050503d806000811461155c576040519150601f19603f3d011682016040523d82523d6000602084013e611561565b606091505b50509050806115a5576040517f08c379a000000000000000000000000000000000000000000000000000000000815260040161159c90613cc2565b60405180910390fd5b5050505050505050505050505050565b60008054906101000a900473ffffffffffffffffffffffffffffffffffffffff1681565b60008214156115e757600080fd5b60008114156115f557600080fd5b81601860000181905550806018600101819055505050565b60116020528060005260406000206000915090505481565b60156020528060005260406000206000915090505481565b600f6020528060005260406000206000915090505481565b60606000600267ffffffffffffffff81111561169a577f4e487b7100000000000000000000000000000000000000000000000000000000600052604160045260246000fd5b6040519080825280602002602001820160405280156116c85781602001602082028036833780820191505090505b50905060008054906101000a900473ffffffffffffffffffffffffffffffffffffffff1673ffffffffffffffffffffffffffffffffffffffff1663ad5c46486040518163ffffffff1660e01b815260040160206040518083038186803b15801561173157600080fd5b505afa158015611745573d6000803e3d6000fd5b505050506040513d601f19601f820116820180604052508101906117699190613728565b816000815181106117a3577f4e487b7100000000000000000000000000000000000000000000000000000000600052603260045260246000fd5b602002602001019073ffffffffffffffffffffffffffffffffffffffff16908173ffffffffffffffffffffffffffffffffffffffff16815250508281600181518110611818577f4e487b7100000000000000000000000000000000000000000000000000000000600052603260045260246000fd5b602002602001019073ffffffffffffffffffffffffffffffffffffffff16908173ffffffffffffffffffffffffffffffffffffffff168152505080915050919050565b600e6020528060005260406000206000915090505481565b8a600d60008373ffffffffffffffffffffffffffffffffffffffff1673ffffffffffffffffffffffffffffffffffffffff168152602001908152602001600020546118be9190613e3d565b600d60008373ffffffffffffffffffffffffffffffffffffffff1673ffffffffffffffffffffffffffffffffffffffff1681526020019081526020016000208190555089600e60008373ffffffffffffffffffffffffffffffffffffffff1673ffffffffffffffffffffffffffffffffffffffff1681526020019081526020016000205461194c9190613e3d565b600e60008373ffffffffffffffffffffffffffffffffffffffff1673ffffffffffffffffffffffffffffffffffffffff1681526020019081526020016000208190555088600f60008373ffffffffffffffffffffffffffffffffffffffff1673ffffffffffffffffffffffffffffffffffffffff168152602001908152602001600020546119da9190613e3d565b600f60008373ffffffffffffffffffffffffffffffffffffffff1673ffffffffffffffffffffffffffffffffffffffff1681526020019081526020016000208190555087601060008373ffffffffffffffffffffffffffffffffffffffff1673ffffffffffffffffffffffffffffffffffffffff16815260200190815260200160002054611a689190613e3d565b601060008373ffffffffffffffffffffffffffffffffffffffff1673ffffffffffffffffffffffffffffffffffffffff1681526020019081526020016000208190555086601160008373ffffffffffffffffffffffffffffffffffffffff1673ffffffffffffffffffffffffffffffffffffffff16815260200190815260200160002054611af69190613e3d565b601160008373ffffffffffffffffffffffffffffffffffffffff1673ffffffffffffffffffffffffffffffffffffffff1681526020019081526020016000208190555085601260008373ffffffffffffffffffffffffffffffffffffffff1673ffffffffffffffffffffffffffffffffffffffff16815260200190815260200160002054611b849190613e3d565b601260008373ffffffffffffffffffffffffffffffffffffffff1673ffffffffffffffffffffffffffffffffffffffff1681526020019081526020016000208190555084601360008373ffffffffffffffffffffffffffffffffffffffff1673ffffffffffffffffffffffffffffffffffffffff16815260200190815260200160002054611c129190613e3d565b601360008373ffffffffffffffffffffffffffffffffffffffff1673ffffffffffffffffffffffffffffffffffffffff1681526020019081526020016000208190555083601460008373ffffffffffffffffffffffffffffffffffffffff1673ffffffffffffffffffffffffffffffffffffffff16815260200190815260200160002054611ca09190613e3d565b601460008373ffffffffffffffffffffffffffffffffffffffff1673ffffffffffffffffffffffffffffffffffffffff1681526020019081526020016000208190555082601560008373ffffffffffffffffffffffffffffffffffffffff1673ffffffffffffffffffffffffffffffffffffffff16815260200190815260200160002054611d2e9190613e3d565b601560008373ffffffffffffffffffffffffffffffffffffffff1673ffffffffffffffffffffffffffffffffffffffff1681526020019081526020016000208190555081601660008373ffffffffffffffffffffffffffffffffffffffff1673ffffffffffffffffffffffffffffffffffffffff16815260200190815260200160002054611dbc9190613e3d565b601660008373ffffffffffffffffffffffffffffffffffffffff1673ffffffffffffffffffffffffffffffffffffffff168152602001908152602001600020819055505050505050505050505050565b60606000600267ffffffffffffffff811115611e51577f4e487b7100000000000000000000000000000000000000000000000000000000600052604160045260246000fd5b604051908082528060200260200182016040528015611e7f5781602001602082028036833780820191505090505b5090508281600081518110611ebd577f4e487b7100000000000000000000000000000000000000000000000000000000600052603260045260246000fd5b602002602001019073ffffffffffffffffffffffffffffffffffffffff16908173ffffffffffffffffffffffffffffffffffffffff168152505060008054906101000a900473ffffffffffffffffffffffffffffffffffffffff1673ffffffffffffffffffffffffffffffffffffffff1663ad5c46486040518163ffffffff1660e01b815260040160206040518083038186803b158015611f5d57600080fd5b505afa158015611f71573d6000803e3d6000fd5b505050506040513d601f19601f82011682018060405250810190611f959190613728565b81600181518110611fcf577f4e487b7100000000000000000000000000000000000000000000000000000000600052603260045260246000fd5b602002602001019073ffffffffffffffffffffffffffffffffffffffff16908173ffffffffffffffffffffffffffffffffffffffff168152505080915050919050565b600260009054906101000a900473ffffffffffffffffffffffffffffffffffffffff1681565b6000600d60003373ffffffffffffffffffffffffffffffffffffffff1673ffffffffffffffffffffffffffffffffffffffff1681526020019081526020016000205490506000600e60003373ffffffffffffffffffffffffffffffffffffffff1673ffffffffffffffffffffffffffffffffffffffff1681526020019081526020016000205490506000600f60003373ffffffffffffffffffffffffffffffffffffffff1673ffffffffffffffffffffffffffffffffffffffff1681526020019081526020016000205490506000601060003373ffffffffffffffffffffffffffffffffffffffff1673ffffffffffffffffffffffffffffffffffffffff1681526020019081526020016000205490506000601160003373ffffffffffffffffffffffffffffffffffffffff1673ffffffffffffffffffffffffffffffffffffffff1681526020019081526020016000205490506000601260003373ffffffffffffffffffffffffffffffffffffffff1673ffffffffffffffffffffffffffffffffffffffff1681526020019081526020016000205490506000601360003373ffffffffffffffffffffffffffffffffffffffff1673ffffffffffffffffffffffffffffffffffffffff1681526020019081526020016000205490506000601460003373ffffffffffffffffffffffffffffffffffffffff1673ffffffffffffffffffffffffffffffffffffffff1681526020019081526020016000205490506000601560003373ffffffffffffffffffffffffffffffffffffffff1673ffffffffffffffffffffffffffffffffffffffff1681526020019081526020016000205490506000601660003373ffffffffffffffffffffffffffffffffffffffff1673ffffffffffffffffffffffffffffffffffffffff16815260200190815260200160002054905061230e600260009054906101000a900473ffffffffffffffffffffffffffffffffffffffff1633308e613391565b61233b600260009054906101000a900473ffffffffffffffffffffffffffffffffffffffff16308d6134ca565b600260009054906101000a900473ffffffffffffffffffffffffffffffffffffffff1673ffffffffffffffffffffffffffffffffffffffff16639dc29fac308d6040518363ffffffff1660e01b8152600401612398929190613bb5565b600060405180830381600087803b1580156123b257600080fd5b505af11580156123c6573d6000803e3d6000fd5b5050505061241a600360009054906101000a900473ffffffffffffffffffffffffffffffffffffffff16600160009054906101000a900473ffffffffffffffffffffffffffffffffffffffff16308d613391565b612467600360009054906101000a900473ffffffffffffffffffffffffffffffffffffffff1660008054906101000a900473ffffffffffffffffffffffffffffffffffffffff168c6134ca565b6124b7600460009054906101000a900473ffffffffffffffffffffffffffffffffffffffff16600160009054906101000a900473ffffffffffffffffffffffffffffffffffffffff16308c613391565b612504600460009054906101000a900473ffffffffffffffffffffffffffffffffffffffff1660008054906101000a900473ffffffffffffffffffffffffffffffffffffffff168b6134ca565b612554600560009054906101000a900473ffffffffffffffffffffffffffffffffffffffff16600160009054906101000a900473ffffffffffffffffffffffffffffffffffffffff16308b613391565b6125a1600560009054906101000a900473ffffffffffffffffffffffffffffffffffffffff1660008054906101000a900473ffffffffffffffffffffffffffffffffffffffff168a6134ca565b6125f1600660009054906101000a900473ffffffffffffffffffffffffffffffffffffffff16600160009054906101000a900473ffffffffffffffffffffffffffffffffffffffff16308a613391565b61263e600660009054906101000a900473ffffffffffffffffffffffffffffffffffffffff1660008054906101000a900473ffffffffffffffffffffffffffffffffffffffff16896134ca565b61268e600760009054906101000a900473ffffffffffffffffffffffffffffffffffffffff16600160009054906101000a900473ffffffffffffffffffffffffffffffffffffffff163089613391565b6126db600760009054906101000a900473ffffffffffffffffffffffffffffffffffffffff1660008054906101000a900473ffffffffffffffffffffffffffffffffffffffff16876134ca565b61272b600860009054906101000a900473ffffffffffffffffffffffffffffffffffffffff16600160009054906101000a900473ffffffffffffffffffffffffffffffffffffffff163088613391565b612778600860009054906101000a900473ffffffffffffffffffffffffffffffffffffffff1660008054906101000a900473ffffffffffffffffffffffffffffffffffffffff16876134ca565b6127c8600960009054906101000a900473ffffffffffffffffffffffffffffffffffffffff16600160009054906101000a900473ffffffffffffffffffffffffffffffffffffffff163087613391565b612815600960009054906101000a900473ffffffffffffffffffffffffffffffffffffffff1660008054906101000a900473ffffffffffffffffffffffffffffffffffffffff16866134ca565b612865600a60009054906101000a900473ffffffffffffffffffffffffffffffffffffffff16600160009054906101000a900473ffffffffffffffffffffffffffffffffffffffff163086613391565b6128b2600a60009054906101000a900473ffffffffffffffffffffffffffffffffffffffff1660008054906101000a900473ffffffffffffffffffffffffffffffffffffffff16856134ca565b612902600b60009054906101000a900473ffffffffffffffffffffffffffffffffffffffff16600160009054906101000a900473ffffffffffffffffffffffffffffffffffffffff163085613391565b61294f600b60009054906101000a900473ffffffffffffffffffffffffffffffffffffffff1660008054906101000a900473ffffffffffffffffffffffffffffffffffffffff16846134ca565b61299f600c60009054906101000a900473ffffffffffffffffffffffffffffffffffffffff16600160009054906101000a900473ffffffffffffffffffffffffffffffffffffffff163084613391565b6129ec600c60009054906101000a900473ffffffffffffffffffffffffffffffffffffffff1660008054906101000a900473ffffffffffffffffffffffffffffffffffffffff16836134ca565b6000600f426129fb9190613e3d565b905060008054906101000a900473ffffffffffffffffffffffffffffffffffffffff1673ffffffffffffffffffffffffffffffffffffffff166318cbafe58c6000612a67600360009054906101000a900473ffffffffffffffffffffffffffffffffffffffff16611e0c565b33866040518663ffffffff1660e01b8152600401612a89959493929190613cfd565b600060405180830381600087803b158015612aa357600080fd5b505af1158015612ab7573d6000803e3d6000fd5b505050506040513d6000823e3d601f19601f82011682018060405250810190612ae09190613751565b5060008054906101000a900473ffffffffffffffffffffffffffffffffffffffff1673ffffffffffffffffffffffffffffffffffffffff166318cbafe58b6000612b4b600460009054906101000a900473ffffffffffffffffffffffffffffffffffffffff16611e0c565b33866040518663ffffffff1660e01b8152600401612b6d959493929190613cfd565b600060405180830381600087803b158015612b8757600080fd5b505af1158015612b9b573d6000803e3d6000fd5b505050506040513d6000823e3d601f19601f82011682018060405250810190612bc49190613751565b5060008054906101000a900473ffffffffffffffffffffffffffffffffffffffff1673ffffffffffffffffffffffffffffffffffffffff166318cbafe58a6000612c2f600560009054906101000a900473ffffffffffffffffffffffffffffffffffffffff16611e0c565b33866040518663ffffffff1660e01b8152600401612c51959493929190613cfd565b600060405180830381600087803b158015612c6b57600080fd5b505af1158015612c7f573d6000803e3d6000fd5b505050506040513d6000823e3d601f19601f82011682018060405250810190612ca89190613751565b5060008054906101000a900473ffffffffffffffffffffffffffffffffffffffff1673ffffffffffffffffffffffffffffffffffffffff166318cbafe5896000612d13600660009054906101000a900473ffffffffffffffffffffffffffffffffffffffff16611e0c565b33866040518663ffffffff1660e01b8152600401612d35959493929190613cfd565b600060405180830381600087803b158015612d4f57600080fd5b505af1158015612d63573d6000803e3d6000fd5b505050506040513d6000823e3d601f19601f82011682018060405250810190612d8c9190613751565b5060008054906101000a900473ffffffffffffffffffffffffffffffffffffffff1673ffffffffffffffffffffffffffffffffffffffff166318cbafe5886000612df7600760009054906101000a900473ffffffffffffffffffffffffffffffffffffffff16611e0c565b33866040518663ffffffff1660e01b8152600401612e19959493929190613cfd565b600060405180830381600087803b158015612e3357600080fd5b505af1158015612e47573d6000803e3d6000fd5b505050506040513d6000823e3d601f19601f82011682018060405250810190612e709190613751565b5060008054906101000a900473ffffffffffffffffffffffffffffffffffffffff1673ffffffffffffffffffffffffffffffffffffffff166318cbafe5876000612edb600860009054906101000a900473ffffffffffffffffffffffffffffffffffffffff16611e0c565b33866040518663ffffffff1660e01b8152600401612efd959493929190613cfd565b600060405180830381600087803b158015612f1757600080fd5b505af1158015612f2b573d6000803e3d6000fd5b505050506040513d6000823e3d601f19601f82011682018060405250810190612f549190613751565b5060008054906101000a900473ffffffffffffffffffffffffffffffffffffffff1673ffffffffffffffffffffffffffffffffffffffff166318cbafe5866000612fbf600960009054906101000a900473ffffffffffffffffffffffffffffffffffffffff16611e0c565b33866040518663ffffffff1660e01b8152600401612fe1959493929190613cfd565b600060405180830381600087803b158015612ffb57600080fd5b505af115801561300f573d6000803e3d6000fd5b505050506040513d6000823e3d601f19601f820116820180604052508101906130389190613751565b5060008054906101000a900473ffffffffffffffffffffffffffffffffffffffff1673ffffffffffffffffffffffffffffffffffffffff166318cbafe58560006130a3600a60009054906101000a900473ffffffffffffffffffffffffffffffffffffffff16611e0c565b33866040518663ffffffff1660e01b81526004016130c5959493929190613cfd565b600060405180830381600087803b1580156130df57600080fd5b505af11580156130f3573d6000803e3d6000fd5b505050506040513d6000823e3d601f19601f8201168201806040525081019061311c9190613751565b5060008054906101000a900473ffffffffffffffffffffffffffffffffffffffff1673ffffffffffffffffffffffffffffffffffffffff166318cbafe5846000613187600b60009054906101000a900473ffffffffffffffffffffffffffffffffffffffff16611e0c565b33866040518663ffffffff1660e01b81526004016131a9959493929190613cfd565b600060405180830381600087803b1580156131c357600080fd5b505af11580156131d7573d6000803e3d6000fd5b505050506040513d6000823e3d601f19601f820116820180604052508101906132009190613751565b5060008054906101000a900473ffffffffffffffffffffffffffffffffffffffff1673ffffffffffffffffffffffffffffffffffffffff166318cbafe583600061326b600c60009054906101000a900473ffffffffffffffffffffffffffffffffffffffff16611e0c565b33866040518663ffffffff1660e01b815260040161328d959493929190613cfd565b600060405180830381600087803b1580156132a757600080fd5b505af11580156132bb573d6000803e3d6000fd5b505050506040513d6000823e3d601f19601f820116820180604052508101906132e49190613751565b50505050505050505050505050565b60136020528060005260406000206000915090505481565b60166020528060005260406000206000915090505481565b60106020528060005260406000206000915090505481565b60188060000154908060010154905082565b600d6020528060005260406000206000915090505481565b600081836133739190613ec4565b905092915050565b600081836133899190613e93565b905092915050565b6000808573ffffffffffffffffffffffffffffffffffffffff166323b872dd8686866040516024016133c593929190613b7e565b6040516020818303038152906040529060e01b6020820180517bffffffffffffffffffffffffffffffffffffffffffffffffffffffff83818316178352505050506040516134139190613b37565b6000604051808303816000865af19150503d8060008114613450576040519150601f19603f3d011682016040523d82523d6000602084013e613455565b606091505b509150915081801561348357506000815114806134825750808060200190518101906134819190613792565b5b5b6134c2576040517f08c379a00000000000000000000000000000000000000000000000000000000081526004016134b990613c82565b60405180910390fd5b505050505050565b6000808473ffffffffffffffffffffffffffffffffffffffff1663095ea7b385856040516024016134fc929190613bb5565b6040516020818303038152906040529060e01b6020820180517bffffffffffffffffffffffffffffffffffffffffffffffffffffffff838183161783525050505060405161354a9190613b37565b6000604051808303816000865af19150503d8060008114613587576040519150601f19603f3d011682016040523d82523d6000602084013e61358c565b606091505b50915091508180156135ba57506000815114806135b95750808060200190518101906135b89190613792565b5b5b6135f9576040517f08c379a00000000000000000000000000000000000000000000000000000000081526004016135f090613ca2565b60405180910390fd5b5050505050565b600061361361360e84613db1565b613d80565b9050808382526020820190508285602086028201111561363257600080fd5b60005b85811015613662578161364888826136ea565b845260208401935060208301925050600181019050613635565b5050509392505050565b60008135905061367b81614080565b92915050565b60008151905061369081614080565b92915050565b600082601f8301126136a757600080fd5b81516136b7848260208601613600565b91505092915050565b6000815190506136cf81614097565b92915050565b6000813590506136e4816140ae565b92915050565b6000815190506136f9816140ae565b92915050565b60006020828403121561371157600080fd5b600061371f8482850161366c565b91505092915050565b60006020828403121561373a57600080fd5b600061374884828501613681565b91505092915050565b60006020828403121561376357600080fd5b600082015167ffffffffffffffff81111561377d57600080fd5b61378984828501613696565b91505092915050565b6000602082840312156137a457600080fd5b60006137b2848285016136c0565b91505092915050565b6000602082840312156137cd57600080fd5b60006137db848285016136d5565b91505092915050565b600080604083850312156137f757600080fd5b6000613805858286016136d5565b9250506020613816858286016136d5565b9150509250929050565b60008060008060008060008060008060006101608c8e03121561384257600080fd5b60006138508e828f016136d5565b9b505060206138618e828f016136d5565b9a505060406138728e828f016136d5565b99505060606138838e828f016136d5565b98505060806138948e828f016136d5565b97505060a06138a58e828f016136d5565b96505060c06138b68e828f016136d5565b95505060e06138c78e828f016136d5565b9450506101006138d98e828f016136d5565b9350506101206138eb8e828f016136d5565b9250506101406138fd8e828f0161366c565b9150509295989b509295989b9093969950565b600061391c8383613928565b60208301905092915050565b61393181613f1e565b82525050565b61394081613f1e565b82525050565b600061395182613ded565b61395b8185613e10565b935061396683613ddd565b8060005b8381101561399757815161397e8882613910565b975061398983613e03565b92505060018101905061396a565b5085935050505092915050565b60006139af82613df8565b6139b98185613e21565b93506139c9818560208601613fc0565b80840191505092915050565b6139de81613f66565b82525050565b6139ed81613f8a565b82525050565b6139fc81613fae565b82525050565b6000613a0f603183613e2c565b91507f5472616e7366657248656c7065723a3a7472616e7366657246726f6d3a20747260008301527f616e7366657246726f6d206661696c65640000000000000000000000000000006020830152604082019050919050565b6000613a75602b83613e2c565b91507f5472616e7366657248656c7065723a3a73616665417070726f76653a2061707060008301527f726f7665206661696c65640000000000000000000000000000000000000000006020830152604082019050919050565b6000613adb600083613e21565b9150600082019050919050565b6000613af5600d83613e2c565b91507f726566756e64206661696c6564000000000000000000000000000000000000006000830152602082019050919050565b613b3181613f5c565b82525050565b6000613b4382846139a4565b915081905092915050565b6000613b5982613ace565b9150819050919050565b6000602082019050613b786000830184613937565b92915050565b6000606082019050613b936000830186613937565b613ba06020830185613937565b613bad6040830184613b28565b949350505050565b6000604082019050613bca6000830185613937565b613bd76020830184613b28565b9392505050565b60006020820190508181036000830152613bf88184613946565b905092915050565b6000602082019050613c1560008301846139d5565b92915050565b6000602082019050613c3060008301846139e4565b92915050565b6000608082019050613c4b60008301876139f3565b8181036020830152613c5d8186613946565b9050613c6c6040830185613937565b613c796060830184613b28565b95945050505050565b60006020820190508181036000830152613c9b81613a02565b9050919050565b60006020820190508181036000830152613cbb81613a68565b9050919050565b60006020820190508181036000830152613cdb81613ae8565b9050919050565b6000602082019050613cf76000830184613b28565b92915050565b600060a082019050613d126000830188613b28565b613d1f60208301876139f3565b8181036040830152613d318186613946565b9050613d406060830185613937565b613d4d6080830184613b28565b9695505050505050565b6000604082019050613d6c6000830185613b28565b613d796020830184613b28565b9392505050565b6000604051905081810181811067ffffffffffffffff82111715613da757613da6614051565b5b8060405250919050565b600067ffffffffffffffff821115613dcc57613dcb614051565b5b602082029050602081019050919050565b6000819050602082019050919050565b600081519050919050565b600081519050919050565b6000602082019050919050565b600082825260208201905092915050565b600081905092915050565b600082825260208201905092915050565b6000613e4882613f5c565b9150613e5383613f5c565b9250827fffffffffffffffffffffffffffffffffffffffffffffffffffffffffffffffff03821115613e8857613e87613ff3565b5b828201905092915050565b6000613e9e82613f5c565b9150613ea983613f5c565b925082613eb957613eb8614022565b5b828204905092915050565b6000613ecf82613f5c565b9150613eda83613f5c565b9250817fffffffffffffffffffffffffffffffffffffffffffffffffffffffffffffffff0483118215151615613f1357613f12613ff3565b5b828202905092915050565b6000613f2982613f3c565b9050919050565b60008115159050919050565b600073ffffffffffffffffffffffffffffffffffffffff82169050919050565b6000819050919050565b6000613f7182613f78565b9050919050565b6000613f8382613f3c565b9050919050565b6000613f9582613f9c565b9050919050565b6000613fa782613f3c565b9050919050565b6000613fb982613f5c565b9050919050565b60005b83811015613fde578082015181840152602081019050613fc3565b83811115613fed576000848401525b50505050565b7f4e487b7100000000000000000000000000000000000000000000000000000000600052601160045260246000fd5b7f4e487b7100000000000000000000000000000000000000000000000000000000600052601260045260246000fd5b7f4e487b7100000000000000000000000000000000000000000000000000000000600052604160045260246000fd5b61408981613f1e565b811461409457600080fd5b50565b6140a081613f30565b81146140ab57600080fd5b50565b6140b781613f5c565b81146140c257600080fd5b5056fea26469706673582212209e5d0a09b4773a4f91b6dbd5675aeb8beb32fe8ff9282c741cbc09b97810075564736f6c63430008000033",
  "immutableReferences": {},
  "source": "// SPDX-License-Identifier: MIT\npragma solidity >=0.4.22 <0.9.0;\n\nimport \"./IPancakeRouter02.sol\";\nimport \"@openzeppelin/contracts/utils/math/SafeMath.sol\";\nimport \"@openzeppelin/contracts/access/Ownable.sol\";\nimport \"@openzeppelin/contracts/token/ERC20/IERC20.sol\";\nimport \"./IToken.sol\";\nimport \"@uniswap/lib/contracts/libraries/TransferHelper.sol\";\n\ncontract NFTPortfolio {\n    address internal constant pancakeSwapAddress =\n        0x9Ac64Cc6e4415144C455BD8E4837Fea55603e5c3; //Router for pancake bsc testnet\n    // address internal constant pancakeSwapAddress = 0x10ED43C718714eb63d5aA57B78B54704E256024E; //Router for bsc mainnet\n    IPancakeRouter02 public pancakeSwapRouter;\n\n    address private vault = 0x6056773C28c258425Cf9BC8Ba5f86B8031863164;\n\n    IToken public nftToken;\n\n    using SafeMath for uint256;\n\n    address private crypto11 = 0xf34D883EcdE3238B153f38230987a0F4c221a48F; // AXS\n    address private crypto12 = 0x8bf2dF0Ff8528088475183a68678bd1Cd7691b69; // MANA\n    address private crypto13 = 0x1631A54AC95Ecb0085dB6b8ACf80c4Cee72AEB06; // SAND\n    address private crypto14 = 0x19A5E53eC7B385dbE2E587Ba989eA2AB8F7EaF1e; // THETA -- stop\n    address private crypto15 = 0xe5c48084E1974a971Bd5dF4d9B01daCCA86d5567; // FLOW\n    address private crypto16 = 0xC5De9d5B0BA5b408a3e9530A1BC310d8F2dCC26a; // XTZ\n    address private crypto17 = 0x4bf1CE8E4c4c86126E57Fa9fc3f1a9631661641c; // GALA\n    address private crypto18 = 0xdeEC6f0C22970b9b8a47069bE619bfAe646dEe26; // CHZ\n    address private crypto19 = 0xb08A1959f57b9cC8e5A5F1d329EfD90EE3438F65; // ENJ\n    address private crypto20 = 0x30c1AC77F4068A063648B549ffF96Ddb9d151325; // ROSE\n\n    mapping(address => uint256) public axsBalance;\n    mapping(address => uint256) public manaBalance;\n    mapping(address => uint256) public sandBalance;\n    mapping(address => uint256) public thetaBalance;\n    mapping(address => uint256) public flowalance;\n    mapping(address => uint256) public xtzBalance;\n    mapping(address => uint256) public galaBalance;\n    mapping(address => uint256) public chzBalance;\n    mapping(address => uint256) public enjBalance;\n    mapping(address => uint256) public roseBalance;\n\n    struct rate {\n        uint256 numerator;\n        uint256 denominator;\n    }\n    mapping(address => uint256) admins;\n    rate public currentRate;\n\n    constructor() {\n        pancakeSwapRouter = IPancakeRouter02(pancakeSwapAddress);\n        nftToken = IToken(0x817ea2A5Fd281d15CA70B05abB5E094356C42996);\n    }\n\n    function updateRate(uint256 _numerator, uint256 _denominator) public {\n        require(_numerator != 0);\n        require(_denominator != 0);\n        currentRate.numerator = _numerator;\n        currentRate.denominator = _denominator;\n    }\n\n    function setUpDataNFT(\n        uint256 axs,\n        uint256 mana,\n        uint256 sand,\n        uint256 theta,\n        uint256 flow,\n        uint256 xtz,\n        uint256 gala,\n        uint256 chz,\n        uint256 enj,\n        uint256 rose,\n        address user\n    ) public {\n        axsBalance[user] = axsBalance[user] + axs;\n        manaBalance[user] = manaBalance[user] + mana;\n        sandBalance[user] = sandBalance[user] + sand;\n        thetaBalance[user] = thetaBalance[user] + theta;\n        flowalance[user] = flowalance[user] + flow;\n        xtzBalance[user] = xtzBalance[user] + xtz;\n        galaBalance[user] = galaBalance[user] + gala;\n        chzBalance[user] = chzBalance[user] + chz;\n        enjBalance[user] = enjBalance[user] + enj;\n        roseBalance[user] = roseBalance[user] + rose;\n    }\n\n    function investInFundDefi() public payable {\n        // approve\n        nftToken.approve(address(this), msg.value);\n\n        // update rate\n        updateRate(100, 100);\n\n        uint256[] memory crpyto1Amount;\n        uint256[] memory crpyto2Amount;\n        uint256[] memory crpyto3Amount;\n        uint256[] memory crpyto4Amount;\n        uint256[] memory crpyto5Amount;\n        uint256[] memory crpyto6Amount;\n        uint256[] memory crpyto7Amount;\n        uint256[] memory crpyto8Amount;\n        uint256[] memory crpyto9Amount;\n        uint256[] memory crpyto10Amount;\n\n        uint256 deadline = block.timestamp + 15; // using now for convenience, for mainnet pass deadline from frontend!\n\n        crpyto1Amount = pancakeSwapRouter.swapExactETHForTokens{\n            value: msg.value / 10\n        }(0, getPathForETH(crypto11), vault, deadline);\n\n        crpyto2Amount = pancakeSwapRouter.swapExactETHForTokens{\n            value: msg.value / 10\n        }(0, getPathForETH(crypto12), vault, deadline);\n\n        crpyto3Amount = pancakeSwapRouter.swapExactETHForTokens{\n            value: msg.value / 10\n        }(0, getPathForETH(crypto13), vault, deadline);\n\n        crpyto4Amount = pancakeSwapRouter.swapExactETHForTokens{\n            value: msg.value / 10\n        }(0, getPathForETH(crypto14), vault, deadline);\n\n        crpyto5Amount = pancakeSwapRouter.swapExactETHForTokens{\n            value: msg.value / 10\n        }(0, getPathForETH(crypto15), vault, deadline);\n\n        crpyto6Amount = pancakeSwapRouter.swapExactETHForTokens{\n            value: msg.value / 10\n        }(0, getPathForETH(crypto16), vault, deadline);\n\n        crpyto7Amount = pancakeSwapRouter.swapExactETHForTokens{\n            value: msg.value / 10\n        }(0, getPathForETH(crypto17), vault, deadline);\n\n        crpyto8Amount = pancakeSwapRouter.swapExactETHForTokens{\n            value: msg.value / 10\n        }(0, getPathForETH(crypto18), vault, deadline);\n\n        crpyto9Amount = pancakeSwapRouter.swapExactETHForTokens{\n            value: msg.value / 10\n        }(0, getPathForETH(crypto19), vault, deadline);\n\n        crpyto10Amount = pancakeSwapRouter.swapExactETHForTokens{\n            value: msg.value / 10\n        }(0, getPathForETH(crypto20), vault, deadline);\n\n        setUpDataNFT(\n            crpyto1Amount[1],\n            crpyto2Amount[1],\n            crpyto3Amount[1],\n            crpyto4Amount[1],\n            crpyto5Amount[1],\n            crpyto6Amount[1],\n            crpyto7Amount[1],\n            crpyto8Amount[1],\n            crpyto9Amount[1],\n            crpyto10Amount[1],\n            msg.sender\n        );\n        uint256 cryptoAmount = msg.value;\n        uint256 tokenAmount = cryptoAmount.mul(currentRate.numerator).div(\n            currentRate.denominator\n        );\n        nftToken.mint(msg.sender, tokenAmount);\n        // refund leftover ETH to user\n        (bool success, ) = msg.sender.call{value: address(this).balance}(\"\");\n        require(success, \"refund failed\");\n    }\n\n    function withdrawFromFundNFT(uint256 tokenAmount) public payable {\n        uint256 amount1 = axsBalance[msg.sender];\n        uint256 amount2 = manaBalance[msg.sender];\n        uint256 amount3 = sandBalance[msg.sender];\n        uint256 amount4 = thetaBalance[msg.sender];\n        uint256 amount5 = flowalance[msg.sender];\n        uint256 amount6 = xtzBalance[msg.sender];\n        uint256 amount7 = galaBalance[msg.sender];\n        uint256 amount8 = chzBalance[msg.sender];\n        uint256 amount9 = enjBalance[msg.sender];\n        uint256 amount10 = roseBalance[msg.sender];\n\n        // IDT Token Burn\n        TransferHelper.safeTransferFrom(\n            address(nftToken),\n            msg.sender,\n            address(this),\n            tokenAmount\n        );\n        TransferHelper.safeApprove(\n            address(nftToken),\n            address(this),\n            tokenAmount\n        );\n\n        nftToken.burn(address(this), tokenAmount);\n        // -------------------------------------------------------------------------------------------- //\n\n        //Getting Investment Back From Vault to Contract\n        TransferHelper.safeTransferFrom(\n            address(crypto11),\n            vault,\n            address(this),\n            amount1\n        );\n        TransferHelper.safeApprove(\n            address(crypto11),\n            address(pancakeSwapRouter),\n            amount1\n        );\n\n        TransferHelper.safeTransferFrom(\n            address(crypto12),\n            vault,\n            address(this),\n            amount2\n        );\n        TransferHelper.safeApprove(\n            address(crypto12),\n            address(pancakeSwapRouter),\n            amount2\n        );\n\n        TransferHelper.safeTransferFrom(\n            address(crypto13),\n            vault,\n            address(this),\n            amount3\n        );\n        TransferHelper.safeApprove(\n            address(crypto13),\n            address(pancakeSwapRouter),\n            amount3\n        );\n\n        TransferHelper.safeTransferFrom(\n            address(crypto14),\n            vault,\n            address(this),\n            amount4\n        );\n        TransferHelper.safeApprove(\n            address(crypto14),\n            address(pancakeSwapRouter),\n            amount4\n        );\n\n        TransferHelper.safeTransferFrom(\n            address(crypto15),\n            vault,\n            address(this),\n            amount5\n        );\n        TransferHelper.safeApprove(\n            address(crypto15),\n            address(pancakeSwapRouter),\n            amount6\n        );\n\n        TransferHelper.safeTransferFrom(\n            address(crypto16),\n            vault,\n            address(this),\n            amount6\n        );\n        TransferHelper.safeApprove(\n            address(crypto16),\n            address(pancakeSwapRouter),\n            amount6\n        );\n\n        TransferHelper.safeTransferFrom(\n            address(crypto17),\n            vault,\n            address(this),\n            amount7\n        );\n        TransferHelper.safeApprove(\n            address(crypto17),\n            address(pancakeSwapRouter),\n            amount7\n        );\n\n        TransferHelper.safeTransferFrom(\n            address(crypto18),\n            vault,\n            address(this),\n            amount8\n        );\n        TransferHelper.safeApprove(\n            address(crypto18),\n            address(pancakeSwapRouter),\n            amount8\n        );\n\n        TransferHelper.safeTransferFrom(\n            address(crypto19),\n            vault,\n            address(this),\n            amount9\n        );\n        TransferHelper.safeApprove(\n            address(crypto19),\n            address(pancakeSwapRouter),\n            amount9\n        );\n\n        TransferHelper.safeTransferFrom(\n            address(crypto20),\n            vault,\n            address(this),\n            amount10\n        );\n        TransferHelper.safeApprove(\n            address(crypto20),\n            address(pancakeSwapRouter),\n            amount10\n        );\n\n        // ------------------------------------------------------------------------------------------------ //\n\n        // Converting back to BNB\n        uint256 deadline = block.timestamp + 15;\n\n        pancakeSwapRouter.swapExactTokensForETH(\n            amount1,\n            0,\n            getPathForToken(crypto11),\n            msg.sender,\n            deadline\n        );\n        pancakeSwapRouter.swapExactTokensForETH(\n            amount2,\n            0,\n            getPathForToken(crypto12),\n            msg.sender,\n            deadline\n        );\n        pancakeSwapRouter.swapExactTokensForETH(\n            amount3,\n            0,\n            getPathForToken(crypto13),\n            msg.sender,\n            deadline\n        );\n        pancakeSwapRouter.swapExactTokensForETH(\n            amount4,\n            0,\n            getPathForToken(crypto14),\n            msg.sender,\n            deadline\n        );\n        pancakeSwapRouter.swapExactTokensForETH(\n            amount5,\n            0,\n            getPathForToken(crypto15),\n            msg.sender,\n            deadline\n        );\n        pancakeSwapRouter.swapExactTokensForETH(\n            amount6,\n            0,\n            getPathForToken(crypto16),\n            msg.sender,\n            deadline\n        );\n        pancakeSwapRouter.swapExactTokensForETH(\n            amount7,\n            0,\n            getPathForToken(crypto17),\n            msg.sender,\n            deadline\n        );\n        pancakeSwapRouter.swapExactTokensForETH(\n            amount8,\n            0,\n            getPathForToken(crypto18),\n            msg.sender,\n            deadline\n        );\n        pancakeSwapRouter.swapExactTokensForETH(\n            amount9,\n            0,\n            getPathForToken(crypto19),\n            msg.sender,\n            deadline\n        );\n        pancakeSwapRouter.swapExactTokensForETH(\n            amount10,\n            0,\n            getPathForToken(crypto20),\n            msg.sender,\n            deadline\n        );\n    }\n\n    // function addLiquidity() public payable{\n    //   uint deadline = block.timestamp + 15;\n    //   token.approve(pancakeSwapAddress,1000000000000000000000000000);\n    //   // pancakeSwapRouter.addLiquidityEth{value: msg.value}();\n    // }\n    function getPathForETH(address crypto)\n        public\n        view\n        returns (address[] memory)\n    {\n        address[] memory path = new address[](2);\n        path[0] = pancakeSwapRouter.WETH();\n        path[1] = crypto;\n        return path;\n    }\n\n    function getPathForToken(address token)\n        public\n        view\n        returns (address[] memory)\n    {\n        address[] memory path = new address[](2);\n        path[0] = token;\n        path[1] = pancakeSwapRouter.WETH();\n        return path;\n    }\n\n    function getETH() public view returns (address) {\n        return pancakeSwapRouter.WETH();\n    }\n\n    // important to receive ETH\n    receive() external payable {}\n}\n",
  "sourcePath": "/Users/navinalang/Navina-workgroup/05_create_and_burn_testnet/contracts/NFTPortfolio.sol",
  "compiler": {
    "name": "solc",
    "version": "0.8.0+commit.c7dfd78e.Emscripten.clang"
  },
  "schemaVersion": "3.4.6",
  "updatedAt": "2022-04-09T17:23:27.408Z",
  "devdoc": {
    "kind": "dev",
    "methods": {},
    "version": 1
  },
  "userdoc": {
    "kind": "user",
    "methods": {},
    "version": 1
  }
}